:020000040800F2
:1000000010080020D1030008290400082904000872
:100010002904000829040008290400080000000041
:10002000000000000000000000000000290400089B
:100030002904000800000000290400082904000821
:1000400029040008290400082904000829040008DC
:1000500029040008290400082904000829040008CC
:1000600029040008290400082904000829040008BC
:1000700029040008290400082904000829040008AC
:10008000290400082904000829040008290400089C
:10009000290400082904000829040008290400088C
:1000A000290400082904000829040008290400087C
:1000B000290400082904000829040008290400086C
:1000C000290400082904000829040008290400085C
:1000D000290400082904000829040008290400084C
:1000E000290400082904000829040008290400083C
:1000F000290400082904000829040008290400082C
:10010000290400082904000829040008290400081B
:10011000290400082904000829040008290400080B
:1001200029040008290400082904000829040008FB
:1001300029040008290400082904000829040008EB
:1001400029040008290400082904000829040008DB
:1001500029040008290400082904000829040008CB
:1001600029040008290400082904000829040008BB
:1001700029040008290400082904000829040008AB
:10018000290400082904000880B58AB000AF78600F
:10019000396000237B6200233B620023FB61002364
:1001A000BB617B681B8A9BB27B627B6A23F44053F2
:1001B0007B623B68DB881A467B6A13437B627B6AFF
:1001C0009AB27B681A827B689B899BB27B627B6A4E
:1001D00023F4B05323F00C037B623B689A883B689E
:1001E0001B8913439AB23B685B8913439BB21A463F
:1001F0007B6A13437B627B6A9AB27B689A817B68D5
:100200009B8A9BB27B627B6A23F440737B623B6870
:100210009B891A467B6A13437B627B6A9AB27B682E
:100220009A8207F10803184600F012F97B68314AF8
:10023000934203D07B68304A934202D17B693B6290
:1002400001E03B693B627B689B899BB29BB21BB21E
:10025000002B0CDA3A6A13469B0013449A001A44A6
:100260003B681B685B00B2FBF3F3FB610BE03A6A8F
:1002700013469B0013449A001A443B681B689B007A
:10028000B2FBF3F3FB61FB691C4AA2FB03235B098E
:100290001B017B627B6A1B09642202FB03F3FA6980
:1002A000D31ABB617B689B899BB29BB21BB2002BAC
:1002B0000CDABB69DB003233104AA2FB03235B0973
:1002C00003F007037A6A13437B620BE0BB691B01EF
:1002D00032330A4AA2FB03235B0903F00F037A6A55
:1002E00013437B627B6A9AB27B681A812837BD46CA
:1002F00080BD00BF00100140001401401F85EB517C
:1003000080B483B000AF78600B46FB70FB78002BA5
:1003100008D07B689B899BB243F400539AB27B68F8
:100320009A8107E07B689B899BB223F400539AB2C1
:100330007B689A810C37BD465DF8047B704700BF2F
:1003400080B487B000AF78600B467B8013467B702B
:1003500000233B610023FB600023BB6000237B6123
:100360007B687B617B88DBB25B09DBB23B617B88AE
:1003700003F01F03FB60FB68012202FA03F3BB607A
:100380003B69012B03D17B690C337B6109E03B693D
:10039000022B03D17B6910337B6102E07B6914334C
:1003A0007B617B78002B06D07B697A691168BA681B
:1003B0000A431A6006E07B697A691168BA68D24319
:1003C0000A401A601C37BD465DF8047B704700BFC9
:1003D00080B582B000AF0F4B7B600F4B3B6007E0F6
:1003E0003B681A1D3A607A68111D796012681A60BC
:1003F0003B680A4A9342F3D309480A494FF0000286
:100400008842B8BF40F8042BFADB00F011F8083737
:10041000BD4680BD7C0B00080000002010000020BD
:10042000100000201000002080B400AFFEE700BFE5
:1004300080B586B000AF00F06DFA07F110031846E2
:1004400000F0CEF83B46184600F00AFBFEE700BF7E
:1004500080B489B000AF78600023BB6100237B616A
:100460000023FB6102233B610023FB600223BB608E
:10047000484B9B6803F00C03BB61BB69042B07D09E
:10048000082B09D0002B3FD17B68434A1A603FE01C
:100490007B68424A1A603BE03E4B5B6803F4800392
:1004A0009B0DFB603B4B5B6803F03F03BB60FB684D
:1004B000002B0DD0394ABB68B2FBF3F2354B5968BB
:1004C00047F6C0730B409B0903FB02F3FB610CE092
:1004D000314ABB68B2FBF3F22E4B596847F6C07342
:1004E0000B409B0903FB02F3FB612A4B5B6803F49F
:1004F00040331B0C01335B003B61FA693B69B2FB83
:10050000F3F27B681A6003E07B68234A1A6000BF3D
:10051000204B9B6803F0F003BB61BB691B09BB6107
:100520001F4ABB6913441B78DBB27B617B681A6886
:100530007B69DA407B685A60164B9B6803F4E05392
:10054000BB61BB699B0ABB61154ABB6913441B783D
:10055000DBB27B617B685A687B69DA407B689A60B2
:100560000C4B9B6803F46043BB61BB695B0BBB61D5
:100570000B4ABB6913441B78DBB27B617B685A680A
:100580007B69DA407B68DA602437BD465DF8047B1E
:10059000704700BF003802400024F40000127A00C7
:1005A0000000002080B483B000AF78600B46FB7081
:1005B000FB78002B06D00949084B1A6B7B68134364
:1005C0000B6306E00549054B1A6B7B68DB43134060
:1005D0000B630C37BD465DF8047B70470038024062
:1005E00080B582B000AF7860786800F00DF8786868
:1005F00000F050F8786800F06DF8786800F0A8F81E
:100600000837BD4680BD00BF80B582B000AF7860BE
:1006100001200121FFF7C6FF1C480021082200F03D
:1006200031F91A480121082200F02CF91748052158
:10063000052200F027F915480621052200F022F9CD
:1006400012480721052200F01DF910480921072250
:1006500000F018F90D480A21072200F013F97B6811
:1006600040F2E3621A607B6802221A717B68002202
:100670009A717B6803225A717B680122DA710448FF
:10068000796800F071F80837BD4680BD000002406F
:100690000008024080B582B000AF786002200121DE
:1006A000FFF780FF7B68FF221A607B6801221A71C6
:1006B0007B6800229A717B6800225A717B68002255
:1006C000DA710348796800F04FF80837BD4680BDFD
:1006D0000004024080B582B000AF786004200121A0
:1006E000FFF760FF19480621082200F0CBF81748F1
:1006F0000721082200F0C6F87B68C0221A607B68D8
:1007000002221A717B6800229A717B6803225A7157
:100710007B680122DA710D48796800F025F87B6862
:1007200001221A607B6800221A717B6800229A718C
:100730007B6803225A717B680122DA710348796869
:1007400000F012F80837BD4680BD00BF0008024027
:1007500080B582B000AF786010200121FFF722FF42
:100760000837BD4680BD00BF80B487B000AF786059
:10077000396000237B6100233B610023FB60002381
:100780007B6176E07B69012202FA03F33B613B68FF
:100790001A683B691340FB60FA683B699A4265D16D
:1007A0007B681A687B695B00194603238B40DB4337
:1007B0001A407B681A607B681A683B681B79194687
:1007C0007B695B0001FA03F31A437B681A603B689C
:1007D0001B79012B03D03B681B79022B2ED17B6840
:1007E0009A687B695B00194603238B40DB431A4000
:1007F0007B689A607B689A683B685B7919467B697D
:100800005B0001FA03F31A437B689A607B685A68BD
:100810007B699BB2194601238B40DB431A407B68FE
:100820005A607B685B683A68927911467A6992B23D
:1008300001FA02F292B21A437B685A607B68DA6866
:100840007B699BB25B00032101FA03F3DB431A408F
:100850007B68DA607B68DA683B68DB7919467B691C
:100860005B0001FA03F31A437B68DA607B690133AA
:100870007B617B690F2B85D91C37BD465DF8047BF6
:10088000704700BF80B485B000AF78600B467B80B6
:1008900013467B700023FB600023BB607B787A8863
:1008A00002F0070292009340FB607B88DB089BB25A
:1008B00018467B88DB089BB21A467B68083253F8DF
:1008C00022207B8803F007039B0019460F238B40EF
:1008D000DB4302EA03017B6800F1080243F82210BF
:1008E0007B88DB089BB21A467B68083253F82220CB
:1008F000FB681343BB607B88DB089BB21A467B68AE
:100900000832B96843F822101437BD465DF8047BFD
:10091000704700BF80B500AF114A114B1B6843F010
:10092000010313600E4B00229A600D4A0C4B1B68AA
:1009300023F0847323F480331360094B094A5A600F
:10094000074A074B1B6823F480231360044B0022E3
:10095000DA6000F00BF8044B4FF000629A6080BD43
:10096000003802401030002400ED00E080B483B075
:1009700000AF00237B6000233B60354A344B1B688B
:1009800043F480331360324B1B6803F400333B6045
:100990007B6801337B603B68002B03D17B68B3F538
:1009A000A06FF0D12A4B1B6803F40033002B02D058
:1009B00001233B6001E000233B603B68012B42D1F7
:1009C000234A234B1B6C43F080531364214A214B71
:1009D0001B6843F4804313601D4A1D4B9B68936062
:1009E0001B4A1B4B9B6843F400439360184A184B07
:1009F0009B6843F4A0539360154B174A5A60144AFE
:100A0000134B1B6843F08073136000BF104B1B68CF
:100A100003F00073002BF9D0104B40F205621A600E
:100A20000B4A0B4B9B6823F003039360084A084B67
:100A30009B6843F00203936000BF054B9B6803F083
:100A40000C03082BF9D10C37BD465DF8047B7047C9
:100A5000003802400070004008544007003C02404B
:100A600080B582B000AF7860786800F009F87868E7
:100A700000F030F8786800F057F80837BD4680BDC0
:100A800080B582B000AF78607B684FF416521A6070
:100A90007B6800229A817B680C225A817B68002245
:100AA0001A817B680022DA807B6800229A800848DD
:100AB0007968FFF769FB06480121FFF721FC04482C
:100AC00040F225510122FFF73BFC0837BD4680BDAF
:100AD000004C004080B582B000AF78607B684FF476
:100AE00016521A607B6800229A817B680C225A8118
:100AF0007B6800221A817B680022DA807B680022F2
:100B00009A8008487968FFF73FFB06480121FFF704
:100B1000F7FB044840F225510122FFF711FC08378A
:100B2000BD4680BD0010014080B582B000AF786046
:100B30007B684FF416521A607B6800229A817B68AA
:100B40000C225A817B6800221A817B680022DA809D
:100B50007B6800229A8008487968FFF715FB0648F1
:100B60000121FFF7CDFB044840F225510122FFF798
:0C0B7000E7FB0837BD4680BD00140140C3
:100B7C000000000001020304010203040607080937
:0400000508000000EF
:00000001FF
