:020000040800F2
:1000000010170020D50B00082D0C00082D0C00083F
:100010002D0C00082D0C00082D0C0008000000001D
:100020000000000000000000000000002D0C00088F
:100030002D0C0008000000002D0C0008D113000852
:100040002D0C00082D0C00082D0C00082D0C0008AC
:100050002D0C00082D0C0008350C00082D0C000894
:100060002D0C00082D0C00082D0C00082D0C00088C
:100070002D0C00082D0C00082D0C00082D0C00087C
:100080002D0C00082D0C00082D0C00082D0C00086C
:100090002D0C00082D0C00082D0C00082D0C00085C
:1000A0002D0C00082D0C00082D0C00082D0C00084C
:1000B0002D0C00082D0C00082D0C00082D0C00083C
:1000C0002D0C00082D0C00082D0C00082D0C00082C
:1000D0002D0C0008910C00082D0C00082D0C0008B8
:1000E0002D0C00082D0C00082D0C00082D0C00080C
:1000F0002D0C00082D0C00082D0C00082D0C0008FC
:100100002D0C0008D11800082D0C00082D0C00083B
:100110004D0C00082D0C00082D0C00082D0C0008BB
:100120002D0C00082D0C00082D0C0008DD1800080F
:100130002D0C00082D0C00082D0C00082D0C0008BB
:100140002D0C00082D0C00082D0C00082D0C0008AB
:100150002D0C00082D0C00082D0C0008D50C0008F3
:100160002D0C00082D0C00082D0C00082D0C00088B
:100170002D0C00082D0C00082D0C00082D0C00087B
:100180002D0C00082D0C000880B586B000AF7860FB
:10019000396007F10C0207F11003124811461A46A4
:1001A00006F08CF80346FB75FB7D002B01D0FB7D30
:1001B00013E03B699B69023B3A69927802FB03F3C7
:1001C0005A087B681A603B699B781A46FB6803FBF8
:1001D00002F35A083B681A60002318461837BD46D8
:1001E00080BD00BFB074000880B483B000AF0123AD
:1001F000FB71FB7918460C37BD465DF8047B7047F0
:1002000080B485B000AF03463960FB80FB887F2B4C
:1002100002D8FB88FB8124E03B68002B0BD0FB88D5
:10022000FF2B05D8FB88803B114A32F8133000E0E1
:100230000023FB8115E00023FB810AE0FB890C4AC7
:1002400032F81330FA889A4200D105E0FB89013375
:10025000FB81FB897F2BF1D9FB8980339BB2DBB219
:10026000FB81FB8918461437BD465DF8047B704757
:10027000BC74000880B485B000AF0346FB80002347
:10028000FB6002E0FB680133FB600F4AFB6832F859
:100290001330002B06D00C4AFB6832F81330FA8872
:1002A0009A42EFD1084AFB6832F81330002B04D091
:1002B000064AFB6832F8133000E0FB881846143712
:1002C000BD465DF8047B7047BC7500089C7700084C
:1002D00090B484B000AF03460A46FB711346BB716D
:1002E0000023FB60BB7903F003039B000F2202FA9B
:1002F00003F3FB601649BB799B08DBB21846144A2E
:10030000BB799B08DBB2023352F82320FB68DB4346
:100310001A40831C41F823200D48BB799B08DBB2AF
:100320001C460B4ABB799B08DBB2023352F82320F0
:10033000F979BB7903F003039B0001FA03F31A4335
:10034000A31C40F823201037BD4690BC704700BF67
:100350000038014080B500AF4FF40060012100F08B
:100360005FFE4FF40060002100F05AFE80BD00BF28
:1003700080B485B000AF78600023FB60124B5B68EF
:10038000FB60FB6823F4FD4323F07F03FB607B6885
:100390001B7D1A467B689B681A437B685B681A431F
:1003A0007B68DB681A437B681B681A437B681B69A0
:1003B0001343FA681343FB60034AFB685360143726
:1003C000BD465DF8047B7047002C014080B483B0CB
:1003D00000AF0346FB71044AFB7913600C37BD463E
:1003E0005DF8047B704700BFA080254280B483B0D5
:1003F00000AF7860034A7B6813600C37BD465DF838
:10040000047B7047002C014080B400AF044B1B6894
:1004100003F003031846BD465DF8047B704700BF38
:10042000002C014080B485B000AF78600023FB60F1
:10043000114A7B681B6893600F4BDB68FB60FB68AD
:1004400023F4FF6323F00703FB607B685A687B6833
:100450009B681A437B68DB681A437B681B691343FC
:10046000FA681343FB60044AFB68D3601437BD4647
:100470005DF8047B704700BF002C014080B400AFE2
:10048000034B1B69DBB21846BD465DF8047B704721
:10049000002C014080B485B000AF78600023FB6081
:1004A0007A68054B1344FB60FB681B6818461437D9
:1004B000BD465DF8047B7047142C014080B485B0C4
:1004C00000AF78600023FB60124A7B681B685362B0
:1004D000104A7B685B6893620E4BDB6AFB60FB68CB
:1004E00023F0F703FB607B689A687B68DB681A433C
:1004F0007B681B691A437B685B691343FA68134383
:10050000FB60044AFB68D3621437BD465DF8047B88
:10051000704700BF002C014080B400AF034BD3F8FC
:1005200080301846BD465DF8047B7047002C0140C2
:1005300080B483B000AF0346FB71044AFB791360BB
:100540000C37BD465DF8047B704700BF8C852542A3
:1005500080B485B000AF78600023FB73084B5A6B02
:100560007B681340002B02D00123FB7301E00023C2
:10057000FB73FB7B18461437BD465DF8047B704760
:10058000002C014080B485B000AF78600023FB737D
:10059000084B5A6B7B681340002B02D00123FB737E
:1005A00001E00023FB73FB7B18461437BD465DF862
:1005B000047B7047002C014080B483B000AF7860AA
:1005C000034A7B6893630C37BD465DF8047B704734
:1005D000002C014080B58AB000AF786039600023FC
:1005E0007B6200233B620023FB610023BB617B68CD
:1005F0001B8A9BB27B627B6A23F440537B623B681D
:10060000DB881A467B6A13437B627B6A9AB27B68FB
:100610001A827B689B899BB27B627B6A23F4B0530E
:1006200023F00C037B623B689A883B681B89134369
:100630009AB23B685B8913439BB21A467B6A1343A9
:100640007B627B6A9AB27B689A817B689B8A9BB249
:100650007B627B6A23F440737B623B689B891A460A
:100660007B6A13437B627B6A9AB27B689A8207F14A
:100670000803184600F0D0FB7B68314A934203D050
:100680007B68304A934202D17B693B6201E03B695F
:100690003B627B689B899BB29BB21BB2002B0CDA3E
:1006A0003A6A13469B0013449A001A443B681B683D
:1006B0005B00B2FBF3F3FB610BE03A6A13469B006D
:1006C00013449A001A443B681B689B00B2FBF3F387
:1006D000FB61FB691C4AA2FB03235B091B017B62D4
:1006E0007B6A1B09642202FB03F3FA69D31ABB611C
:1006F0007B689B899BB29BB21BB2002B0CDABB6957
:10070000DB003233104AA2FB03235B0903F007032B
:100710007A6A13437B620BE0BB691B0132330A4ADE
:10072000A2FB03235B0903F00F037A6A13437B6286
:100730007B6A9AB27B681A812837BD4680BD00BFAC
:1007400000100140001401401F85EB5180B483B0BC
:1007500000AF78600B46FB70FB78002B08D07B68FD
:100760009B899BB243F400539AB27B689A8107E05D
:100770007B689B899BB223F400539AB27B689A8171
:100780000C37BD465DF8047B704700BF80B483B072
:1007900000AF78600B467B807B88C3F308039AB276
:1007A0007B689A800C37BD465DF8047B704700BFBC
:1007B00080B483B000AF78607B689B889BB2C3F342
:1007C00008039BB218460C37BD465DF8047B7047A2
:1007D00080B487B000AF78600B467B8013467B7097
:1007E00000233B610023FB600023BB6000237B618F
:1007F0007B687B617B88DBB25B09DBB23B617B881A
:1008000003F01F03FB60FB68012202FA03F3BB60E5
:100810003B69012B03D17B690C337B6109E03B69A8
:10082000022B03D17B6910337B6102E07B691433B7
:100830007B617B78002B06D07B697A691168BA6886
:100840000A431A6006E07B697A691168BA68D24384
:100850000A401A601C37BD465DF8047B704700BF34
:1008600080B485B000AF78600B467B800023FB73BB
:100870007B681B889AB27B8813409BB2002B02D006
:100880000123FB7301E00023FB73FB7B1846143745
:10089000BD465DF8047B704780B485B000AF7860DA
:1008A0000B467B800023FB810023BB817B881B0AD6
:1008B000FB81FB89012202FA03F3BB81BB89DB4385
:1008C0009AB27B681A801437BD465DF8047B704786
:1008D00080B582B000AF0346FB71FA790C4913462C
:1008E0009B0013449B000B441B68002B0AD0FA7931
:1008F000074913469B0013449B000B441B68984711
:10090000034600E0042318460837BD4680BD00BFFB
:100910000000002080B582B000AF0346FB71FA7979
:100920000C4913469B0013449B000B445B68002B4F
:100930000AD0FA79074913469B0013449B000B44E5
:100940005B689847034600E0042318460837BD4615
:1009500080BD00BF0000002080B584B000AFB9604A
:100960007A603B600346FB733B68002B01D1042394
:100970001AE0FA7B0E4913469B0013449B000B447C
:1009800010331B68002B0ED0FA7B094913469B00DD
:1009900013449B000B4410331B68B86879683A68AD
:1009A0009847034600E0042318461037BD4680BD33
:1009B0000000002080B584B000AFB9607A603B6071
:1009C0000346FB733B68002B01D104231AE0FA7B3A
:1009D0000E4913469B0013449B000B4408335B688D
:1009E000002B0ED0FA7B094913469B0013449B0051
:1009F0000B4408335B68B86879683A6898470346DF
:100A000000E0042318461037BD4680BD00000020DA
:100A100080B582B000AF03463A60FB710B46BB71F4
:100A2000FA790F4913469B0013449B000B4408338B
:100A30001B68002B0ED0FA79094913469B0013441A
:100A40009B000B4408331B68BA79104639689847F5
:100A5000034600E0042318460837BD4680BD00BFAA
:100A60000000002080B400AF024B1846BD465DF880
:100A7000047B70470000FC4280B400AF012318469D
:100A8000BD465DF8047B704780B400AF0123184673
:100A9000BD465DF8047B704780B400AF0123184663
:100AA000BD465DF8047B704780B400AF0123184653
:100AB000BD465DF8047B704780B400AF0123184643
:100AC000BD465DF8047B704780B400AF0123184633
:100AD000BD465DF8047B704780B483B000AF034629
:100AE0003960FB71012318460C37BD465DF8047B65
:100AF000704700BF80B483B000AF03463960FB711C
:100B0000012318460C37BD465DF8047B704700BFD3
:100B100080B483B000AF03463960FB7101231846EF
:100B20000C37BD465DF8047B704700BF80B485B0CC
:100B300000AFF860B9607A60012318461437BD46EB
:100B40005DF8047B704700BF80B485B000AFF860EB
:100B5000B9607A60012318461437BD465DF8047BFE
:100B6000704700BF80B485B000AFF860B9607A60AC
:100B7000012318461437BD465DF8047B704700BF5B
:100B800080B485B000AFF860B9607A600123184680
:100B90001437BD465DF8047B704700BF80B485B054
:100BA00000AFF860B9607A60012318461437BD467B
:100BB0005DF8047B704700BF80B485B000AFF8607B
:100BC000B9607A60012318461437BD465DF8047B8E
:100BD000704700BF80B582B000AF0F4B7B600F4BFA
:100BE0003B6007E03B681A1D3A607A68111D796026
:100BF00012681A603B680A4A9342F3D309480A49CB
:100C00004FF000028842B8BF40F8042BFADB00F036
:100C1000DBF80837BD4680BD5C7B00080000002083
:100C20001C090020200900200C0F002080B400AF18
:100C3000FEE700BF80B500AF012005F0EDFC0346E4
:100C4000002B02D0012005F00BFD80BD80B582B0E5
:100C500000AF0D482021FFF703FE0346002B0BD009
:100C60000948FFF7A5FD0346FB71FB79662B03D10D
:100C70000548064905F082FF034840F22551FFF779
:100C80000BFE0837BD4680BD004C00407C79000853
:100C900080B582B000AF0D482021FFF7E1FD03468B
:100CA000002B0BD00948FFF783FD0346FB71FB794E
:100CB000672B03D10548064905F060FF034840F261
:100CC0002551FFF7E9FD0837BD4680BD0010014002
:100CD0008C79000880B582B000AF0D482021FFF765
:100CE000BFFD0346002B0BD00948FFF761FD03460B
:100CF000FB71FB79682B03D10548064905F03EFFDF
:100D0000034840F22551FFF7C7FD0837BD4680BDB7
:100D1000001401409C79000880B500AF0248012111
:100D200002F04CFC80BD00BF0004024080B584B0DE
:100D300000AFF860B9607A603B6000F0C1FB1E480C
:100D4000022102F03BFCF8681C49012204F0E8FE95
:100D50000346002B2DD11848042102F02FFCB8685F
:100D60001749132204F020FF0346002B1CD1124820
:100D7000082102F023FC1348B96805F09FFB0346E5
:100D8000002B0EDD78683968FFF7FEF90346002B6B
:100D900003D10948202102F011FC0748102102F07C
:100DA0000DFCB86805F06EFA00200449012204F039
:100DB000B7FE1037BD4680BD00040240AC79000884
:100DC000B0790008BC79000880B58CB000AF02F0A3
:100DD0004BFC07F12803184600F0D6F907F1180379
:100DE000184605F02FFE07F11003184602F038FBF5
:100DF00007F10C03184600F049F9FFF78DFF07F1E2
:100E000008023B1D02480349FFF790FFFEE700BFC1
:100E1000080A00203C0C002080B489B000AF786044
:100E20000023BB6100237B610023FB6102233B6144
:100E30000023FB600223BB60484B9B6803F00C035C
:100E4000BB61BB69042B07D0082B09D0002B3FD115
:100E50007B68434A1A603FE07B68424A1A603BE085
:100E60003E4B5B6803F480039B0DFB603B4B5B6870
:100E700003F03F03BB60FB68002B0DD0394ABB6811
:100E8000B2FBF3F2354B596847F6C0730B409B0930
:100E900003FB02F3FB610CE0314ABB68B2FBF3F2E7
:100EA0002E4B596847F6C0730B409B0903FB02F3B6
:100EB000FB612A4B5B6803F440331B0C01335B007E
:100EC0003B61FA693B69B2FBF3F27B681A6003E0AD
:100ED0007B68234A1A6000BF204B9B6803F0F00335
:100EE000BB61BB691B09BB611F4ABB6913441B780B
:100EF000DBB27B617B681A687B69DA407B685A6089
:100F0000164B9B6803F4E053BB61BB699B0ABB6152
:100F1000154ABB6913441B78DBB27B617B685A6856
:100F20007B69DA407B689A600C4B9B6803F46043F2
:100F3000BB61BB695B0BBB610B4ABB6913441B788C
:100F4000DBB27B617B685A687B69DA407B68DA6078
:100F50002437BD465DF8047B704700BF003802406F
:100F60000024F40000127A00B400002080B483B0A2
:100F700000AF78600B46FB70FB78002B06D0094968
:100F8000084B1A6B7B6813430B6306E00549054B5E
:100F90001A6B7B68DB4313400B630C37BD465DF86F
:100FA000047B70470038024080B483B000AF7860A3
:100FB0000B46FB70FB78002B06D00949084B1A6CD6
:100FC0007B6813430B6406E00549054B1A6C7B688C
:100FD000DB4313400B640C37BD465DF8047B704760
:100FE0000038024080B483B000AF78600B46FB70DD
:100FF000FB78002B06D00949084B5A6C7B681343D9
:101000004B6406E00549054B5A6C7B68DB43134093
:101010004B640C37BD465DF8047B704700380240D6
:1010200080B483B000AF78600B46FB70FB78002B78
:1010300006D00949084B5A6A7B6813434B6206E0A5
:101040000549054B5A6A7B68DB4313404B620C37FA
:10105000BD465DF8047B70470038024080B483B021
:1010600000AF0346FB71084997F907305B09FA792D
:1010700002F01F02012000FA02F241F823200C378F
:10108000BD465DF8047B704700E100E080B582B0AA
:1010900000AF7860786800F00FF8786800F022F808
:1010A000786800F035F8786800F048F800F05CF8EF
:1010B0000837BD4680BD00BF80B582B000AF786004
:1010C0007B6806221A707B6800225A707B680022B7
:1010D0009A707B680122DA70786805F0E1FA0837C7
:1010E000BD4680BD80B582B000AF78607B68342299
:1010F0001A707B680122DA707B6800225A707B6864
:1011000000229A70786805F0CBFA0837BD4680BD9A
:1011100080B582B000AF78607B6825221A707B684A
:101120000122DA707B6800225A707B6800229A7074
:10113000786805F0B5FA0837BD4680BD80B582B045
:1011400000AF78607B6847221A707B680122DA70F2
:101150007B6800225A707B6800229A70786805F0DC
:101160009FFA0837BD4680BD80B500AF0620FFF767
:1011700075FF3420FFF772FF2520FFF76FFF472030
:10118000FFF76CFF80BD00BF80B582B000AF786014
:10119000786800F00DF8786800F04EF8786800F094
:1011A0006BF8786800F0A6F80837BD4680BD00BF30
:1011B00080B582B000AF786001200121FFF7D6FE34
:1011C0001C480021082202F007FA1A4801210822CF
:1011D00002F002FA17480521052202F0FDF9154830
:1011E0000621052202F0F8F912480721052202F033
:1011F000F3F910480921072202F0EEF90D480A21FF
:10120000072202F0E9F97B6840F2E3621A607B682A
:1012100002221A717B6800229A717B6803225A713C
:101220007B680122DA710348796802F039F90837DE
:10123000BD4680BD0000024080B582B000AF78603E
:1012400002200121FFF792FE7B68FF221A607B6873
:1012500001221A717B6800229A717B6800225A7100
:101260007B680122DA710348796802F019F90837BE
:10127000BD4680BD0004024080B582B000AF7860FA
:1012800004200121FFF772FE19480621082202F00E
:10129000A3F917480721082202F09EF97B68C022B3
:1012A0001A607B6802221A717B6800229A717B683F
:1012B00003225A717B680122DA710D48796802F0C5
:1012C000EFF87B6801221A607B6800221A717B6844
:1012D00000229A717B6803225A717B680122DA71BD
:1012E0000348796802F0DCF80837BD4680BD00BFCE
:1012F0000008024080B582B000AF78601020012164
:10130000FFF734FE7B684FF478421A607B68002256
:101310001A717B6800229A717B6800225A717B687F
:101320000122DA710348796802F0BAF80837BD463D
:1013300080BD00BF0010024080B483B000AF034600
:101340003960FB7197F90730002B0BDA0D49FB79F7
:1013500003F00F03043B3A68D2B21201D2B20B443D
:101360001A7609E0084997F907303A68D2B21201B3
:10137000D2B20B4483F800230C37BD465DF8047BE2
:10138000704700BF00ED00E000E100E080B582B0F2
:1013900000AF78607B68B3F1807F01D3012311E057
:1013A0000A4A7B6823F07F43013B53604FF0FF30D4
:1013B0000F21FFF7C1FF054B00229A60034B072264
:1013C0001A60002318460837BD4680BD10E000E0D3
:1013D00080B582B000AF374B1B680133354A1360CC
:1013E000354B1B68002B04D0334B1B68013B324A42
:1013F0001360AFF300800023FB7152E0FB792F4AAA
:101400009B0013445B68002B48D0FB792B4A9B0060
:1014100013445B681B7B002B40D0FB79274A9B0061
:1014200013445B689B68002B38D0FB79234A9B00F0
:1014300013445B689A68013A9A60FB791F4A9B00E3
:1014400013445B689B68002B28D1FB791B4A9B00E7
:1014500013445B681A69FB7918499B000B445B686D
:101460005B6918469047FB79144A9B0013445A68FD
:10147000FB7912499B000B445B681B689360FB7906
:101480000E4A9B0013445B685B68002B06D1FB7916
:101490000A4A9B0013445B6800221A73FB790133EC
:1014A000FB71064B1B78FA799A42A7D30837BD46E1
:1014B00080BD00BF24090020280900203009002039
:1014C00080B500AF0C4B1B680C4AA2FB03239B09A1
:1014D0001846FFF75BFF0346002B00D0FEE7064BE4
:1014E0001B689B09064AA2FB03239B0A054A13605B
:1014F000054B01221A7080BDC8000020D34D621038
:1015000017916502600E00202C09002080B582B082
:1015100000AF7860786805F053FB0346184608373B
:10152000BD4680BD80B582B000AF7860786805F0B8
:101530004FFB0837BD4680BD80B400AF012318467D
:10154000BD465DF8047B704780B582B000AF4FF4B4
:10155000C06005F093F831233B7101237B710023B8
:10156000BB710123FB713B1D184605F099F83B2325
:101570003B7101237B713B1D184605F091F801F08A
:1015800079FE01F0A3FE00F0AFF90346002B08D16D
:10159000164B1B78DBB223F00103DAB2134B1A703F
:1015A00007E0124B1B78DBB243F00103DAB20F4BBA
:1015B0001A70FFF7C1FF0346002B08D10B4B1B78B5
:1015C000DBB243F00403DAB2084B1A7007E0074BB2
:1015D0001B78DBB223F00403DAB2044B1A70034B1E
:1015E0001B78DBB218460837BD4680BDC40000201A
:1015F00080B500AF00F00EFA0346012B01D00123A5
:1016000018E0FFF799FF0346002B08D10A4B1B781F
:10161000DBB243F00403DAB2074B1A7007E0064B63
:101620001B78DBB223F00403DAB2034B1A70024BCF
:101630001B78DBB2184680BDC400002080B5ADF534
:10164000087D02AF07F10C03186007F10803196069
:101650003B1D1A60002387F816323F4B1B78DBB224
:1016600003F00103002B01D0032370E007F10C030A
:101670001B6803F00303002B35D0002387F81732D3
:1016800027E007F108031B6807F10802591C1160E5
:1016900007F11402104619460122FFF7CFFF034657
:1016A00087F8173297F81732002B00D018E007F1AF
:1016B0000C0307F11402186811464FF4007205F08C
:1016C00021FD07F10C0307F10C02126802F500720C
:1016D0001A603B1D1B683A1D591E1160002BD0D1AA
:1016E00097F8173233E007F108031B685B021A46CC
:1016F0004FF0000307F10C014FF400700090381D0B
:1017000000680190086800F0DFFE034687F8163293
:1017100097F81632002B19D100F072FF034687F8B4
:10172000163200F03FF9034687F8153297F8153264
:10173000012BF6D097F81532022B03D097F816320A
:10174000002B01D0012302E0002300E00123184612
:1017500007F50677BD4680BDC400002080B5ADF515
:10176000087D02AF07F10C03186007F10803196048
:101770003B1D1A60002387F81632FFF7DDFE034693
:10178000002B01D1022377E000F044F90346012B3E
:1017900001D0032370E007F10C031B6803F003037F
:1017A000002B35D0002387F8173227E007F1140209
:1017B00007F10C03104619684FF4007205F0A2FC03
:1017C00007F108031B6807F10802591C116007F1B3
:1017D0001402104619460122FFF7C0FF034687F89E
:1017E000173297F81732002B00D00EE007F10C03E8
:1017F00007F10C02126802F500721A603B1D1B68AB
:101800003A1D591E1160002BD0D197F8173233E0E2
:1018100007F108031B685B021A464FF0000307F14B
:101820000C014FF400700090381D006801900868AA
:1018300000F044FF034687F8163297F81632002B63
:1018400019D101F015F8034687F8163200F0AAF80E
:10185000034687F8153297F81532012BF6D097F822
:101860001532022B03D097F81632002B01D001233A
:1018700002E0002300E00123184607F50677BD4685
:1018800080BD00BF80B483B000AF03463960FB71F8
:10189000FB79042B15D801A252F823F0C3180008D5
:1018A000C3180008B1180008BB180008C3180008C6
:1018B0003B684FF400721A8003E03B6820221A60F4
:1018C00000BF002318460C37BD465DF8047B704707
:1018D00080B500AF01F08AF880BD00BF80B500AFD1
:1018E00001F0EEF880BD00BF80B582B000AF0023EC
:1018F000FB71FEF72FFD00F09FF80346FB71FB79AB
:10190000DBB2002B02D0FB79DBB242E000F0AAF997
:101910000346FB71FB79DBB2002B02D0FB79DBB213
:1019200037E01E4B01221A751C4B00221A601B4B1C
:1019300000225A60194B00229A60184B0022DA608C
:10194000164B00221A611548FEF712FD144800F0EC
:101950004DFA0346FB71FB79DBB2002B0CD1104B27
:10196000B3F854301B041A464FF0000310461946D2
:1019700000F084FD0346FB71FB79DBB2002B05D13F
:101980004FF4006000F00EFD0346FB71FB79FB791C
:10199000DBB218460837BD4680BD00BFD80E002018
:1019A000800E002080B582B000AF0423FB7100F0F0
:1019B00011F80346FB71FB79042B01D1002305E0EC
:1019C000FB79FF2B01D1022300E0012318460837E1
:1019D000BD4680BD80B582B000AF00237B6000F0C3
:1019E00019F80346012B0FD13B1D184600F0C2FF2A
:1019F0000346002B01D0FF2307E07B685B0ADBB2C4
:101A000003F00F03DBB200E0FF2318460837BD46A2
:101A100080BD00BF80B582B000AF0123FB71FEF72F
:101A2000E3FB0346002B01D10023FB71FB79DBB202
:101A300018460837BD4680BD80B586B000AF00238C
:101A4000FB7100237B6100233B610023FB600023CB
:101A5000BB60814B76221A757F4B00221A607E4B49
:101A600000225A607C4B00229A607B4B0022DA6095
:101A7000794B00221A617848FEF77AFC0320FEF7C2
:101A8000B5FC0120FEF7A2FC744B00221A60734BD8
:101A900000225A60714B00229A60704B0022DA607B
:101AA0006E4B4FF480621A616C48FEF7BBFC01F08C
:101AB0001FF80346FB71FB79DBB2002B02D0FB79E8
:101AC000DBB2C5E0654B4FF4D5721A60634B082258
:101AD0005A60624B40229A60604B0022DA605F4B92
:101AE0004FF480621A615D48FEF79CFC01F028F813
:101AF0000346FB71FB79DBB2002B06D1584B012268
:101B00001A604FF08043BB6017E0544B00221A600C
:101B1000524B37225A60514B40229A604F4B002261
:101B2000DA604E4B4FF480621A614C48FEF77AFC43
:101B3000372001F043F80346FB71484B00221A603E
:101B4000464B37225A60454B40229A60434B002255
:101B5000DA60424B4FF480621A614048FEF762FC43
:101B6000372001F02BF80346FB71FB79DBB2002B29
:101B70006CD14FE0394B00221A60384B37225A6043
:101B8000364B40229A60354B0022DA60334B4FF4DB
:101B900080621A613148FEF745FC372001F00EF8EB
:101BA0000346FB71FB79DBB2002B02D0FB79DBB281
:101BB0004EE0BB6843F0004343F48013274A1360B0
:101BC000264B29225A60254B40229A60234B002243
:101BD000DA60224B4FF480621A612048FEF722FC43
:101BE00001F0BEF80346FB71FB79DBB2002B02D09B
:101BF000FB79DBB22CE00020FEF74CFC78617B69BE
:101C0000DB0F012B0CBF01230023DBB2FB603B6920
:101C100001333B61FB68002B04D13B694FF6FE7238
:101C20009342A7D93B694FF6FE72934204D91B2316
:101C3000FB71FB79DBB20BE07B6903F080437B61D6
:101C40007B69002B02D0064B02221A60FB79DBB2C3
:101C500018461837BD4680BDD80E0020680E0020FB
:101C60004809002080B582B000AF0023FB7101233A
:101C7000BB80FEF7C9FB0346002B03D12523FB7174
:101C8000FB79A5E0544B1B68042B33D0534B002247
:101C90001A60524B02225A60504BC0229A604F4B3E
:101CA0000022DA604D4B4FF480621A614B48FEF718
:101CB000B9FB01F07FF80346FB71FB79002B01D0E3
:101CC000FB7985E00020FEF7E5FB0246444B1A60F5
:101CD0000420FEF7DFFB0246414B5A600820FEF766
:101CE000D9FB02463E4B9A600C20FEF7D3FB02461E
:101CF0003B4BDA60384B1B68002B0BD0364B1B6814
:101D0000012B07D0344B1B68062B03D0324B1B68CA
:101D1000022B1ED1314B00221A60304B03225A6035
:101D20002E4B40229A602D4B0022DA602B4B4FF451
:101D300080621A612948FEF775FB3B1D0320194696
:101D400001F06EF80346FB71FB79002B01D0FB79A3
:101D50003EE0214B1B68042B39D0BB881A46214B2F
:101D60001A60BB881B041A461C4B1A601B4B0922C5
:101D70005A601A4BC0229A60184B0022DA60174B47
:101D80004FF480621A611548FEF74CFB01F012F81F
:101D90000346FB71FB79002B01D0FB7918E0002092
:101DA000FEF778FB0246104B1A600420FEF772FB28
:101DB00002460D4B5A600820FEF76CFB02460A4BA8
:101DC0009A600C20FEF766FB0246074BDA600023A0
:101DD00018460837BD4680BD48090020680E00201F
:101DE0005C0900206C0900204C090020B0B485B0CB
:101DF00000AF78600021B9730021F9738D4909683B
:101E0000C8B2796881F856008B49096888B2796848
:101E1000A1F8540089490968090EF973F97B890909
:101E2000C8B279680870F97B01F03C018910C8B22A
:101E300079684870F97B01F00301C8B2796888704D
:101E40007E49096801F47F01090CF9737968F87B10
:101E5000C8707A49096801F47F41090AF973796801
:101E6000F87B087175490968F9737968F87B4871DE
:101E700072494968090EF973F97B89B2090188B280
:101E80007968C8806D49496801F47F01090CF973CC
:101E90007968C98888B2F97B0909C9B289B2014356
:101EA00088B27968C880F97B01F00F01C8B27968FF
:101EB00008726249496801F47F41090AF973F97BA4
:101EC000C909C8B279684872F97B01F040018911EB
:101ED000C8B279688872F97B01F020014911C8B253
:101EE0007968C872F97B01F010010911C8B27968EC
:101EF00008737968002048734E490968002904D0A6
:101F00004C490968012940F09B80FB7B03F00303E7
:101F10009B021A467B681A61484B5B68FB737B68BF
:101F20001B69FA7B92001A437B681A61434B9B68DA
:101F30001B0EFB737B681B69FA7B9209D2B21A43B2
:101F40007B681A61FB7B03F03803DB10DAB27B6835
:101F50001A75FB7B03F00703DAB27B685A75374BBF
:101F60009B6803F47F031B0CFB73FB7B5B09DAB2FA
:101F70007B689A75FB7B03F01C039B10DAB27B68CD
:101F8000DA75FB7B03F00303DBB25B00DAB27B683C
:101F90001A762A4B9B6803F47F431B0AFB737B680A
:101FA0001B7EDAB2FB7BDB09DBB21343DAB27B6860
:101FB0001A767B681B6901331A464FF00003796873
:101FC000C1E912237B681B7EDBB20233012202FAD5
:101FD00003F37A68D2E912011A464FEAE27302FB70
:101FE00001F500FB03F42C44A0FB0223E1180B468F
:101FF0007968C1E912237B681B7ADBB21A46012398
:1020000093401A467B681A657B68D3E912017B68A6
:102010001B6D1A464FF0000302FB01F500FB03F4B1
:102020002C44A0FB0223E1180B467968C1E9122376
:1020300044E000BF480900206C0900204C09002042
:10204000AB490968022939D1AA494968F973F97B72
:1020500001F03F010904084679680861A5498968CB
:10206000090EF97379680969F87B000208437968F9
:102070000861A049896801F47F01090CF973796846
:102080000869F97B0843796808619A49896801F40D
:102090007F41090AF9737968096908464FF0000120
:1020A000013041F10001CB0443EA5033C2047968A6
:1020B000C1E912237B684FF400721A65FB7B03F0C1
:1020C00040039B11DAB27B685A76FB7B03F03F0337
:1020D000DBB25B00DAB27B689A76864B9B68FB7357
:1020E0007B689B7EDAB2FB7BDB09DBB21343DAB29F
:1020F0007B689A76FB7B03F07F03DAB27B68DA7643
:102100007C4BDB681B0EFB73FB7BDB09DAB27B6865
:102110001A77FB7B03F060035B11DAB27B685A77B6
:10212000FB7B03F01C039B10DAB27B689A77FB7B86
:1021300003F00303DBB29B00DAB27B68DA776D4B06
:10214000DB6803F47F031B0CFB737B68DB7FDAB275
:10215000FB7B9B09DBB21343DAB27B68DA77FB7B4C
:1021600003F020035B11DAB27B6883F820207B68E0
:10217000002283F82120FB7B03F00103DAB27B68A5
:1021800083F822205B4BDB6803F47F431B0AFB735D
:10219000FB7BDB09DAB27B6883F82320FB7B03F04F
:1021A00040039B11DAB27B6883F82420FB7B03F0A9
:1021B00020035B11DAB27B6883F82520FB7B03F0F8
:1021C00010031B11DAB27B6883F82620FB7B03F037
:1021D0000C039B10DAB27B6883F82720FB7B03F0AB
:1021E0000303DAB27B6883F82820424BDB68FB7379
:1021F000FB7B5B08DAB27B6883F829207B680122CD
:1022000083F82A203C4B1B681B0EFB737B68FA7B10
:1022100083F82C20384B1B6803F47F031B0CFB73E3
:10222000FB7B9BB21B029AB27B68DA85324B1B6840
:1022300003F47F431B0AFB737B68DB8D9AB2FB7B45
:102240009BB213439AB27B68DA852B4B1B68FB73F6
:10225000FB7B1B061A467B681A63274B5B681B0EC9
:10226000FB737B681B6BFA7B12041A437B681A634F
:10227000214B5B6803F47F031B0CFB737B681B6BB8
:10228000FA7B12021A437B681A631B4B5B6803F4E8
:102290007F431B0AFB737B681A6BFB7B1A437B68CB
:1022A0001A63154B5B68FB737B68FA7B83F83420F9
:1022B000114B9B681B0EFB737B68FA7B83F8352000
:1022C0000D4B9B6803F47F031B0CFB73FB7B1B060E
:1022D0001A467B689A63084B9B6803F47F431B0A8A
:1022E000FB737B689B6BFA7B12041A437B6805E0E7
:1022F000480900204C0900205C0900209A63284B03
:102300009B68FB737B689B6BFA7B12021A437B68AA
:102310009A63234BDB681B0EFB737B689A6BFB7B1A
:102320001A437B689A631E4BDB6803F47F031B0C24
:10233000FB737B6893F83C30DAB2FB7B1B09DBB2A2
:102340001343DAB27B6883F83C20FB7B9BB203F03B
:102350000F039BB21B029AB27B68DA87104BDB68D3
:1023600003F47F431B0AFB737B68DB8F9AB2FB7B12
:102370009BB213439AB27B68DA87094BDB68FB7325
:10238000FB7B5B08DAB27B6883F840207B68012224
:1023900083F84120BB7B18461437BD46B0BC70475C
:1023A0005C09002080B584B000AF78600023FB7327
:1023B000304B1B68032B03D12723FB73FB7B54E0BB
:1023C0002C4B1B68002B07D02A4B1B68012B03D01A
:1023D000284B1B68022B47D17B68B3F5805F03D184
:1023E0002723FB73FB7B40E07B68B3F5006F1ED1B6
:1023F000012000F07DFD0346FB73FB7B002B33D1F6
:102400001D4B01221A751C4B00221A601A4B002228
:102410005A60194B00229A60174B4FF40062DA6041
:10242000154B00221A611448FDF7A2FF1CE00020A2
:1024300000F05EFD0346FB73FB7B002B14D10E4BBB
:1024400001221A750C4B00221A600B4B00225A60B5
:10245000094B00229A60084B0022DA60064B0022EA
:102460001A610548FDF784FFFB7B18461037BD460F
:1024700080BD00BF48090020D80E002080B584B080
:1024800000AFC7E900010023FB733B680D4A1360EE
:102490000C4B07225A600B4B40229A60094B0022DA
:1024A000DA60084B4FF480621A610648FDF7BAFF04
:1024B000072000F083FB0346FB73FB7B18461037B5
:1024C000BD4680BD680E0020B0B586B000AFF86094
:1024D000C7E900230023FB75424B00221A70424BD0
:1024E00000221A60414B01221A60414B0022DA623D
:1024F0003F4A3F4BDB6B43F44A7343F00203D36321
:102500003B8DFA6A02FB03F3F868194600F058FFA6
:102510000120FEF70DF8374B1B68022B0AD14FF450
:1025200000733B85D7E90023540A44EAC3545D0A8B
:10253000C7E900453B8D304A13602F4B10225A608B
:102540002D4B40229A602C4B0022DA602A4B4FF42C
:1025500080621A612848FDF765FF102000F02EFB0D
:102560000346FB75FB7D002B01D0FB7D36E0234B42
:102570004FF0FF321A603B8DFA6A02FB03F31F4AE9
:1025800053601E4B90229A601C4B0222DA601B4B58
:1025900000221A61194B01225A611848FDF78EFF7B
:1025A0003B68154A1360144B12225A60124B4022AA
:1025B0009A60114B0022DA600F4B4FF480621A616F
:1025C0000D48FDF72FFF122000F0F8FA0346FB75C7
:1025D000FB7D002B01D0FB7D00E0FB7D184618370A
:1025E000BD46B0BD84090020880900208009002074
:1025F000002C014048090020680E0020F00E002049
:1026000080B582B000AF0023FB714FF0FF333B6019
:1026100002E03B68013B3B60234B1B68002B0BD166
:10262000224B1B68002B07D1214B1B78DBB2002B00
:1026300002D13B68002BECD11B4B00221A604FF0FB
:10264000FF333B6002E03B68013B3B60194B5B6B37
:1026500003F40053002B02D03B68002BF3D1164B40
:102660001B68012B06D100F061F90346FB71124B88
:1026700000221A603B68002B04D1FB79002B01D1AA
:102680000423FB710B4B40F2FF529A63084B1B78FB
:10269000DBB2002B03D0064B1B78DBB200E0FB79EA
:1026A00018460837BD4680BD8C09002088090020E7
:1026B00084090020002C014080090020B0B586B0BC
:1026C00000AFF860C7E900230023FB75604B0022D0
:1026D0001A70604B00221A605F4B01221A605F4B38
:1026E0000022DA625D4A5D4BDB6B43F4467343F0D4
:1026F0000203D3633B8DFA6A02FB03F3F8681946C1
:1027000000F010FE0120FDF713FF554B1B68022B54
:102710000AD14FF400733B85D7E90023540A44EAF9
:10272000C3545D0AC7E900453B8D4E4A13604D4BCB
:1027300010225A604B4B40229A604A4B0022DA60CA
:10274000484B4FF480621A614648FDF76BFE10203B
:1027500000F034FA0346FB75FB7D002B01D0FB7DB6
:1027600072E0414B1B681B043E4A13603D4B37220D
:102770005A603C4B40229A603A4B0022DA60394B57
:102780004FF480621A613748FDF74CFE372000F0A5
:1027900015FA0346FB75FB7D002B01D0FB7D53E052
:1027A000304AFB6A13602F4B17225A602D4B402290
:1027B0009A602C4B0022DA602A4B4FF480621A6137
:1027C0002848FDF72FFE172000F0F8F90346FB75A7
:1027D000FB7D002B01D0FB7D36E03B68214A136076
:1027E000204B19225A601F4B40229A601D4B002239
:1027F000DA601C4B4FF480621A611A48FDF712FE32
:10280000192000F0DBF90346FB75FB7D002B01D09E
:10281000FB7D19E0154B4FF0FF321A603B8DFA6AD1
:1028200002FB03F3114A5360104B90229A600F4B46
:102830000022DA600D4B00221A610C4B01225A6112
:102840000A48FDF73BFEFB7D18461837BD46B0BD74
:10285000840900208809002080090020002C014004
:1028600048090020680E00206C090020F00E0020AE
:1028700080B582B000AF0023FB714FF0FF333B60A7
:1028800002E03B68013B3B60234B1B68002B0BD1F4
:10289000224B1B68002B07D1214B1B78DBB2002B8E
:1028A00002D13B68002BECD11B4B00221A604FF089
:1028B000FF333B6002E03B68013B3B60194B5B6BC5
:1028C00003F48053002B02D03B68002BF3D1164B4E
:1028D0001B68012B06D100F029F80346FB71124B4F
:1028E00000221A603B68002B04D1FB79002B01D138
:1028F0000423FB710B4B40F2FF529A63084B1B7889
:10290000DBB2002B03D0064B1B78DBB200E0FB7977
:1029100018460837BD4680BD8C0900208809002074
:1029200084090020002C01408009002080B582B07D
:1029300000AF0023FB710E4B00221A600C4B0C22DF
:102940005A600B4B40229A60094B0022DA60084B18
:102950004FF480621A610648FDF764FD0C2000F018
:102960002DF90346FB71FB7918460837BD4680BD3B
:10297000680E002080B584B000AF78600023FB7340
:102980007B68002B03D12623FB73FB7B25E0154BD3
:102990001B681B04144A1360134B0D225A60124B20
:1029A00040229A60104B0022DA600F4B4FF4806295
:1029B0001A610D48FDF736FD0D2000F0FFF80346C3
:1029C000FB73FB7B002B01D0FB7B06E00020FDF7B7
:1029D00061FD02467B681A60FB7B18461037BD46D6
:1029E00080BD00BF6C090020680E002080B500AFDC
:1029F0004FF48070FDF7C6FD0346002B0AD02D4B27
:102A000000221A704FF48070FDF7D6FD2A4B012288
:102A10001A6041E00220FDF7B5FD0346002B06D009
:102A20000220FDF7C9FD234B02221A7034E0082072
:102A3000FDF7A8FD0346002B06D00820FDF7BCFDDE
:102A40001C4B04221A7027E02020FDF79BFD034653
:102A5000002B06D02020FDF7AFFD164B06221A7082
:102A60001AE01020FDF78EFD0346002B06D0102043
:102A7000FDF7A2FD0F4B05221A700DE04FF4007018
:102A8000FDF780FD0346002B06D04FF40070FDF7E4
:102A900093FD084B07221A70084A084BDB6B23F49E
:102AA000434323F03A03D363024B1B78DBB218464F
:102AB00080BD00BF8409002088090020002C01404F
:102AC00080B500AF074B1B6803F0C053002B07D045
:102AD000054B01221A6005484FF0C25100F0E8FF93
:102AE00080BD00BF006402408C0900205864024091
:102AF00080B582B000AF0023FB704FF480337B6061
:102B000002E07B68013B7B607B68002B05D0802066
:102B1000FDF71EFD0346002BF3D07B68002B03D18D
:102B20000323FB70FB7804E0044B40F2FF529A63EE
:102B3000FB7818460837BD4680BD00BF002C014019
:102B400080B485B000AF0023FB714FF48033BB60CD
:102B5000194B5B6BFB6005E0BB68013BBB60164B30
:102B60005B6BFB60FB6803F04503002B02D1BB6885
:102B7000002BF1D1BB68002B04D0FB6803F00403E9
:102B8000002B06D00323FB710B4B04229A63FB79C5
:102B90000CE0FB6803F04003002B06D00023FB7120
:102BA000054B40229A63FB7900E0FB791846143705
:102BB000BD465DF8047B7047002C014080B586B0AF
:102BC00000AF0346FB710023FB74634B5B6B7B61BF
:102BD00002E0614B5B6B7B617B6903F04503002B7B
:102BE000F7D07B6903F00403002B06D00323FB74AA
:102BF000594B04229A63FB7CA9E07B6903F0010333
:102C0000002B06D00123FB74534B01229A63FB7CFB
:102C10009DE0FDF733FC03461A46FB79934203D04F
:102C20001023FB74FB7C92E04B4B40F2FF529A6303
:102C30000020FDF72FFCF860FA68484B1340002B8A
:102C400001D1FB7C83E0FB68002B01DA1C237EE0D2
:102C5000FB6803F08043002B01D0092377E0FB6879
:102C600003F00053002B01D00A2370E0FB6803F04F
:102C70008053002B01D00B2369E0FB6803F0006355
:102C8000002B01D00C2362E0FB6803F08063002B73
:102C900001D00D235BE0FB6803F08073002B01D0B3
:102CA0000E2354E0FB6803F40003002B01D00F2334
:102CB0004DE0FB6803F48003002B01D0102346E0B5
:102CC000FB6803F40013002B01D011233FE0FB68E5
:102CD00003F48013002B01D0122338E0FB6803F4C7
:102CE0000023002B01D0132331E0FB6803F4802381
:102CF000002B01D014232AE0FB6803F40033002BDF
:102D000001D0152323E0FB6803F48033002B01D0AE
:102D100016231CE0FB6803F40043002B01D01723AB
:102D200015E0FB6803F48043002B01D018230EE06C
:102D3000FB6803F40053002B01D0192307E0FB6864
:102D400003F00803002B01D01A2300E0FB7C184697
:102D50001837BD4680BD00BF002C014008E0FFFDD4
:102D600080B483B000AF0023FB70114B5B6B7B60C2
:102D700002E00F4B5B6B7B607B6803F04503002B2D
:102D8000F7D07B6803F00403002B06D00323FB700D
:102D9000074B04229A63FB7804E0054B40F2FF5294
:102DA0009A63FB7818460C37BD465DF8047B704784
:102DB000002C014080B483B000AF0023FB70174BA0
:102DC0005B6B7B6002E0154B5B6B7B607B6803F0A9
:102DD0004503002BF7D07B6803F00403002B06D0DB
:102DE0000323FB700D4B04229A63FB7810E07B6891
:102DF00003F00103002B06D00123FB70074B0122D7
:102E00009A63FB7804E0054B40F2FF529A63FB782B
:102E100018460C37BD465DF8047B7047002C014016
:102E200080B586B000AF03463960FB710023FB74A8
:102E30002E4B5B6B7B6102E02C4B5B6B7B617B6998
:102E400003F04503002BF7D07B6903F00403002B4C
:102E500006D00323FB74254B04229A63FB7C40E0DD
:102E60007B6903F00103002B06D00123FB741F4B89
:102E700001229A63FB7C34E0FDF700FB03461A460F
:102E8000FB79934203D01023FB74FB7C29E0174BA2
:102E900040F2FF529A630020FDF7FCFAF860FB68ED
:102EA00003F46043002B06D1FB681B0C9AB23B680D
:102EB0001A80FB7C15E0FB6803F40053002B01D063
:102EC00013230EE0FB6803F48043002B01D0102392
:102ED00007E0FB6803F40043002B01D00F2300E060
:102EE000FB7C18461837BD4680BD00BF002C014052
:102EF00080B586B000AF0346FB710023FB7500234D
:102F0000FB6000233B610020FDF7C4FA034603F099
:102F10000073002B03D00E23FB75FB7D9FE0524B0B
:102F20001B689AB207F10C031046194600F0A0F88E
:102F30000346FB75FB7D002B01D0FB7D8FE0FB7909
:102F4000012B46D13B6903F48023002B3DD0464B37
:102F50001B681B04454A1360444B37225A60434B9D
:102F600040229A60414B0022DA60404B4FF480626D
:102F70001A613E48FDF756FA3720FFF71FFE034659
:102F8000FB75FB7D002B01D0FB7D68E0374B0222F7
:102F90001A60364B06225A60344B40229A60334BFB
:102FA0000022DA60314B4FF480621A612F48FDF73E
:102FB00039FA0620FFF702FE0346FB75FB7D002B66
:102FC00001D0FB7D4BE0FB7D49E02523FB75FB7DBC
:102FD00045E03B6903F48033002B3DD0224B1B6856
:102FE0001B04224A1360214B37225A601F4B402298
:102FF0009A601E4B0022DA601C4B4FF480621A610B
:103000001A48FDF70FFA3720FFF7D8FD0346FB7586
:10301000FB7D002B01D0FB7D21E0144B00221A60C8
:10302000124B06225A60114B40229A600F4B00222D
:10303000DA600E4B4FF480621A610C48FDF7F2F92A
:103040000620FFF7BBFD0346FB75FB7D002B01D07F
:10305000FB7D04E0FB7D02E02523FB75FB7D18462C
:103060001837BD4680BD00BF6C090020680E0020E7
:1030700090B587B000AF03463960FB8000237B61C9
:103080000023FB740023BB600023FB60754B082208
:103090001A60744B10225A60724B40229A60714B36
:1030A0000022DA606F4B4FF480621A616D48FDF7C1
:1030B000B9F91020FFF782FD0346FB74FB7C002B5F
:1030C00001D0FB7CCAE0684B1B681B04654A136097
:1030D000644B37225A60634B40229A60614B002256
:1030E000DA60604B4FF480621A615E48FDF79AF92E
:1030F0003720FFF763FD0346FB74FB7C002B01D0F8
:10310000FB7CABE0594B4FF0FF321A60574B082263
:103110005A60564B30229A60544B0222DA60534B6D
:1031200000221A61514B01225A615048FDF7C6F93D
:103130004C4B00221A604B4B33225A60494B4022C1
:103140009A60484B0022DA60464B4FF480621A6165
:103150004448FDF767F93320FFF730FD0346FB7461
:10316000FB7C002B01D0FB7C78E012E04FF40010D8
:10317000FDF7EEF90346002B0BD07B699B0007F1AE
:103180000802D418FDF7C8F9034623607B690133B0
:103190007B61374B5A6B40F22A631340002BE5D01A
:1031A0000820FDF7D5F90346002B06D0304B082246
:1031B0009A630423FB74FB7C50E00220FDF7C8F9FE
:1031C0000346002B06D02A4B02229A630223FB748B
:1031D000FB7C43E02020FDF7BBF90346002B06D023
:1031E000234B20229A630623FB74FB7C36E04FF4CA
:1031F0000070FDF7ADF90346002B07D01C4B4FF4D0
:1032000000729A630723FB74FB7C27E0184B40F2A3
:10321000FF529A633B680433BA681106BA6802F435
:103220007F4212021143BA6802F47F02120A11436C
:10323000BA68120E0A431A60FB681A06FB6803F4A8
:103240007F431B021A43FB6803F47F031B0A1A43E4
:10325000FB681B0E1A433B681A60FB7C18461C3740
:10326000BD4690BD680E00206C090020F00E0020C5
:10327000002C014080B500AF0020FDF7A7F800202A
:10328000FDF7B4F8FDF766F80D4A0D4B5B6C23F4BF
:10329000006353640B484FF4F85103F0B5FA094842
:1032A0004FF4F851022203F0EFFA0748042103F02B
:1032B000ABFA05480421022203F0E6FA80BD00BF04
:1032C0000038024000080240000C024080B582B085
:1032D00002AF022300930C2301930F484FF4F851DF
:1032E0000022012303F03CFA022300930C230193F4
:1032F0000A4804210022012303F032FA084A084B4D
:103300005B6C43F400635364054A054B1B6B43F449
:1033100080031363BD4680BD00080240000C0240DC
:103320000038024080B592B000AF78603960224822
:103330004FF0FA5100F0BCFB1F48002100F082FB67
:103340001D4800F057FA4FF00063FB601B4B3B61D8
:103350007B687B614023BB610123FB6100233B62EF
:103360004FF480637B624FF48053BB620023FB62A7
:1033700000233B634FF440337B630423BB6301238F
:10338000FB6300233B644FF400137B6407F10C03E1
:103390000948194600F000FB07481021012200F0FF
:1033A000B5FB0548202100F069FB0348012100F02E
:1033B00049FB4837BD4680BD58640240802C01401F
:1033C00080B592B000AF7860396023484FF0FA5171
:1033D00000F06EFB2048002100F034FB1E4800F096
:1033E00009FA4FF00063FB601C4B3B617B687B611B
:1033F0000023BB610123FB6100233B624FF4806328
:103400007B624FF48053BB624FF48043FB62002326
:103410003B634FF440337B630423BB630323FB63B1
:103420004FF400033B644FF400137B6407F10C037B
:103430000948194600F0B0FA07481021012200F0AF
:1034400065FB0548202100F019FB0348012100F02D
:10345000F9FA4837BD4680BD58640240802C0140CF
:1034600080B582B000AF78604FF480400121FDF755
:10347000B9FD02200021FCF72BFF7B6801221A60B6
:103480007B6801229A717B6800221A717B6808228E
:103490005A71786803F04EF80837BD4680BD00BF0A
:1034A00080B487B000AF7860396000237B6100236F
:1034B0003B610023FB6000237B6176E07B69012296
:1034C00002FA03F33B613B681A683B691340FB60F7
:1034D000FA683B699A4265D17B681A687B695B0030
:1034E000194603238B40DB431A407B681A607B68D4
:1034F0001A683B681B7919467B695B0001FA03F384
:103500001A437B681A603B681B79012B03D03B6828
:103510001B79022B2ED17B689A687B695B00194668
:1035200003238B40DB431A407B689A607B689A6870
:103530003B685B7919467B695B0001FA03F31A4328
:103540007B689A607B685A687B699BB21946012345
:103550008B40DB431A407B685A607B685B683A6843
:10356000927911467A6992B201FA02F292B21A4342
:103570007B685A607B68DA687B699BB25B000321D9
:1035800001FA03F3DB431A407B68DA607B68DA6890
:103590003B68DB7919467B695B0001FA03F31A4348
:1035A0007B68DA607B6901337B617B690F2B85D98E
:1035B0001C37BD465DF8047B704700BF80B483B004
:1035C00000AF78600B467B807B687A881A830C3763
:1035D000BD465DF8047B704780B485B000AF78606D
:1035E0000B467B8013467B700023FB600023BB608F
:1035F0007B787A8802F0070292009340FB607B8818
:10360000DB089BB218467B88DB089BB21A467B68B6
:10361000083253F822207B8803F007039B001946E9
:103620000F238B40DB4302EA03017B6800F10802B1
:1036300043F822107B88DB089BB21A467B6808326D
:1036400053F82220FB681343BB607B88DB089BB2E6
:103650001A467B680832B96843F822101437BD4611
:103660005DF8047B704700BF80B500AF114A114B75
:103670001B6843F0010313600E4B00229A600D4A51
:103680000C4B1B6823F0847323F480331360094BC5
:10369000094A5A60074A074B1B6823F480231360CA
:1036A000044B0022DA6000F00BF8044B4FF000628C
:1036B0009A6080BD003802401030002400ED00E028
:1036C00080B483B000AF00237B6000233B60354AA9
:1036D000344B1B6843F480331360324B1B6803F494
:1036E00000333B607B6801337B603B68002B03D178
:1036F0007B68B3F5A06FF0D12A4B1B6803F400334D
:10370000002B02D001233B6001E000233B603B68BB
:10371000012B42D1234A234B1B6C43F0805313648B
:10372000214A214B1B6843F4804313601D4A1D4B03
:103730009B6893601B4A1B4B9B6843F40043936058
:10374000184A184B9B6843F4A0539360154B174AD3
:103750005A60144A134B1B6843F08073136000BF18
:10376000104B1B6803F00073002BF9D0104B40F294
:1037700005621A600B4A0B4B9B6823F003039360AE
:10378000084A084B9B6843F00203936000BF054B57
:103790009B6803F00C03082BF9D10C37BD465DF88C
:1037A000047B704700380240007000400854400716
:1037B000003C024080B485B000AF78600B4B1B68C2
:1037C000002B02D1094B0A4A1A60084B1B68FB60A8
:1037D000064B1A687B681344044A1360FB6818465A
:1037E0001437BD465DF8047B704700BF9009002088
:1037F0000C0F002080B483B000AF78607B681B683A
:1038000023F001027B681A607B6800221A607B68E3
:1038100000225A607B6800229A607B680022DA608E
:103820007B6800221A617B6821225A617B68454AC5
:10383000934203D1444B3D229A607EE07B68434A29
:10384000934204D1404B4FF474629A6075E07B68F8
:103850003F4A934204D13C4B4FF474129A606CE09F
:103860007B683C4A934204D1374B4FF074629A60B4
:1038700063E07B68384A934203D1334B374ADA60BE
:103880005BE07B68364A934203D12F4B354ADA60BE
:1038900053E07B68344A934203D12B4B334ADA60BE
:1038A0004BE07B68324A934204D1274B4FF03D52A4
:1038B000DA6042E07B682F4A934203D12E4B3D22CF
:1038C0009A603AE07B682D4A934204D12A4B4FF428
:1038D00074629A6031E07B68294A934204D1264B96
:1038E0004FF474129A6028E07B68264A934204D110
:1038F000214B4FF074629A601FE07B68224A93422A
:1039000003D11D4B154ADA6017E07B681F4A9342CA
:1039100003D1194B134ADA600FE07B681C4A9342CB
:1039200003D1154B114ADA6007E07B68194A9342CC
:1039300003D1114B4FF03D52DA600C37BD465DF8B4
:10394000047B704710600240006002402860024023
:103950004060024058600240706002403D0000201C
:1039600088600240400F0020A060024000003D201F
:10397000B8600240106402400064024028640240C3
:10398000406402405864024070640240886402400F
:10399000A0640240B864024080B485B000AF786093
:1039A00039600023FB607B681B68FB60FA68244B6E
:1039B0001340FB603B681A683B68DB681A433B684E
:1039C0005B691A433B689B691A433B68DB691A438E
:1039D0003B681B6A1A433B685B6A1A433B689B6AF5
:1039E0001A433B685B6B1A433B689B6B1343FA6853
:1039F0001343FB607B68FA681A607B685B69FB6055
:103A0000FB6823F00703FB603B68DA6A3B681B6BCB
:103A10001343FA681343FB607B68FA685A613B689A
:103A20001A697B685A603B685A687B689A603B6891
:103A30009A687B68DA601437BD465DF8047B70478E
:103A40003F801CF080B483B000AF78600B46FB7001
:103A5000FB78002B06D07B681B6843F001027B6873
:103A60001A6005E07B681B6823F001027B681A601E
:103A70000C37BD465DF8047B704700BF80B483B04F
:103A800000AF786039603B68002B06D07B681B680C
:103A900043F020027B681A6005E07B681B6823F016
:103AA00020027B681A600C37BD465DF8047B7047C6
:103AB00080B485B000AF786039607B68104A93426B
:103AC00002D8104BFB6001E00F4BFB603B6803F03A
:103AD0000053002B07D03B6823F0F02323F0821320
:103AE000FA68D36006E03B6823F0F02323F08213EA
:103AF000FA6893601437BD465DF8047B704700BFD9
:103B00000F640240006002400064024080B485B04F
:103B100000AFF860B9601346FB71BB6803F0800327
:103B2000002B0FD0FB79002B06D0FB685B6943F0BC
:103B30008002FB685A6105E0FB685B6923F0800244
:103B4000FB685A61BB68802B14D0FB79002B08D02E
:103B5000FB681A68BB6803F01E031A43FB681A600F
:103B600008E0FB681A68BB6803F01E03DB431A40D9
:103B7000FB681A601437BD465DF8047B704700BFD0
:103B800080B487B000AFF860B9607A60FB687B6191
:103B9000BB683B6107E07B695A1C7A613A69511C3A
:103BA000396112781A707B685A1E7A60002BF2D144
:103BB0001C37BD465DF8047B704700BF80B487B0FA
:103BC00000AFF860B9607A60FB687B6105E07B69F3
:103BD0005A1C7A61BA68D2B21A707B685A1E7A602F
:103BE000002BF4D11C37BD465DF8047B704700BF45
:103BF00080B489B000AFF860B9607A60FB68FB619F
:103C0000BB68BB6100237B6100BF7B685A1E7A6082
:103C1000002B0DD0FB695A1CFA611B781946BB6951
:103C20005A1CBA611B78CB1A7B617B69002BECD0E4
:103C30007B6918462437BD465DF8047B704700BF9A
:103C400080B483B000AF7860396002E07B680133F4
:103C50007B607B681B78002B05D07B681B781A463D
:103C60003B689A42F2D17B681B7818460C37BD46F8
:103C70005DF8047B704700BF80B586B000AF786008
:103C80000023FB737B681B79002B36D07B681B6B92
:103C90007B617B685A787B683433104619467A69B1
:103CA0000123FCF787FE0346002B02D00123FB73A0
:103CB00023E07B6800221A717B685B6A7A69D21AFA
:103CC0007B68DB699A4218D27B68DB783B6111E044
:103CD0007B68DB697A6913447B617B685A787B680F
:103CE0003433104619467A690123FCF763FE3B69B9
:103CF000013B3B613B69012BEAD8FB7B1846183737
:103D0000BD4680BD80B584B000AF786039600023C7
:103D1000FB737B681A6B3B689A421CD07868FFF78C
:103D2000ABFF0346FB73FB7B002B14D17B685A78F7
:103D30007B683433104619463A680123FCF70CFEC1
:103D40000346002B04D04FF0FF333B600123FB738D
:103D50007B683A681A63FB7B18461037BD4680BD06
:103D600080B584B000AF78607868FFF785FF0346C0
:103D7000FB73FB7B002B40F094807B681B78032B4C
:103D800040F083807B685B79012B7ED17B68343384
:103D9000184600214FF40072FFF710FF7B68552290
:103DA00083F832227B68AA2283F833227B6852226E
:103DB00083F834207B68522283F835207B686122A7
:103DC00083F836207B68412283F837207B68722293
:103DD00083F818227B68722283F819227B684122BB
:103DE00083F81A227B68612283F81B227B681B6997
:103DF000DAB27B6883F81C227B681B699BB21B0AC2
:103E00009BB2DAB27B6883F81D227B681B691B0CAE
:103E1000DAB27B6883F81E227B681B691B0EDAB25C
:103E20007B6883F81F227B68DB68DAB27B6883F8E3
:103E300020227B68DB689BB21B0A9BB2DAB27B68EC
:103E400083F821227B68DB681B0CDAB27B6883F87D
:103E500022227B68DB681B0EDAB27B6883F82322A0
:103E60007B681B6A5A1C7B681A637B6859787B687D
:103E700003F134027B681B6B084611461A46012386
:103E8000FCF798FD7B6800225A717B685B781846C6
:103E900000210022FCF7BCFD0346002B01D00123CA
:103EA000FB73FB7B18461037BD4680BD80B483B0E2
:103EB00000AF786039603B68023B3B607B689B6980
:103EC0009A1E3B689A4201D8002308E07B689B78E1
:103ED0001A463B6803FB02F27B68DB6A1344184610
:103EE0000C37BD465DF8047B704700BF80B586B0D7
:103EF00000AF786039603B68012B04D97B689A6910
:103F00003B689A4202D801237B619FE04FF0FF3368
:103F10007B617B681B78022B48D0032B69D0012B77
:103F200040F092803B683B613B695B083A6913440F
:103F30003B617B685A6A3B695B0A1344786819469F
:103F4000FFF7E0FE0346002B00D07FE03B695A1CE0
:103F50003A61C3F308037A68134493F83430FB6082
:103F60007B685A6A3B695B0A134478681946FFF715
:103F7000C9FE0346002B00D068E03B69C3F3080389
:103F80007A68134493F834301B021A46FB681343D3
:103F9000FB603B6803F00103002B02D0FB681B09A8
:103FA00002E0FB68C3F30B037B614FE07B685A6A56
:103FB0003B681B0A134478681946FFF7A3FE0346C3
:103FC000002B00D042E03B685B0003F4FF7330330A
:103FD0007A6813440433BB60BB6801331B781B024F
:103FE0009AB2BB681B789BB213439BB29BB27B61B6
:103FF0002CE07B685A6A3B68DB09134478681946F1
:10400000FFF780FE0346002B00D01FE03B689B00BB
:1040100003F4FE7330337A6813440433BB60BB6827
:1040200003331B781A06BB6802331B781B04134347
:10403000BA680132127812021343BA681278134335
:1040400023F070437B6101E001237B617B691846AB
:104050001837BD4680BD00BF80B588B000AFF8609E
:10406000B9607A60BB68012B04D9FB689A69BB68A8
:104070009A4202D80223FB77ECE0FB681B78022B04
:1040800074D0032B00F09A80012B40F0E180BB68D4
:10409000BB61BB695B08BA691344BB61FB685A6AC0
:1040A000BB695B0A1344F8681946FFF72BFE034609
:1040B000FB77FB7F002B00D0CCE0BB695A1CBA61B8
:1040C000C3F308033033FA68134404337B61BB68DD
:1040D00003F00103002B0DD07B691B78DBB203F0EA
:1040E0000F03DAB27B68DBB21B01DBB21343DBB236
:1040F000DBB201E07B68DBB27A691370FB680122F6
:104100001A71FB685A6ABB695B0A1344F86819465E
:10411000FFF7F8FD0346FB77FB7F002B00D099E00B
:10412000BB69C3F308033033FA68134404337B617B
:10413000BB6803F00103002B03D07B681B09DBB2D3
:104140000EE07B691B78DBB223F00F03DAB27B68E9
:104150001B0ADBB203F00F03DBB21343DBB2DBB2AB
:104160007A691370FB6801221A7173E0FB685A6A5E
:10417000BB681B0A1344F8681946FFF7C3FD0346E2
:10418000FB77FB7F002B00D064E0BB685B0003F48F
:10419000FF733033FA68134404337B617B68DAB20F
:1041A0007B691A707B6901337A6892B2120A92B203
:1041B000D2B21A70FB6801221A714BE0FB685A6A8E
:1041C000BB68DB091344F8681946FFF79BFD0346FB
:1041D000FB77FB7F002B00D03CE0BB689B0003F427
:1041E000FE733033FA68134404337B617B69033315
:1041F0001B781A067B6902331B781B0413437A6908
:1042000001321278120213437A691278134303F0D1
:1042100070437A6813437B607B68DAB27B691A70FB
:104220007B6901337A6892B2120A92B2D2B21A70E2
:104230007B6902337A68120CD2B21A707B6903333D
:104240007A68120ED2B21A70FB6801221A7101E06C
:104250000223FB77FB7F18462037BD4680BD00BF99
:1042600080B584B000AF786039603B68012B04D919
:104270007B689A693B689A4202D80223FB733BE051
:104280000023FB7333E078683968FFF72FFEB860CE
:10429000BB68002B00D12FE0BB68012B02D10223A9
:1042A000FB7329E0BB68B3F1FF3F02D10123FB732D
:1042B00022E0786839680022FFF7CEFE0346FB73E0
:1042C000FB7B002B00D017E07B681B69B3F1FF3F3D
:1042D0000BD07B681B695A1C7B681A617B685B7911
:1042E00043F00103DAB27B685A71BB683B607B68BC
:1042F0009A693B689A42C6D8FB7B18461037BD4680
:1043000080BD00BF80B586B000AF786039603B6883
:10431000002B0DD17B68DB683B613B69002B04D02F
:104320007B689A693B699A421BD801233B6118E07C
:1043300078683968FFF7DAFDB860BB68012B01D8EF
:10434000012370E0BB68B3F1FF3F01D1BB686AE0B5
:104350007B689A69BB689A4201D9BB6863E03B6895
:104360003B613B697B617B6901337B617B689A6957
:104370007B699A4207D802237B617A693B699A423A
:1043800001D900234FE078687969FFF7AFFDB86085
:10439000BB68002B0CD100BF786879696FF0704260
:1043A000FFF75AFE0346FB73FB7B002B1AD10FE08D
:1043B000BB68B3F1FF3F02D0BB68012B01D1BB68E2
:1043C00031E07A693B699A4201D100232BE0CAE7C8
:1043D0003B68002B06D0786839687A69FFF73CFEA5
:1043E0000346FB73FB7B002B14D17B687A69DA6090
:1043F0007B681B69B3F1FF3F14D07B681B695A1EB1
:104400007B681A617B685B7943F00103DAB27B68F1
:104410005A7107E0FB7B012B02D14FF0FF3300E024
:1044200001237B617B6918461837BD4680BD00BFFC
:1044300080B586B000AF786039603B689AB27B681F
:10444000DA807B689B687B617B69012B05D07B6888
:104450001B689A697B699A4201D8022363E07B69F1
:10446000002B08D17B681B681B78032B03D17B686A
:104470001B689B6A7B617B69002B0DD17B681B6885
:104480001B891A463B689A4201D802234BE07B689D
:104490001B689B6A3B612CE07B681B689B781B0157
:1044A000FB601BE07B681B6818467969FFF71EFDFF
:1044B00078617B69B3F1FF3F01D1012333E07B6970
:1044C000012B05D97B681B689A697B699A4201D8E0
:1044D000022328E03A68FB68D31A3B603A68FB681D
:1044E0009A42DFD27B681B6818467969FFF7DEFCC9
:1044F00038617B687A69DA603B69002B01D102235D
:1045000011E03B681A093B691A447B681A617B68B1
:104510001A683B6803F00F035B01303313441A1D24
:104520007B685A61002318461837BD4680BD00BF1E
:1045300090B587B000AF786039607B68DB88013365
:10454000FB60FB689BB2002B03D07B681B69002BD0
:1045500001D10423BBE0FB6803F00F03002B40F004
:10456000A6807B681B695A1C7B681A617B68DB68C4
:10457000002B09D17B681B681B891A46FB689A428D
:1045800000F295800423A2E0FB681B097A68126898
:104590009278013A1340002B40F089807B681A68BA
:1045A0007B68DB6810461946FFF7A0FC78617B69E1
:1045B000012B01D802238AE07B69B3F1FF3F01D1CF
:1045C000012384E07B681B689A697B699A4262D800
:1045D0003B68002B01D1042379E07B681A687B6873
:1045E000DB6810461946FFF78DFE78617B69002B6A
:1045F00001D107236BE07B69012B01D1022366E027
:104600007B69B3F1FF3F01D1012360E07B681B6848
:104610001846FFF731FB0346002B01D0012356E07B
:104620007B681B683433184600214FF40072FFF793
:10463000C5FA7B681C687B681B6818467969FFF7B8
:1046400035FC0346236300233B6115E07B681B6850
:1046500001221A717B681B681846FFF70DFB0346A1
:10466000002B01D0012332E07B681B681A6B0132FA
:104670001A633B6901333B617B681B689B781A4670
:104680003B699A42E2D87B681B687A681268116BB2
:104690003A698A1A1A637B687A69DA607B681B68F0
:1046A00018467969FFF702FC02467B681A61FB68CD
:1046B0009AB27B68DA807B681A68FB6803F00F03A4
:1046C0005B01303313441A1D7B685A61002318467E
:1046D0001C37BD4690BD00BF80B584B000AF786088
:1046E000396078680021FFF7A3FE0346FB73FB7B6C
:1046F000002B2DD10023BB607B681A687B681B6987
:1047000010461946FFF7FEFA0346FB73FB7B002BAE
:1047100000D01DE07B685B691B78E52B04D07B68CB
:104720005B691B78002B08D1BB680133BB60BA689A
:104730003B689A4200D10BE001E00023BB6078683F
:104740000121FFF7F5FE0346FB73FB7B002BD3D063
:10475000FB7B042B01D10723FB73FB7B184610372F
:10476000BD4680BD80B485B000AF786039603B68DD
:104770001B331B781B029AB23B681A331B789BB21F
:1047800013439BB29BB2FB607B681B78032B0FD15A
:104790003B6815331B781B029AB23B6814331B78B5
:1047A0009BB213439BB29BB21B04FA681343FB609A
:1047B000FB6818461437BD465DF8047B704700BFA0
:1047C00080B483B000AF786039607B681A333A6890
:1047D000D2B21A707B681B333A6892B2120A92B254
:1047E000D2B21A707B6814333A68120CD2B21A70C3
:1047F0007B6815333A68120C92B2120A92B2D2B2A6
:104800001A700C37BD465DF8047B704780B586B0E2
:1048100000AF786039603B681B7823F040035A1E74
:1048200013465B0013449B0013447B6100233B61F0
:104830000123FB812B4A3B6913441B7801333A68FF
:1048400013441B781B0299B2264A3B6913441B7818
:104850001A463B6813441B789BB20A4613439BB22B
:10486000BB81FB89002B19D0BB891846FBF702FDE1
:104870000346FB817B69FE2B0ED87B695A1C7A614B
:104880005B007A6813441B881846FBF7F3FC034669
:104890001A46FB89934208D000231FE0BB894FF6DC
:1048A000FF72934201D0002318E03B6901333B6162
:1048B0003B690C2BBED93B681B7803F04003002BEF
:1048C0000BD0FB89002B08D07B695B007A6813440E
:1048D0001B88002B01D0002300E001231846183765
:1048E000BD4680BD587A000880B489B000AFF8603A
:1048F000B96011461A460B46FB711346BB71BB6883
:104900000D33BA791A70BB680B330F221A70BB686B
:104910000C3300221A70BB681A3300221A70BB686D
:104920001B3300221A70FB795A1E13465B00134496
:104930009B001344FB610023FB820023BB61FB8AC5
:104940004FF6FF72934207D0FB695A1CFA615B0075
:10495000FA6813441B88FB821C4ABB6913441B780A
:104960001A46BB681344FA8AD2B21A70174ABB6956
:1049700013441B780133BA681344FA8A120A92B2BC
:10498000D2B21A70FB8A002B02D14FF6FF73FB8262
:10499000BB690133BB61BB690C2BD0D9FB8A4FF6D5
:1049A000FF72934206D0FB695B00FA6813441B88D0
:1049B000002B03D1FB7943F04003FB71BB68FA790C
:1049C0001A702437BD465DF8047B7047587A00089A
:1049D00080B58CB000AFF860B9607A603B60F86871
:1049E000B9680B22FFF7CCF83B68052B2BD93B6845
:1049F000FB6122E07B689A1C7A601B887B84002321
:104A0000BB6217E0FB695A007B8C03F0010313447F
:104A1000FB617B8C5B087B84FB6903F48033002B98
:104A200005D0FB6983F4883383F02103FB61BB6A03
:104A30000133BB62BB6A0F2BE4D97B681B88002B58
:104A4000D8D1FB693B600723BB623B68DBB203F054
:104A50000F03DBB2303387F82F3097F82F30392B24
:104A600004D997F82F30073387F82F30BB6A5A1EC6
:104A7000BA6207F13002134497F82F2003F81C2C78
:104A80003B681B093B603B68002BDED107F1140239
:104A9000BB6A13447E221A7000237B6202E07B6AA9
:104AA00001337B627A6ABB6A9A4205D2FA687B6AF2
:104AB00013441B78202BF2D17B6A5A1C7A62FA6865
:104AC0001A44BB6A072B08D8BB6A591CB96207F1A4
:104AD00030010B4413F81C3C00E0202313707B6A68
:104AE000072BE9D93037BD4680BD00BF80B485B003
:104AF00000AF78600023FB730B23BB60FB7BDAB253
:104B00005208DB011343DAB27B68591C79601B78C9
:104B10001344FB73BB68013BBB60BB68002BEDD14A
:104B2000FB7B18461437BD465DF8047B704700BF19
:104B300080B586B000AF786078680021FFF778FC18
:104B40000346FB75FB7D002B01D0FB7D9CE0FF2322
:104B50003B753B7D7B757B684FF6FF721A847B68E3
:104B60001A687B681B6910461946FFF7CBF80346A5
:104B7000FB75FB7D002B00D085E07B685B693B61AA
:104B80003B691B78BB75BB7D002B02D10423FB75F1
:104B900079E03B690B331B7803F03F03FB73BB7D6C
:104BA000E52B07D0FB7B03F00803002B09D0FB7B30
:104BB0000F2B06D0FF237B757B684FF6FF721A849C
:104BC00057E0FB7B0F2B2FD17B68DB69002B50D08C
:104BD000BB7D03F04003002B0CD03B695B7B3B7536
:104BE000BB7D23F04003BB75BB7D7B757B68DA889A
:104BF0007B681A84BA7D7B7D9A4212D13B690D3362
:104C00001B783A7D9A420CD17B68DB69184639697A
:104C1000FFF7FCFD0346002B03D07B7D013BDBB29D
:104C200000E0FF237B7524E07B7D002B08D13869F1
:104C3000FFF75CFF03461A463B7D934200D122E01A
:104C40007B689B690B331B7803F00103002B0AD1AF
:104C50007B689B69386919460B22FEF7C9FF03463A
:104C6000002B00D10FE0FF237B757B684FF6FF72AE
:104C70001A8478680021FFF75BFC0346FB75FB7D17
:104C8000002B3FF46CAFFB7D18461837BD4680BD46
:104C900080B58CB000AF78607B689B693B627B68B5
:104CA000DB69FB6107F10C031846396A0C22FEF739
:104CB00067FFFB7D03F02003002B01D00623E0E01B
:104CC000FB7D03F00103002B35D03B6A0B33002240
:104CD0001A707B680022DA610123BB6215E007F1DC
:104CE0000C03386A1946FA69BB6AFFF771FE7868E7
:104CF000FFF71EFF034687F82F3097F82F30002B61
:104D000000D005E0BB6A0133BB62BB6A632BE6D906
:104D1000BB6A642B01D10723B3E097F82F30042B33
:104D200002D097F82F30ACE03B6A0B33FA7D1A7053
:104D30007B68FA69DA61FB7D03F00203002B14D073
:104D40000023BB6202E0BB6A0133BB62BB6A5B004B
:104D5000FA6913441B88002BF5D1BB6A19334B4AFF
:104D6000A2FB03239B087B6201E001237B6278683E
:104D7000796AFFF7B1FC034687F82F3097F82F3098
:104D8000002B4AD17B6A013B7B627B6A002B44D0BB
:104D90007B68DB881A467B6AD31A78681946FFF766
:104DA00047FB034687F82F3097F82F30002B34D17C
:104DB0007B689B691846FFF799FE0346FB767B6884
:104DC0001A687B681B6910461946FEF79BFF03466D
:104DD00087F82F3097F82F30002B00D01DE07B682C
:104DE000D8697B6859697B6ADAB2FB7EFFF77CFD84
:104DF0007B681B6801221A7178680021FFF798FB15
:104E0000034687F82F3097F82F30002B05D17B6AA7
:104E1000013B7B627B6A002BD1D197F82F30002BAE
:104E20002DD17B681A687B681B6910461946FEF70E
:104E300069FF034687F82F3097F82F30002B1ED1DB
:104E40007B685B69184600212022FEF7B7FE7B686D
:104E50005A697B689B69104619460B22FEF790FE43
:104E60007B685B690C337A6892690B32127802F0C6
:104E70001802D2B21A707B681B6801221A7197F867
:104E80002F3018463037BD4680BD00BF4FECC44EB2
:104E900080B58AB000AF786039603B681B683B61C1
:104EA00002E03B6901333B613B691B782F2BF8D053
:104EB0003B691B785C2BF4D07B68DB69FB600023CB
:104EC0007B617B69BB61BB695A1CBA613A69134457
:104ED0001B78BB84BB8C1F2B2FD9BB8C2F2B2CD0CA
:104EE000BB8C5C2B29D07B69FE2B01D90623C4E146
:104EF000BB8CDBB2BB84BB8C18460121FBF780F96D
:104F00000346BB84BB8C002B01D10623B5E1BB8CCF
:104F10007F2B09D8BB8CA5481946FEF791FE0346A6
:104F2000002B01D00623A8E17B695A1C7A615B0043
:104F3000FA681344BA8C1A80C5E73A69BB691A4407
:104F40003B681A60BB8C1F2B01D8042300E00023B0
:104F500087F826307B69012B09D17B6903F1004377
:104F6000013B5B00FA6813441B882E2B16D07B692B
:104F7000022B3AD17B6903F10043013B5B00FA68E5
:104F800013441B882E2B30D17B6903F10043023B75
:104F90005B00FA6813441B882E2B26D17B695B00CB
:104FA000FA68134400221A8000233B620EE07B68FB
:104FB0009A693B6A1344396A7A69914201D22E2276
:104FC00000E020221A703B6A01333B623B6A0A2BE5
:104FD000EDD97B689A693B6A134497F8262042F022
:104FE0002002D2B21A70002347E112E07B6903F17C
:104FF0000043013B5B00FA6813441B88BB84BB8CF5
:10500000202B03D0BB8C2E2B00D005E07B69013B0D
:105010007B617B69002BE9D17B69002B01D10623E1
:105020002BE17B695B00FA68134400221A807B68DD
:105030009B69184620210B22FEF7C0FD0023BB61AF
:1050400002E0BB690133BB61BB695B00FA681344D2
:105050001B88202BF5D0BB695B00FA6813441B88C2
:105060002E2BEED0BB69002B05D097F8263043F0ED
:10507000030387F8263002E07B69013B7B617B6993
:10508000002B09D07B6903F10043013B5B00FA6808
:1050900013441B882E2BEFD100233B62002387F89B
:1050A00027300823FB61BB695A1CBA615B00FA68B0
:1050B00013441B88BB84BB8C002B00D195E0BB8CB8
:1050C000202B06D0BB8C2E2B0AD1BA697B699A4261
:1050D00006D097F8263043F0030387F8263083E0A4
:1050E0003A6AFB699A4203D2BA697B699A4224D12F
:1050F000FB690B2B06D197F8263043F0030387F8A2
:10510000263072E0BA697B699A4205D097F826305A
:1051100043F0030387F82630BA697B699A4200D9C5
:1051200063E07B69BB6108233B620B23FB6197F85B
:1051300027309B0087F8273056E0BB8C7F2B14D993
:10514000BB8C18460021FBF75BF80346BB84BB8C85
:10515000002B04D0BB8C803B154AD35CBB8497F8F2
:10516000263043F0020387F82630BB8C002B07D093
:10517000BB8C10481946FEF763FD0346002B08D090
:105180005F23BB8497F8263043F0030387F826306B
:1051900021E0BB8C402B0FD9BB8C5A2B0CD897F835
:1051A000273043F0020387F8273014E0687A0008BC
:1051B000D8790008747A0008BB8C602B0BD9BB8CA3
:1051C0007A2B08D897F8273043F0010387F8273067
:1051D000BB8C203BBB847B689A693B6A591C396253
:1051E0001344BA8CD2B21A705DE77B689B691B7856
:1051F000E52B03D17B689B6905221A70FB69082B9C
:1052000004D197F827309B0087F8273097F827308C
:1052100003F00C030C2B05D097F8273003F00303A1
:10522000032B05D197F8263043F0020387F8263088
:1052300097F8263003F00203002B17D197F8273098
:1052400003F00303012B05D197F8263043F0100338
:1052500087F8263097F8273003F00C03042B05D18C
:1052600097F8263043F0080387F826307B689B695F
:105270000B3397F826201A70002318462837BD46AE
:1052800080BD00BF80B584B000AF786039603B68F6
:105290001B782F2B03D03B681B785C2B06D13B6817
:1052A00001333B607B6800229A6004E07B681B68E6
:1052B0005A697B689A603B681B781F2B09D878680D
:1052C0000021FFF7B5F80346FB737B6800225A61A3
:1052D00053E03B4678681946FFF7DAFD0346FB7357
:1052E000FB7B002B00D048E07868FFF721FC0346E9
:1052F000FB737B689B69DB7ABB73FB7B002B1FD046
:10530000FB7B042B1BD1BB7B03F02003002B0ED0B7
:105310007B6800229A607B6800225A61BB7B03F0A5
:105320000403002B00D127E00023FB7307E0BB7BC5
:1053300003F00403002B02D10523FB731DE01CE0E6
:10534000BB7B03F00403002B00D016E07B685B6995
:10535000BB60BB680B331B7803F01003002B02D13A
:105360000523FB7309E07B681B681846B968FFF7E3
:10537000F9F902467B689A60ABE7FB7B1846103769
:10538000BD4680BD80B489B000AF78604FF0FF3378
:105390003B617B681B68002B70D07B681B68BB611E
:1053A00002E0BB690133BB61BB691B781F2B03D9CA
:1053B000BB691B783A2BF4D1BB691B783A2B5AD1C5
:1053C0007B681B68FB61FB695A1CFA611B78303BE8
:1053D0007B617B69092B10D8FA69BB699A420CD1B1
:1053E0007B69082B08D87B693B61BB690133BB61D2
:1053F0007B68BA691A603CE03BE000237B61BB69D3
:105400000133BB61214A7B6952F82330FB607B6822
:105410001B68FB61FB685A1CFA601B78BB72FB6956
:105420005A1CFA611B78FB72FB7A602B05D9FB7A58
:105430007A2B02D8FB7A203BFB72BB7A002B03D07D
:10544000BA7AFB7A9A42E5D0BB7A002B03D1FA698B
:10545000BB699A4205D07B6901337B617B69082B6C
:10546000D0D97B69082B04D87B693B617B68BA691A
:105470001A603B6903E0064B1B783B613B691846A9
:105480002437BD465DF8047B704700BF047B0008ED
:10549000BA09002080B582B000AF786039607B68BF
:1054A00000221A717B684FF0FF321A6378683968FE
:1054B000FEF728FC0346002B01D0032343E07B6862
:1054C00093F833321B029AB27B6893F832329BB264
:1054D00013439BB21BB21E4A934201D0022332E017
:1054E0007B6893F86D301A067B6893F86C301B0468
:1054F00013437A6892F86B20120213437A6892F889
:105500006A20134323F07F43124A934201D10023C0
:1055100019E07B6893F889301A067B6893F8883025
:105520001B0413437A6892F88720120213437A68A7
:1055300092F88620134323F07F43064A934201D119
:10554000002300E0012318460837BD4680BD00BF98
:1055500055AAFFFF4641540080B596B000AFF860F1
:10556000B9601346FB71FB6800221A60B868FFF748
:1055700009FFF863FB6B002B01DA0B2395E29B4AD2
:10558000FB6B52F82330BB63BB6B002B01D10C23A8
:105590008BE2FB68BA6B1A60BB6B1B78002B1AD0CE
:1055A000BB6B5B781846FBF7B5F9034687F83730D5
:1055B00097F8373003F00103002B0CD1FB79002B57
:1055C00007D097F8373003F00403002B01D00A23EB
:1055D0006BE2002369E2BB6B00221A70FB6BDAB24C
:1055E000BB6B5A70BB6B5B781846FBF771F90346CF
:1055F00087F8373097F8373003F00103002B01D0DC
:10560000032352E2FB79002B07D097F8373003F0E1
:105610000403002B01D00A2347E200233B65B86B4B
:10562000396DFFF737FF034687F8573097F8573043
:10563000012B57D100233B642BE03B6C1B0103F58E
:10564000DF733033BA6B134404333B633B6B043377
:105650001B78002B12D03B6B0B331B781A063B6B6D
:105660000A331B781B0413433A6B09321278120277
:1056700013433A6B083212781A4300E000223B6C65
:105680009B0007F158010B4443F8442C3B6C013359
:105690003B643B6C032BD0D900233B643B6C002B59
:1056A00002D03B6C013B3B643B6C9B0007F1580212
:1056B000134453F8443C3B653B6D002B05D0B86B5D
:1056C000396DFFF7E7FE034600E0022387F8573005
:1056D00097F85730002B05D03B6C01333B643B6C93
:1056E000032BE1D997F85730032B01D10123DCE1DB
:1056F00097F85730002B01D00D23D6E1BB6B93F800
:1057000040301B029AB2BB6B93F83F309BB21343FD
:105710009BB21BB2B3F5007F01D00D23C5E1BB6B7B
:1057200093F84B301B029AB2BB6B93F84A309BB292
:1057300013439BB29BB2FB64FB6C002B12D1BB6B7F
:1057400093F85B301A06BB6B93F85A301B04134373
:10575000BA6B92F8592012021343BA6B92F8582090
:105760001343FB64BB6BFA6CDA61BB6B93F84420A8
:10577000BB6BDA70BB6BDB78012B05D0BB6BDB78C6
:10578000022B01D00D2390E1BB6BDB781A46FB6C3A
:1057900002FB03F3FB64BB6B93F84120BB6B9A7075
:1057A000BB6B9B78002B08D0BB6B9B781A46BB6BFE
:1057B0009B78013B1340002B01D00D2375E1BB6B9F
:1057C00093F846301B029AB2BB6B93F845309BB2FC
:1057D00013439BB29AB2BB6B1A81BB6B1B8903F05C
:1057E0000F039BB2002B03D00D235EE19409002030
:1057F000BB6B93F848301B029AB2BB6B93F84730EF
:105800009BB213439BB29BB2BB64BB6C002B12D107
:10581000BB6B93F857301A06BB6B93F856301B04DA
:105820001343BA6B92F8552012021343BA6B92F8E5
:1058300054201343BB64BB6B93F843301B029AB2F2
:10584000BB6B93F842309BB213439BB2FB85FB8D3D
:10585000002B01D10D2328E1FA8DFB6C1344BA6BA8
:105860001289120992B21344BB62BA6CBB6A9A42A3
:1058700001D20D2319E1BA6CBB6AD31ABA6B9278C4
:10588000B3FBF2F37B627B6A002B01D10D230CE1A9
:10589000012387F857307B6A40F6F572934202D9AC
:1058A000022387F857307B6A4FF6F572934202D98C
:1058B000032387F857307B6A9A1CBB6B9A61BB6BDA
:1058C0003A6D1A62FA8D3B6D1A44BB6B5A623A6D9F
:1058D000BB6A1A44BB6BDA6297F85730032B1ED1B0
:1058E000BB6B1B89002B01D00D23DEE0BB6B93F853
:1058F00063301A06BB6B93F862301B041343BA6B18
:1059000092F8612012021343BA6B92F860201A4396
:10591000BB6B9A62BB6B9B699B007B641FE0BB6B9C
:105920001B89002B01D10D23BFE0BB6B5A6AFB6CB6
:105930001A44BB6B9A6297F85730022B03D1BB6BAA
:105940009B695B000AE0BB6B9A6913465B001344DA
:105950005A08BB6B9B6903F0010313447B64BB6B68
:10596000DA697B6C03F2FF135B0A9A4201D20D23C2
:105970009BE0BB6B4FF0FF321A61BB6B1A69BB6BCC
:10598000DA60BB6B80225A7197F85730032B7AD1BB
:10599000BB6B93F865301B029AB2BB6B93F8643013
:1059A0009BB213439BB21BB2012B6CD13B6D0133F5
:1059B000B86B1946FEF7A6F90346002B63D1BB6B03
:1059C00000225A71BB6B93F833321B029AB2BB6B45
:1059D00093F832329BB213439BB21BB2354A9342C7
:1059E00051D1BB6B93F837301A06BB6B93F8363046
:1059F0001B041343BA6B92F8352012021343BA6B9F
:105A000092F8342013432C4A93423CD1BB6B93F859
:105A10001B321A06BB6B93F81A321B041343BA6B82
:105A200092F8192212021343BA6B92F81822134308
:105A3000224A934227D1BB6B93F81F321A06BB6BE5
:105A400093F81E321B041343BA6B92F81D22120204
:105A50001343BA6B92F81C221A43BB6B1A61BB6BDF
:105A600093F823321A06BB6B93F822321B041343BC
:105A7000BA6B92F8212212021343BA6B92F82022D9
:105A80001A43BB6BDA60BB6B97F857201A700C4B4C
:105A90001B8801339AB20A4B1A80094B1A88BB6BD8
:105AA000DA80BB6B00225A61002318465837BD4686
:105AB00080BD00BF55AAFFFF525261417272416121
:105AC000B809002080B584B000AF78607B68FB60C7
:105AD000FB68002B0FD0FB681B68002B0BD0FB680A
