:020000040800F2
:100000008008002071050008C9050008C90500081E
:10001000C9050008C9050008C9050008000000005E
:10002000000000000000000000000000C9050008FA
:10003000C905000800000000C9050008C50B00083C
:10004000C9050008C9050008C9050008C905000858
:10005000C9050008C90500080D060008C905000803
:10006000C9050008C9050008C9050008C905000838
:10007000C9050008C9050008C9050008C905000828
:10008000C9050008C9050008C9050008C905000818
:10009000C9050008C9050008C9050008C905000808
:1000A000C9050008C9050008C9050008C9050008F8
:1000B000C9050008C9050008C9050008C9050008E8
:1000C000C9050008C9050008C9050008C9050008D8
:1000D000C905000859060008C9050008C905000837
:1000E000C9050008C9050008C9050008C9050008B8
:1000F000C9050008C9050008C9050008C9050008A8
:10010000C9050008B50C0008C9050008C9050008A4
:1001100025060008C9050008C9050008C90500082A
:10012000C9050008C9050008C9050008C10C000878
:10013000C9050008C9050008C9050008C905000867
:10014000C9050008C9050008C9050008C905000857
:10015000C9050008C9050008C90500088D06000882
:10016000C9050008C9050008C9050008C905000837
:10017000C9050008C9050008C9050008C905000827
:10018000C9050008C905000890B484B000AF034653
:100190000A46FB711346BB710023FB60BB7903F079
:1001A00003039B000F2202FA03F3FB601649BB799D
:1001B0009B08DBB21846144ABB799B08DBB20233BA
:1001C00052F82320FB68DB431A40831C41F82320AC
:1001D0000D48BB799B08DBB21C460B4ABB799B08D8
:1001E000DBB2023352F82320F979BB7903F0030321
:1001F0009B0001FA03F31A43A31C40F82320103795
:10020000BD4690BC704700BF0038014080B485B047
:1002100000AF78600023FB73084B5A6B7B68134078
:10022000002B02D00123FB7301E00023FB73FB7B57
:1002300018461437BD465DF8047B7047002C01401A
:1002400080B483B000AF7860034A7B6893630C3757
:10025000BD465DF8047B7047002C014080B483B03C
:1002600000AF0346FB710C37BD465DF8047B704759
:1002700080B483B000AF0346FB710C37BD465DF818
:10028000047B704780B483B000AF0346FB710C372A
:10029000BD465DF8047B704780B58AB000AF7860DA
:1002A000396000237B6200233B620023FB61002353
:1002B000BB617B681B8A9BB27B627B6A23F44053E1
:1002C0007B623B68DB881A467B6A13437B627B6AEE
:1002D0009AB27B681A827B689B899BB27B627B6A3D
:1002E00023F4B05323F00C037B623B689A883B688D
:1002F0001B8913439AB23B685B8913439BB21A462E
:100300007B6A13437B627B6A9AB27B689A817B68C3
:100310009B8A9BB27B627B6A23F440737B623B685F
:100320009B891A467B6A13437B627B6A9AB27B681D
:100330009A8207F10803184600F0C2F97B68314A37
:10034000934203D07B68304A934202D17B693B627F
:1003500001E03B693B627B689B899BB29BB21BB20D
:10036000002B0CDA3A6A13469B0013449A001A4495
:100370003B681B685B00B2FBF3F3FB610BE03A6A7E
:1003800013469B0013449A001A443B681B689B0069
:10039000B2FBF3F3FB61FB691C4AA2FB03235B097D
:1003A0001B017B627B6A1B09642202FB03F3FA696F
:1003B000D31ABB617B689B899BB29BB21BB2002B9B
:1003C0000CDABB69DB003233104AA2FB03235B0962
:1003D00003F007037A6A13437B620BE0BB691B01DE
:1003E00032330A4AA2FB03235B0903F00F037A6A44
:1003F00013437B627B6A9AB27B681A812837BD46B9
:1004000080BD00BF00100140001401401F85EB516A
:1004100080B483B000AF78600B46FB70FB78002B94
:1004200008D07B689B899BB243F400539AB27B68E7
:100430009A8107E07B689B899BB223F400539AB2B0
:100440007B689A810C37BD465DF8047B704700BF1E
:1004500080B483B000AF78607B689B889BB2C3F3A5
:1004600008039BB218460C37BD465DF8047B704705
:1004700080B487B000AF78600B467B8013467B70FA
:1004800000233B610023FB600023BB6000237B61F2
:100490007B687B617B88DBB25B09DBB23B617B887D
:1004A00003F01F03FB60FB68012202FA03F3BB6049
:1004B0003B69012B03D17B690C337B6109E03B690C
:1004C000022B03D17B6910337B6102E07B6914331B
:1004D0007B617B78002B06D07B697A691168BA68EA
:1004E0000A431A6006E07B697A691168BA68D243E8
:1004F0000A401A601C37BD465DF8047B704700BF98
:1005000080B485B000AF78600B467B800023FB731E
:100510007B681B889AB27B8813409BB2002B02D069
:100520000123FB7301E00023FB73FB7B18461437A8
:10053000BD465DF8047B704780B485B000AF78603D
:100540000B467B800023FB810023BB817B881B0A39
:10055000FB81FB89012202FA03F3BB81BB89DB43E8
:100560009AB27B681A801437BD465DF8047B7047E9
:1005700080B582B000AF0F4B7B600F4B3B6007E054
:100580003B681A1D3A607A68111D796012681A601A
:100590003B680A4A9342F3D309480A494FF00002E4
:1005A0008842B8BF40F8042BFADB00F011F8083796
:1005B000BD4680BDCC1400080000002010000020C3
:1005C000100000208000002080B400AFFEE700BFD4
:1005D00080B58AB000AF00F005FD07F12003184692
:1005E00000F008FA07F11003184600F0D3FE07F1F7
:1005F0000803184600F0ECFB3B1D184600F07CF9A0
:1006000000F0EAFC012000F0CDFAFEE780B500AF73
:10061000012000F02DFE0346002B02D0012000F047
:100620004BFE80BD80B500AF0A482021FFF768FF70
:100630000346002B07D00748FFF70AFF0346DBB24B
:100640001846FFF70BFE034840F22551FFF774FFF1
:1006500080BD00BF004C004080B500AF0A4820219B
:10066000FFF74EFF0346002B07D00748FFF7F0FEC9
:100670000346DBB21846FFF705FE034840F225515A
:10068000FFF75AFF80BD00BF0010014080B500AFEA
:100690000A482021FFF734FF0346002B07D0074804
:1006A000FFF7D6FE0346DBB21846FFF7E1FD03482D
:1006B00040F22551FFF740FF80BD00BF001401400C
:1006C00080B489B000AF78600023BB6100237B61F8
:1006D0000023FB6102233B610023FB600223BB601C
:1006E000484B9B6803F00C03BB61BB69042B07D02C
:1006F000082B09D0002B3FD17B68434A1A603FE0AA
:100700007B68424A1A603BE03E4B5B6803F480031F
:100710009B0DFB603B4B5B6803F03F03BB60FB68DA
:10072000002B0DD0394ABB68B2FBF3F2354B596848
:1007300047F6C0730B409B0903FB02F3FB610CE01F
:10074000314ABB68B2FBF3F22E4B596847F6C073CF
:100750000B409B0903FB02F3FB612A4B5B6803F42C
:1007600040331B0C01335B003B61FA693B69B2FB10
:10077000F3F27B681A6003E07B68234A1A6000BFCB
:10078000204B9B6803F0F003BB61BB691B09BB6195
:100790001F4ABB6913441B78DBB27B617B681A6814
:1007A0007B69DA407B685A60164B9B6803F4E05320
:1007B000BB61BB699B0ABB61154ABB6913441B78CB
:1007C000DBB27B617B685A687B69DA407B689A6040
:1007D0000C4B9B6803F46043BB61BB695B0BBB6163
:1007E0000B4ABB6913441B78DBB27B617B685A6898
:1007F0007B69DA407B68DA602437BD465DF8047BAC
:10080000704700BF003802400024F40000127A0054
:100810000000002080B483B000AF78600B46FB700E
:10082000FB78002B06D00949084B1A6B7B681343F1
:100830000B6306E00549054B1A6B7B68DB431340ED
:100840000B630C37BD465DF8047B704700380240EF
:1008500080B483B000AF78600B46FB70FB78002B50
:1008600006D00949084B1A6C7B6813430B6406E0F9
:100870000549054B1A6C7B68DB4313400B640C374E
:10088000BD465DF8047B70470038024080B483B0F9
:1008900000AF78600B46FB70FB78002B06D009494F
:1008A000084B5A6C7B6813434B6406E00549054BC3
:1008B0005A6C7B68DB4313404B640C37BD465DF8D4
:1008C000047B70470038024080B483B000AF034619
:1008D000FB71084997F907305B09FA7902F01F02AA
:1008E000012000FA02F241F823200C37BD465DF8E2
:1008F000047B704700E100E080B582B000AF786013
:10090000786800F00FF8786800F022F8786800F056
:1009100035F8786800F048F800F05CF80837BD4614
:1009200080BD00BF80B582B000AF78607B680622D2
:100930001A707B6800225A707B6800229A707B686C
:100940000122DA70786800F0C5FC0837BD4680BD2A
:1009500080B582B000AF78607B6834221A707B6803
:100960000122DA707B6800225A707B6800229A703C
:10097000786800F0AFFC0837BD4680BD80B582B016
:1009800000AF78607B6825221A707B680122DA70DC
:100990007B6800225A707B6800229A70786800F0A9
:1009A00099FC0837BD4680BD80B582B000AF786045
:1009B0007B6847221A707B680122DA707B6800220C
:1009C0005A707B6800229A70786800F083FC0837C0
:1009D000BD4680BD80B500AF0620FFF775FF34200F
:1009E000FFF772FF2520FFF76FFF4720FFF76CFF2F
:1009F00080BD00BF80B582B000AF7860786800F03D
:100A00000DF8786800F04EF8786800F06BF87868B8
:100A100000F0A6F80837BD4680BD00BF80B582B0A3
:100A200000AF786001200121FFF7F4FE1C4800218F
:100A3000082200F089FA1A480121082200F084FAFD
:100A400017480521052200F07FFA154806210522E6
:100A500000F07AFA12480721052200F075FA1048D2
:100A60000921072200F070FA0D480A21072200F040
:100A70006BFA7B6840F2E3621A607B6802221A71AB
:100A80007B6800229A717B6803225A717B6801227D
:100A9000DA710348796800F0BBF90837BD4680BDBC
:100AA0000000024080B582B000AF786002200121D2
:100AB000FFF7B0FE7B68FF221A607B6801221A7183
:100AC0007B6800229A717B6800225A717B68012240
:100AD000DA710348796800F09BF90837BD4680BD9C
:100AE0000004024080B582B000AF7860042001218C
:100AF000FFF790FE19480621082200F025FA174852
:100B00000721082200F020FA7B68C0221A607B6867
:100B100002221A717B6800229A717B6803225A7143
:100B20007B680122DA710D48796800F071F97B6801
:100B300001221A607B6800221A717B6800229A7178
:100B40007B6803225A717B680122DA710348796855
:100B500000F05EF90837BD4680BD00BF00080240C6
:100B600080B582B000AF786010200121FFF752FEFF
:100B70007B684FF478421A607B6800221A717B68A8
:100B800000229A717B6800225A717B680122DA7117
:100B90000348796800F03CF90837BD4680BD00BFC6
:100BA0000010024080B582B000AF0346FB80FB8896
:100BB0000348194600F0BAF90837BD4680BD00BFAA
:100BC0000004024080B582B000AF374B1B68013390
:100BD000354A1360354B1B68002B04D0334B1B6820
:100BE000013B324A1360AFF300800023FB7152E0F7
:100BF000FB792F4A9B0013445B68002B48D0FB799C
:100C00002B4A9B0013445B681B7B002B40D0FB7975
:100C1000274A9B0013445B689B68002B38D0FB7904
:100C2000234A9B0013445B689A68013A9A60FB79F7
:100C30001F4A9B0013445B689B68002B28D1FB79FB
:100C40001B4A9B0013445B681A69FB7918499B0097
:100C50000B445B685B6918469047FB79144A9B001C
:100C600013445A68FB7912499B000B445B681B686C
:100C70009360FB790E4A9B0013445B685B68002B12
:100C800006D1FB790A4A9B0013445B6800221A7361
:100C9000FB790133FB71064B1B78FA799A42A7D393
:100CA0000837BD4680BD00BF14000020180000209A
:100CB0002000002080B500AF00F008F880BD00BF24
:100CC00080B500AF00F06CF880BD00BF80B500AF0C
:100CD0004FF48070FFF79AFA0346002B0AD02D4B91
:100CE00000221A704FF48070FFF7AAFA2A4B0122F3
:100CF0001A6041E00220FFF789FA0346002B06D074
:100D00000220FFF79DFA234B02221A7034E00820DC
:100D1000FFF77CFA0346002B06D00820FFF790FA75
:100D20001C4B04221A7027E02020FFF76FFA0346BD
:100D3000002B06D02020FFF783FA164B06221A70EC
:100D40001AE01020FFF762FA0346002B06D01020AD
:100D5000FFF776FA0F4B05221A700DE04FF4007082
:100D6000FFF754FA0346002B06D04FF40070FFF74C
:100D700067FA084B07221A70084A084BDB6B23F40A
:100D8000434323F03A03D363024B1B78DBB218468C
:100D900080BD00BF7400002078000020002C0140BE
:100DA00080B500AF074B1B6803F0C053002B07D082
:100DB000054B01221A6005484FF0C25100F0B8F906
:100DC00080BD00BF006402407C00002058640240E7
:100DD00080B582B000AF78604FF480400121FFF70A
:100DE00055FD02200021FFF7CFF97B6801221A6030
:100DF0007B6801229A717B6800221A717B68082245
:100E00005A71786800F0C2F90837BD4680BD00BF4E
:100E100080B487B000AF7860396000237B61002325
:100E20003B610023FB6000237B6176E07B6901224C
:100E300002FA03F33B613B681A683B691340FB60AD
:100E4000FA683B699A4265D17B681A687B695B00E6
:100E5000194603238B40DB431A407B681A607B688A
:100E60001A683B681B7919467B695B0001FA03F33A
:100E70001A437B681A603B681B79012B03D03B68DF
:100E80001B79022B2ED17B689A687B695B0019461F
:100E900003238B40DB431A407B689A607B689A6827
:100EA0003B685B7919467B695B0001FA03F31A43DF
:100EB0007B689A607B685A687B699BB219460123FC
:100EC0008B40DB431A407B685A607B685B683A68FA
:100ED000927911467A6992B201FA02F292B21A43F9
:100EE0007B685A607B68DA687B699BB25B00032190
:100EF00001FA03F3DB431A407B68DA607B68DA6847
:100F00003B68DB7919467B695B0001FA03F31A43FE
:100F10007B68DA607B6901337B617B690F2B85D944
:100F20001C37BD465DF8047B704700BF80B483B0BA
:100F300000AF78600B467B807B687A881A830C3719
:100F4000BD465DF8047B704780B485B000AF786023
:100F50000B467B8013467B700023FB600023BB6045
:100F60007B787A8802F0070292009340FB607B88CE
:100F7000DB089BB218467B88DB089BB21A467B686D
:100F8000083253F822207B8803F007039B001946A0
:100F90000F238B40DB4302EA03017B6800F1080268
:100FA00043F822107B88DB089BB21A467B68083224
:100FB00053F82220FB681343BB607B88DB089BB29D
:100FC0001A467B680832B96843F822101437BD46C8
:100FD0005DF8047B704700BF80B400AFBD465DF88C
:100FE000047B704780B500AF114A114B1B6843F07A
:100FF000010313600E4B00229A600D4A0C4B1B68D4
:1010000023F0847323F480331360094B094A5A6038
:10101000074A074B1B6823F480231360044B00220C
:10102000DA6000F00BF8044B4FF000629A6080BD6C
:10103000003802401030002400ED00E080B483B09E
:1010400000AF00237B6000233B60354A344B1B68B4
:1010500043F480331360324B1B6803F400333B606E
:101060007B6801337B603B68002B03D17B68B3F561
:10107000A06FF0D12A4B1B6803F40033002B02D081
:1010800001233B6001E000233B603B68012B42D120
:10109000234A234B1B6C43F080531364214A214B9A
:1010A0001B6843F4804313601D4A1D4B9B6893608B
:1010B0001B4A1B4B9B6843F400439360184A184B30
:1010C0009B6843F4A0539360154B174A5A60144A27
:1010D000134B1B6843F08073136000BF104B1B68F9
:1010E00003F00073002BF9D0104B40F205621A6038
:1010F0000B4A0B4B9B6823F003039360084A084B91
:101100009B6843F00203936000BF054B9B6803F0AC
:101110000C03082BF9D10C37BD465DF8047B7047F2
:10112000003802400070004008544007003C024074
:1011300080B485B000AF786039607B68104A934214
:1011400002D8104BFB6001E00F4BFB603B6803F0E3
:101150000053002B07D03B6823F0F02323F08213C9
:10116000FA68D36006E03B6823F0F02323F0821393
:10117000FA6893601437BD465DF8047B704700BF82
:101180000F640240006002400064024080B485B0F9
:1011900000AF78600023FB60344BFB607B689B7979
:1011A000002B4FD03149314B1A687B681B68DB43F9
:1011B00013400B602D492D4B5A687B681B68DB433D
:1011C00013404B607B681B791A46FB681344FB6035
:1011D000FB68FA6811687A6812680A431A60234942
:1011E000224B9A687B681B68DB4313408B601F4966
:1011F0001E4BDA687B681B68DB431340CB607B685F
:101200005B79102B0ED11949184B9A687B681B68C3
:1012100013438B601549154BDA687B681B681343D1
:10122000CB601DE0114BFB607B685B791A46FB6865
:101230001344FB60FB68FA6811687A6812680A4315
:101240001A600DE07B681B791A46FB681344FB604B
:10125000FB68FA6811687A681268D2430A401A601B
:101260001437BD465DF8047B704700BF003C014069
:1012700080B485B000AF78600023FB730023BB60AF
:101280000C4B1A687B681340BB600A4B5A697B6839
:101290001340002B05D0BB68002B02D00123FB7349
:1012A00001E00023FB73FB7B18461437BD465DF855
:1012B000047B7047003C014080B483B000AF78608D
:1012C000034A7B6853610C37BD465DF8047B704769
:1012D000003C014080B485B000AF78600023FB7310
:1012E0000023BB730F237B737B68DB78002B38D024
:1012F000264BDB68DB4303F4E0631B0AFB73FB7BD9
:10130000C3F10403BB737A7BFB7B42FA03F37B7369
:101310007B685B781A46BB7B02FA03F3FB737B683E
:101320009A787B7B1340DAB2FB7B1343FB73FB7B26
:101330001B01FB73164A7B681B781344FA7B83F806
:101340000023134A7B681B785B09DBB218467B6875
:101350001B7803F01F03012101FA03F342F8203048
:101360000FE00B497B681B785B09DBB218467B6892
:101370001B7803F01F0301229A4000F1200341F87B
:1013800023201437BD465DF8047B704700ED00E074
:1013900000E100E080B582B000AF7860786800F0CE
:1013A00009F8786800F036F8786800F061F80837D6
:1013B000BD4680BD80B582B000AF78604FF400209C
:1013C0000121FFF745FA12480121FFF721F87B6858
:1013D0004FF416521A607B680C225A817B680022F7
:1013E0001A817B680022DA807B6800229A807B6801
:1013F00000229A8106487968FEF74EFF044840F2C1
:1014000025510122FFF734F80837BD4680BD00BFE3
:10141000004C004080B582B000AF78601020012100
:10142000FFF734FA11480121FEF7F2FF7B684FF411
:1014300016521A607B680C225A817B6800221A813E
:101440007B680022DA807B6800229A807B68002219
:101450009A8106487968FEF71FFF044840F225513B
:101460000122FFF705F80837BD4680BD0010014096
:1014700080B582B000AF786020200121FFF706FA26
:1014800011480121FEF7C4FF7B684FF416521A6021
:101490007B680C225A817B6800221A817B680022BB
:1014A000DA807B6800229A807B6800229A81064855
:1014B0007968FEF7F1FE044840F225510122FEF75B
:0C14C000D7FF0837BD4680BD0014014076
:1014CC0000000000010203040102030406070809DE
:0400000508000000EF
:00000001FF
