:020000040800F2
:10000000F0150020AD0700080508000805080008E5
:1000100005080008050800080508000800000000A1
:1000200000000000000000000000000005080008BB
:10003000050800080000000005080008ED0E000893
:10004000050800080508000805080008050800085C
:1000500005080008050800087D0800089908000840
:10006000010900080508000805080008050800083F
:10007000050800080508000805080008050800082C
:10008000050800080508000805080008050800081C
:10009000050800080508000805080008050800080C
:1000A00005080008050800080508000805080008FC
:1000B00005080008050800080508000805080008EC
:1000C00005080008050800080508000805080008DC
:1000D00005080008050800080508000805080008CC
:1000E00005080008050800080508000805080008BC
:1000F00005080008050800080508000805080008AC
:1001000005080008DD0F00080508000805080008BC
:100110006909000805080008050800080508000826
:10012000050800080508000805080008E90F000890
:10013000050800080508000805080008050800086B
:10014000050800080508000805080008050800085B
:1001500005080008050800080508000899090008B6
:10016000050800080508000805080008050800083B
:10017000050800080508000805080008050800082B
:10018000050800080508000890B484B000AF0346D5
:100190000A46FB711346BB710023FB60BB7903F079
:1001A00003039B000F2202FA03F3FB601649BB799D
:1001B0009B08DBB21846144ABB799B08DBB20233BA
:1001C00052F82320FB68DB431A40831C41F82320AC
:1001D0000D48BB799B08DBB21C460B4ABB799B08D8
:1001E000DBB2023352F82320F979BB7903F0030321
:1001F0009B0001FA03F31A43A31C40F82320103795
:10020000BD4690BC704700BF0038014080B485B047
:1002100000AF78600023FB73084B5A6B7B68134078
:10022000002B02D00123FB7301E00023FB73FB7B57
:1002300018461437BD465DF8047B7047002C01401A
:1002400080B483B000AF7860034A7B6893630C3757
:10025000BD465DF8047B7047002C014080B582B03C
:1002600000AF0346FB71084B1B78002B04D1FB79D0
:10027000184600F00BF803E0FB79184600F08EF802
:100280000837BD4680BD00BF9C0B002080B582B002
:1002900000AF0346FB71FB79602B4DD0602B0FDC68
:1002A000202B2DD0202B04DC002B19D0102B1FD09D
:1002B00068E0402B32D0502B37D0302B27D061E074
:1002C000902B4ED0902B04DC702B3CD0802B41D057
:1002D00058E0B02B53D0C02B53D0A02B48D051E0C6
:1002E0002A4B01221A702A48002101F07BFA49E0CA
:1002F000264B00221A702648102101F073FA41E0C3
:10030000244B01221A70244B20221A703AE0214B10
:1003100001221A70204B30221A7033E01D4B01224B
:100320001A701D4B40221A702CE01A4B01221A70D1
:10033000194B50221A7025E0164B01221A70164BE9
:1003400060221A701EE0134B01221A70124B7022A9
:100350001A7017E00F4B01221A700F4B80221A708F
:1003600010E00C4B01221A700B4B90221A7009E01E
:10037000084B01221A70084BA0221A7002E000BF3D
:1003800000E000BF0837BD4680BD00BFA90B0020BC
:10039000004C00409C0B0020A80B002080B582B0D0
:1003A00000AF0346FB71134B1B781946124AFB79C9
:1003B0005354104B1B780133DAB20E4B1A700D4BAD
:1003C0001B78042B12D10B4B00221A700B4B00220E
:1003D0001A70094801F0E0FE02460B461046194625
:1003E00001F08AFE0346184600F00AF80837BD46B9
:1003F00080BD00BF88080020B40B00209C0B0020AB
:1004000080B483B000AF7860234B1B78602B29D079
:10041000602B0BDC302B19D0302B02DC202B11D0C1
:1004200034E0402B16D0502B18D02FE0802B21D059
:10043000802B02DC702B19D028E0902B1ED0A02B33
:1004400020D023E0154A7B6813601FE0144A7B68C4
:1004500013601BE0134A7B68136017E0124A7B6845
:10046000136013E0114A7B6813600FE0104A7B6849
:1004700013600BE00F4A7B68136007E00E4A7B684D
:10048000136003E00D4A7B68136000BF0C37BD4664
:100490005DF8047B704700BFA80B00205C090020BA
:1004A000A40B0020BC0B0020A00B0020580900204A
:1004B000980B0020E40D0020B80B0020500900200C
:1004C00080B483B000AF0346FB710C37BD465DF8C6
:1004D000047B704780B58AB000AF78603960002334
:1004E0007B6200233B620023FB610023BB617B68CE
:1004F0001B8A9BB27B627B6A23F440537B623B681E
:10050000DB881A467B6A13437B627B6A9AB27B68FC
:100510001A827B689B899BB27B627B6A23F4B0530F
:1005200023F00C037B623B689A883B681B8913436A
:100530009AB23B685B8913439BB21A467B6A1343AA
:100540007B627B6A9AB27B689A817B689B8A9BB24A
:100550007B627B6A23F440737B623B689B891A460B
:100560007B6A13437B627B6A9AB27B689A8207F14B
:100570000803184600F028FA7B68314A934203D0FA
:100580007B68304A934202D17B693B6201E03B6960
:100590003B627B689B899BB29BB21BB2002B0CDA3F
:1005A0003A6A13469B0013449A001A443B681B683E
:1005B0005B00B2FBF3F3FB610BE03A6A13469B006E
:1005C00013449A001A443B681B689B00B2FBF3F388
:1005D000FB61FB691C4AA2FB03235B091B017B62D5
:1005E0007B6A1B09642202FB03F3FA69D31ABB611D
:1005F0007B689B899BB29BB21BB2002B0CDABB6958
:10060000DB003233104AA2FB03235B0903F007032C
:100610007A6A13437B620BE0BB691B0132330A4ADF
:10062000A2FB03235B0903F00F037A6A13437B6287
:100630007B6A9AB27B681A812837BD4680BD00BFAD
:1006400000100140001401401F85EB5180B483B0BD
:1006500000AF78600B46FB70FB78002B08D07B68FE
:100660009B899BB243F400539AB27B689A8107E05E
:100670007B689B899BB223F400539AB27B689A8172
:100680000C37BD465DF8047B704700BF80B483B073
:1006900000AF78607B689B889BB2C3F308039BB272
:1006A00018460C37BD465DF8047B704780B487B0B0
:1006B00000AF78600B467B8013467B7000233B6164
:1006C0000023FB600023BB6000237B617B687B61B0
:1006D0007B88DBB25B09DBB23B617B8803F01F03E5
:1006E000FB60FB68012202FA03F3BB603B69012B4C
:1006F00003D17B690C337B6109E03B69022B03D199
:100700007B6910337B6102E07B6914337B617B780A
:10071000002B06D07B697A691168BA680A431A60AF
:1007200006E07B697A691168BA68D2430A401A60A8
:100730001C37BD465DF8047B704700BF80B485B0B0
:1007400000AF78600B467B800023FB737B681B88BF
:100750009AB27B8813409BB2002B02D00123FB731B
:1007600001E00023FB73FB7B18461437BD465DF8A0
:10077000047B704780B485B000AF78600B467B8007
:100780000023FB810023BB817B881B0AFB81FB8943
:10079000012202FA03F3BB81BB89DB439AB27B6877
:1007A0001A801437BD465DF8047B704780B582B06F
:1007B00000AF0F4B7B600F4B3B6007E03B681A1D9F
:1007C0003A607A68111D796012681A603B680A4ABB
:1007D0009342F3D309480A494FF000028842B8BF58
:1007E00040F8042BFADB00F011F80837BD4680BD55
:1007F000604E0008000000208408002088080020C7
:10080000EC0D002080B400AFFEE700BF80B58AB0D9
:1008100000AF00F083FD07F12003184600F088FACE
:1008200007F11003184600F071FF07F1080318469E
:1008300000F062FC3B1D184600F0E2F900F068FD94
:10084000012000F043FB094B00221A70084BD3E94A
:100850000023104619464FF00002064B01F092F9B2
:1008600002460B460449C1E90023EFE7A90B00202B
:1008700090080020008076409808002080B500AFE6
:10088000012000F0B1FE0346002B02D0012000F051
:10089000CFFE80BD0000000080B500AF022000F058
:1008A000A3FE0346002B1CD0114B1B78002B12D14A
:1008B000104B01221A70104BD3E900231046194641
:1008C00009A3D3E9002300F0ABFF02460B460A4917
:1008D000C1E9002302E0064B00221A70022000F05A
:1008E000A7FE80BDAFF300802D431CEBE2363A3FFC
:1008F000A1080020A008002090080020AFF300808D
:1009000080B500AF042000F06FFE0346002B1CD022
:10091000114B1B78002B12D1104B01221A70104B77
:10092000D3E900231046194609A3D3E9002300F0B8
:1009300075FF02460B460A49C1E9002302E0064B57
:1009400000221A70042000F073FE80BDAFF3008017
:100950002D431CEBE2363A3FA0080020A1080020FE
:1009600090080020AFF3008080B500AF0948202137
:10097000FFF7E4FE0346002B06D00648FFF786FE8D
:1009800003461846FFF76AFC024840F22551FFF77C
:10099000F1FE80BD004C004080B500AF0948202129
:1009A000FFF7CCFE0346002B06D00648FFF76EFE8D
:1009B00003461846FFF784FD024840F22551FFF731
:1009C000D9FE80BD0014014080B489B000AF7860CA
:1009D0000023BB6100237B610023FB6102233B6199
:1009E0000023FB600223BB60484B9B6803F00C03B1
:1009F000BB61BB69042B07D0082B09D0002B3FD16A
:100A00007B68434A1A603FE07B68424A1A603BE0D9
:100A10003E4B5B6803F480039B0DFB603B4B5B68C4
:100A200003F03F03BB60FB68002B0DD0394ABB6865
:100A3000B2FBF3F2354B596847F6C0730B409B0984
:100A400003FB02F3FB610CE0314ABB68B2FBF3F23B
:100A50002E4B596847F6C0730B409B0903FB02F30A
:100A6000FB612A4B5B6803F440331B0C01335B00D2
:100A70003B61FA693B69B2FBF3F27B681A6003E001
:100A80007B68234A1A6000BF204B9B6803F0F00389
:100A9000BB61BB691B09BB611F4ABB6913441B785F
:100AA000DBB27B617B681A687B69DA407B685A60DD
:100AB000164B9B6803F4E053BB61BB699B0ABB61A7
:100AC000154ABB6913441B78DBB27B617B685A68AB
:100AD0007B69DA407B689A600C4B9B6803F4604347
:100AE000BB61BB695B0BBB610B4ABB6913441B78E1
:100AF000DBB27B617B685A687B69DA407B68DA60CD
:100B00002437BD465DF8047B704700BF00380240C3
:100B10000024F40000127A000000002080B483B0AA
:100B200000AF78600B46FB70FB78002B06D00949BC
:100B3000084B1A6B7B6813430B6306E00549054BB2
:100B40001A6B7B68DB4313400B630C37BD465DF8C3
:100B5000047B70470038024080B483B000AF7860F7
:100B60000B46FB70FB78002B06D00949084B1A6C2A
:100B70007B6813430B6406E00549054B1A6C7B68E0
:100B8000DB4313400B640C37BD465DF8047B7047B4
:100B90000038024080B483B000AF78600B46FB7031
:100BA000FB78002B06D00949084B5A6C7B6813432D
:100BB0004B6406E00549054B5A6C7B68DB431340E8
:100BC0004B640C37BD465DF8047B7047003802402B
:100BD00080B483B000AF0346FB71084997F9073032
:100BE0005B09FA7902F01F02012000FA02F241F8D3
:100BF00023200C37BD465DF8047B704700E100E020
:100C000080B582B000AF7860786800F011F878683D
:100C100000F024F8786800F037F8786800F04AF8B7
:100C2000786800F05DF800F071F80837BD4680BDC7
:100C300080B582B000AF78607B6806221A707B684E
:100C400000225A707B6800229A707B680122DA7059
:100C5000786800F0FBFC0837BD4680BD80B582B0E7
:100C600000AF78607B6807221A707B6800225A7098
:100C70007B6800229A707B680122DA70786800F045
:100C8000E5FC0837BD4680BD80B582B000AF786016
:100C90007B6808221A707B6800225A707B680022E9
:100CA0009A707B680122DA70786800F0CFFC083710
:100CB000BD4680BD80B582B000AF78607B683422CD
:100CC0001A707B680122DA707B6800225A707B6898
:100CD00000229A70786800F0B9FC0837BD4680BDE4
:100CE00080B582B000AF78607B6847221A707B685D
:100CF0000122DA707B6800225A707B6800229A70A9
:100D0000786800F0A3FC0837BD4680BD80B500AF11
:100D10000620FFF75DFF0720FFF75AFF0820FFF7C7
:100D200057FF3420FFF754FF4720FFF751FF80BDE6
:100D300080B582B000AF7860786800F00DF8786810
:100D400000F044F8786800F061F8786800F09CF8EA
:100D50000837BD4680BD00BF80B582B000AF786067
:100D600001200121FFF7DAFE17480021082200F0D8
:100D700087FA15480121082200F082FA124805215D
:100D8000052200F07DFA10480621052200F078FACD
:100D90000D480721052200F073FA7B68E3221A60F0
:100DA0007B6802221A717B6800229A717B68032299
:100DB0005A717B680122DA710348796800F0C4F93E
:100DC0000837BD4680BD00BF0000024080B582B03C
:100DD00000AF786002200121FFF7A0FE7B68FF22B0
:100DE0001A607B6801221A717B6800229A717B6805
:100DF00000225A717B680122DA710348796800F099
:100E0000A3F90837BD4680BD0004024080B582B01A
:100E100000AF786004200121FFF780FE1948062109
:100E2000082200F02DFA17480721082200F028FABE
:100E30007B68C0221A607B6802221A717B680022DC
:100E40009A717B6803225A717B680122DA710D481E
:100E5000796800F079F97B6807221A607B680022C4
:100E60001A717B6800229A717B6803225A717B6831
:100E70000122DA710348796800F066F90837BD4647
:100E800080BD00BF0008024080B582B000AF78602E
:100E900010200121FFF742FE7B684FF478421A6070
:100EA0007B6800221A717B6800229A717B6800229D
:100EB0005A717B680122DA710348796800F044F9BD
:100EC0000837BD4680BD00BF0010024080B582B02B
:100ED00000AF0346FB80FB880348194600F0C2F9C7
:100EE0000837BD4680BD00BF0004024080B582B017
:100EF00000AF374B1B680133354A1360354B1B6815
:100F0000002B04D0334B1B68013B324A1360AFF314
:100F100000800023FB7152E0FB792F4A9B001344B1
:100F20005B68002B48D0FB792B4A9B0013445B681D
:100F30001B7B002B40D0FB79274A9B0013445B6846
:100F40009B68002B38D0FB79234A9B0013445B68D5
:100F50009A68013A9A60FB791F4A9B0013445B68C8
:100F60009B68002B28D1FB791B4A9B0013445B68CC
:100F70001A69FB7918499B000B445B685B6918464A
:100F80009047FB79144A9B0013445A68FB79124935
:100F90009B000B445B681B689360FB790E4A9B00C7
:100FA00013445B685B68002B06D1FB790A4A9B00FF
:100FB00013445B6800221A73FB790133FB71064B03
:100FC0001B78FA799A42A7D30837BD4680BD00BF87
:100FD000AC080020B0080020B808002080B500AFA1
:100FE00000F008F880BD00BF80B500AF00F06CF8DD
:100FF00080BD00BF80B500AF4FF48070FFF706F9E9
:101000000346002B0AD02D4B00221A704FF480703B
:10101000FFF716F92A4B01221A6041E00220FFF780
:10102000F5F80346002B06D00220FFF709F9234B01
:1010300002221A7034E00820FFF7E8F80346002B7C
:1010400006D00820FFF7FCF81C4B04221A7027E09A
:101050002020FFF7DBF80346002B06D02020FFF707
:10106000EFF8164B06221A701AE01020FFF7CEF8A0
:101070000346002B06D01020FFF7E2F80F4B0522A5
:101080001A700DE04FF40070FFF7C0F80346002B14
:1010900006D04FF40070FFF7D3F8084B07221A7000
:1010A000084A084BDB6B23F4434323F03A03D36332
:1010B000024B1B78DBB2184680BD00BF0C09002034
:1010C00010090020002C014080B500AF074B1B68C1
:1010D00003F0C053002B07D0054B01221A600548CE
:1010E0004FF0C25100F0E0F980BD00BF0064024043
:1010F000140900205864024080B582B000AF7860C7
:101100004FF480400121FFF745FD02200021FFF749
:101110003BF802200121FFF737F802200221FFF7F8
:1011200033F87B6807221A607B6801229A717B681A
:1011300000221A717B6808225A71786800F0E2F97F
:101140000837BD4680BD00BF80B487B000AF78606F
:10115000396000237B6100233B610023FB60002397
:101160007B6176E07B69012202FA03F33B613B6815
:101170001A683B691340FB60FA683B699A4265D183
:101180007B681A687B695B00194603238B40DB434D
:101190001A407B681A607B681A683B681B7919469D
:1011A0007B695B0001FA03F31A437B681A603B68B2
:1011B0001B79012B03D03B681B79022B2ED17B6856
:1011C0009A687B695B00194603238B40DB431A4016
:1011D0007B689A607B689A683B685B7919467B6993
:1011E0005B0001FA03F31A437B689A607B685A68D4
:1011F0007B699BB2194601238B40DB431A407B6815
:101200005A607B685B683A68927911467A6992B253
:1012100001FA02F292B21A437B685A607B68DA687C
:101220007B699BB25B00032101FA03F3DB431A40A5
:101230007B68DA607B68DA683B68DB7919467B6932
:101240005B0001FA03F31A437B68DA607B690133C0
:101250007B617B690F2B85D91C37BD465DF8047B0C
:10126000704700BF80B483B000AF78600B467B80CE
:101270007B687A881A830C37BD465DF8047B70471B
:1012800080B485B000AF78600B467B8013467B70DE
:101290000023FB600023BB607B787A8802F00702A2
:1012A00092009340FB607B88DB089BB218467B88EA
:1012B000DB089BB21A467B68083253F822207B88F1
:1012C00003F007039B0019460F238B40DB4302EA20
:1012D00003017B6800F1080243F822107B88DB08D9
:1012E0009BB21A467B68083253F82220FB681343EE
:1012F000BB607B88DB089BB21A467B680832B96802
:1013000043F822101437BD465DF8047B704700BFD8
:1013100080B400AFBD465DF8047B704780B500AF78
:10132000114A114B1B6843F0010313600E4B00225E
:101330009A600D4A0C4B1B6823F0847323F48033AE
:101340001360094B094A5A60074A074B1B6823F48C
:1013500080231360044B0022DA6000F00BF8044B8A
:101360004FF000629A6080BD0038024010300024C7
:1013700000ED00E080B483B000AF00237B60002369
:101380003B60354A344B1B6843F480331360324B67
:101390001B6803F400333B607B6801337B603B6870
:1013A000002B03D17B68B3F5A06FF0D12A4B1B68EB
:1013B00003F40033002B02D001233B6001E0002343
:1013C0003B603B68012B42D1234A234B1B6C43F00B
:1013D00080531364214A214B1B6843F480431360FC
:1013E0001D4A1D4B9B6893601B4A1B4B9B6843F433
:1013F00000439360184A184B9B6843F4A0539360D2
:10140000154B174A5A60144A134B1B6843F08073FC
:10141000136000BF104B1B6803F00073002BF9D062
:10142000104B40F205621A600B4A0B4B9B6823F08D
:1014300003039360084A084B9B6843F002039360E0
:1014400000BF054B9B6803F00C03082BF9D10C3748
:10145000BD465DF8047B70470038024000700040D4
:1014600008544007003C024080B485B000AF78606B
:101470000B4B1B68002B02D1094B0A4A1A60084B20
:101480001B68FB60064B1A687B681344044A1360B0
:10149000FB6818461437BD465DF8047B704700BFF3
:1014A00018090020EC0D002080B485B000AF7860F2
:1014B00039607B68104A934202D8104BFB6001E010
:1014C0000F4BFB603B6803F00053002B07D03B68D9
:1014D00023F0F02323F08213FA68D36006E03B6820
:1014E00023F0F02323F08213FA6893601437BD468B
:1014F0005DF8047B704700BF0F640240006002404B
:101500000064024080B485B000AF78600023FB60C7
:10151000344BFB607B689B79002B4FD03149314BBA
:101520001A687B681B68DB4313400B602D492D4B09
:101530005A687B681B68DB4313404B607B681B79F0
:101540001A46FB681344FB60FB68FA6811687A6806
:1015500012680A431A602349224B9A687B681B6809
:10156000DB4313408B601F491E4BDA687B681B68A6
:10157000DB431340CB607B685B79102B0ED119499C
:10158000184B9A687B681B6813438B601549154B91
:10159000DA687B681B681343CB601DE0114BFB606E
:1015A0007B685B791A46FB681344FB60FB68FA684A
:1015B00011687A6812680A431A600DE07B681B792B
:1015C0001A46FB681344FB60FB68FA6811687A6886
:1015D0001268D2430A401A601437BD465DF8047B96
:1015E000704700BF003C014080B485B000AF786018
:1015F0000023FB730023BB600C4B1A687B6813400D
:10160000BB600A4B5A697B681340002B05D0BB684E
:10161000002B02D00123FB7301E00023FB73FB7B53
:1016200018461437BD465DF8047B7047003C014006
:1016300080B483B000AF7860034A7B6853610C3795
:10164000BD465DF8047B7047003C014080B485B026
:1016500000AF78600023FB730023BB730F237B7301
:101660007B68DB78002B38D0264BDB68DB4303F448
:10167000E0631B0AFB73FB7BC3F10403BB737A7B40
:10168000FB7B42FA03F37B737B685B781A46BB7B78
:1016900002FA03F3FB737B689A787B7B1340DAB220
:1016A000FB7B1343FB73FB7B1B01FB73164A7B68BD
:1016B0001B781344FA7B83F80023134A7B681B785A
:1016C0005B09DBB218467B681B7803F01F0301211E
:1016D00001FA03F342F820300FE00B497B681B78D6
:1016E0005B09DBB218467B681B7803F01F030122FD
:1016F0009A4000F1200341F823201437BD465DF8DD
:10170000047B704700ED00E000E100E080B582B0AE
:1017100000AF7860786800F007F8786800F034F877
:101720000837BD4680BD00BF80B582B000AF78608D
:101730004FF400200121FFF70FFA12480121FEF7B4
:1017400085FF7B684FF416521A607B680C225A8121
:101750007B6800221A817B680022DA807B68002285
:101760009A807B6800229A8106487968FEF7B2FE6B
:10177000044840F225510122FEF798FF0837BD4684
:1017800080BD00BF004C004080B582B000AF7860E3
:1017900020200121FFF7FEF911480121FEF756FF35
:1017A0007B684FF416521A607B680C225A817B6862
:1017B00000221A817B680022DA807B6800229A80EE
:1017C0007B6800229A8106487968FEF783FE044808
:1017D00040F225510122FEF769FF0837BD4680BD62
:1017E0000014014080B483B000AF78600B46FB70FA
:1017F00000BF7B681B889BB203F08003002BF8D0EE
:10180000FB789AB27B689A800C37BD465DF8047B02
:10181000704700BF81F0004102E000BF83F0004349
:1018200030B54FEA41044FEA430594EA050F08BF7B
:1018300090EA020F1FBF54EA000C55EA020C7FEA3F
:10184000645C7FEA655C00F0E2804FEA5454D4EBBC
:101850005555B8BF6D420CDD2C4480EA020281EA86
:10186000030382EA000083EA010180EA020281EABE
:101870000303362D88BF30BD11F0004F4FEA013110
:101880004FF4801C4CEA113102D0404261EB41011F
:1018900013F0004F4FEA03334CEA133302D05242A5
:1018A00063EB430394EA050F00F0A780A4F1010461
:1018B000D5F1200E0DDB02FA0EFC22FA05F280189B
:1018C00041F1000103FA0EF2801843FA05F3594181
:1018D0000EE0A5F120050EF1200E012A03FA0EFC00
:1018E00028BF4CF0020C43FA05F3C01851EBE3712A
:1018F00001F0004507D54FF0000EDCF1000C7EEB47
:1019000000006EEB0101B1F5801F1BD3B1F5001F84
:101910000CD349085FEA30004FEA3C0C04F10104A3
:101920004FEA445212F5800F80F09A80BCF1004FCC
:1019300008BF5FEA500C50F1000041EB045141EA4E
:10194000050130BD5FEA4C0C404141EB010111F44F
:10195000801FA4F10104E9D191F0000F04BF0146FA
:101960000020B1FA81F308BF2033A3F10B03B3F1D8
:1019700020020CDA0C3208DD02F1140CC2F10C0268
:1019800001FA0CF021FA02F10CE002F11402D8BFC6
:10199000C2F1200C01FA02F120FA0CFCDCBF41EA92
:1019A0000C019040E41AA2BF01EB0451294330BD61
:1019B0006FEA04041F3C1CDA0C340EDC04F114043E
:1019C000C4F1200220FA04F001FA02F340EA030015
:1019D00021FA04F345EA030130BDC4F10C04C4F15B
:1019E000200220FA02F001FA04F340EA030029463B
:1019F00030BD21FA04F0294630BD94F0000F83F485
:101A0000801306BF81F480110134013D4EE77FEA67
:101A1000645C18BF7FEA655C29D094EA050F08BFB3
:101A200090EA020F05D054EA000C04BF1946104694
:101A300030BD91EA030F1EBF0021002030BD5FEAD8
:101A4000545C05D14000494128BF41F0004130BD00
:101A500014F580043CBF01F5801130BD01F0004554
:101A600045F0FE4141F470014FF0000030BD7FEAC7
:101A7000645C1ABF194610467FEA655C1CBF0B46C2
:101A8000024650EA013406BF52EA033591EA030FD9
:101A900041F4002130BD00BF90F0000F04BF0021D1
:101AA000704730B54FF4806404F132044FF0000504
:101AB0004FF0000150E700BF90F0000F04BF00217D
:101AC000704730B54FF4806404F1320410F00045E3
:101AD00048BF40424FF000013EE700BF42004FEADE
:101AE000E2014FEA31014FEA02701FBF12F07F435B
:101AF00093F07F4F81F06051704792F0000F14BF58
:101B000093F07F4F704730B54FF4607401F000459B
:101B100021F0004120E700BF50EA010208BF7047F2
:101B200030B54FF000050AE050EA010208BF7047E7
:101B300030B511F0004502D5404261EB41014FF450
:101B4000806404F132045FEA915C3FF4DCAE4FF054
:101B500003025FEADC0C18BF03325FEADC0C18BF3B
:101B6000033202EBDC02C2F1200300FA03FC20FA8C
:101B700002F001FA03FE40EA0E0021FA02F11444D9
:101B8000C1E600BF70B54FF0FF0C4CF4E06C1CEAEE
:101B900011541DBF1CEA135594EA0C0F95EA0C0F63
:101BA00000F0DEF82C4481EA030621EA4C5123EAD6
:101BB0004C5350EA013518BF52EA033541F4801105
:101BC00043F4801338D0A0FB02CE4FF00005E1FBB8
:101BD00002E506F00042E0FB03E54FF00006E1FB02
:101BE00003569CF0000F18BF4EF0010EA4F1FF0445
:101BF000B6F5007F64F5407404D25FEA4E0E6D4185
:101C000046EB060642EAC62141EA55514FEAC52095
:101C100040EA5E504FEACE2EB4F1FD0C88BFBCF511
:101C2000E06F1ED8BEF1004F08BF5FEA500E50F1C2
:101C3000000041EB045170BD06F0004646EA010188
:101C400040EA020081EA0301B4EB5C04C2BFD4EBBA
:101C50000C0541EA045170BD41F480114FF0000EB3
:101C6000013C00F3AB8014F1360FDEBF002001F021
:101C7000004170BDC4F10004203C35DA0C341BDC9B
:101C800004F11404C4F1200500FA05F320FA04F06D
:101C900001FA05F240EA020001F0004221F00041A1
:101CA00010EBD37021FA04F642EB06015EEA430E14
:101CB00008BF20EAD37070BDC4F10C04C4F1200544
:101CC00000FA04F320FA05F001FA04F240EA0200F7
:101CD00001F0004110EBD37041F100015EEA430EC8
:101CE00008BF20EAD37070BDC4F1200500FA05F2E8
:101CF0004EEA020E20FA04F301FA05F243EA020367
:101D000021FA04F001F0004121FA04F220EA020075
:101D100000EBD3705EEA430E08BF20EAD37070BDBB
:101D200094F0000F0FD101F00046400041EB01019B
:101D300011F4801F08BF013CF7D041EA060195F07D
:101D4000000F18BF704703F00046520043EB030337
:101D500013F4801F08BF013DF7D043EA0603704724
:101D600094EA0C0F0CEA135518BF95EA0C0F0CD02F
:101D700050EA410618BF52EA4306D1D181EA030175
:101D800001F000414FF0000070BD50EA410606BF6F
:101D90001046194652EA430619D094EA0C0F02D1B4
:101DA00050EA013613D195EA0C0F05D152EA0336F9
:101DB0001CBF104619460AD181EA030101F0004117
:101DC00041F0FE4141F470014FF0000070BD41F060
:101DD000FE4141F4780170BD70B54FF0FF0C4CF43A
:101DE000E06C1CEA11541DBF1CEA135594EA0C0F59
:101DF00095EA0C0F00F0A7F8A4EB050481EA030EA6
:101E000052EA03354FEA013100F088804FEA03338C
:101E10004FF0805545EA131343EA12634FEA02225A
:101E200045EA111545EA10654FEA00260EF000411B
:101E30009D4208BF964244F1FD0404F5407402D26D
:101E40005B084FEA3202B61A65EB03055B084FEAFE
:101E500032024FF480104FF4002CB6EB020E75EBFB
:101E6000030E22BFB61A754640EA0C005B084FEA23
:101E70003202B6EB020E75EB030E22BFB61A7546A0
:101E800040EA5C005B084FEA3202B6EB020E75EBEB
:101E9000030E22BFB61A754640EA9C005B084FEA63
:101EA0003202B6EB020E75EB030E22BFB61A754670
:101EB00040EADC0055EA060E18D04FEA051545EA5F
:101EC00016754FEA06164FEAC30343EA52734FEA08
:101ED000C2025FEA1C1CC0D111F4801F0BD141EA81
:101EE00000014FF000004FF0004CB6E711F4801FE6
:101EF00004BF01430020B4F1FD0C88BFBCF5E06FC6
:101F00003FF6AFAEB5EB030C04BFB6EB020C5FEAD5
:101F1000500C50F1000041EB045170BD0EF0004E2A
:101F20004EEA113114EB5C04C2BFD4EB0C0541EA5C
:101F3000045170BD41F480114FF0000E013C90E659
:101F400045EA060E8DE60CEA135594EA0C0F08BF1D
:101F500095EA0C0F3FF43BAF94EA0C0F0AD150EA1C
:101F600001347FF434AF95EA0C0F7FF425AF1046AF
:101F700019462CE795EA0C0F06D152EA03353FF4D7
:101F8000FDAE1046194622E750EA410618BF52EA54
:101F900043067FF4C5AE50EA41047FF40DAF52EA28
:101FA00043057FF4EBAE12E74FF0FF3C06E000BFC5
:101FB0004FF0010C02E000BF4FF0010C4DF804CDD2
:101FC0004FEA410C7FEA6C5C4FEA430C18BF7FEA92
:101FD0006C5C1BD001B050EA410C0CBF52EA430CC0
:101FE00091EA030F02BF90EA020F0020704710F140
:101FF000000F91EA030F58BF994208BF90422CBFCF
:10200000D8176FEAE37040F0010070474FEA410CC7
:102010007FEA6C5C02D150EA013C07D14FEA430CE5
:102020007FEA6C5CD6D152EA033CD3D05DF8040B56
:10203000704700BF8446104662468C461946634688
:1020400000E000BF01B5FFF7B7FF002848BF10F15F
:10205000000F01BD4DF808EDFFF7F4FF0CBF0120A4
:1020600000205DF808FB00BF4DF808EDFFF7EAFF20
:1020700034BF012000205DF808FB00BF4DF808EDDB
:10208000FFF7E0FF94BF012000205DF808FB00BFD0
:102090004DF808EDFFF7CEFF94BF012000205DF85A
:1020A00008FB00BF4DF808EDFFF7C4FF34BF012067
:1020B00000205DF808FB00BF4A0011D212F50012A3
:1020C00011D20DD56FF47873B3EB62520ED44FEA90
:1020D000C12343F0004343EA505323FA02F0704710
:1020E0004FF00000704750EA013002D14FF0FF304E
:1020F00070474FF0000070474FEA4102B2F1E043F1
:1021000024BFB3F5001CDCF1FE5C0DD901F0004CDE
:102110004FEAC0024CEA5070B2F1004F40EB83002E
:1021200008BF20F00100704711F0804F21D113F15A
:102130003872BCBF01F00040704741F480114FEA93
:102140005252C2F11802C2F1200C10FA0CF320FA1C
:1021500002F018BF40F001004FEAC1234FEAD32339
:1021600003FA0CFC40EA0C0023FA02F34FEA4303A3
:10217000CCE77FEA625307D150EA01331EBF4FF02C
:10218000FE4040F44000704701F0004040F0FE4047
:1021900040F40000704700BF002101F075BB00BF94
:1021A0002DE9F04F01F10B05162D83B0064627D916
:1021B00035F0070500F1B680A94200F2B38000F0C7
:1021C00069FBB5F5FC7F22D2C24FE80807EBC003DC
:1021D000DC689C4200F0C8816368E168A56823F070
:1021E0000303234430465A68E96042F001028D60DF
:1021F0005A6000F051FB0834204603B0BDE8F08F70
:10220000102900F28F8000F045FB1025DCE7680AFA
:1022100000F08F80042800F25481A8093830410072
:10222000AC4F07EB8101CC68A14206D10CE0002A3B
:1022300080F28280E468A14206D0636823F0030341
:102240005A1B0F2AF3DD01380130A2493C6901F124
:10225000080E744500F07D81636823F003035A1B68
:102260000F2A00F36381002AC1F814E0C1F810E0DE
:1022700073DAB3F5007F80F03981DB0801EBC30826
:102280004FEAA30C4A68D8F80890C4F808900123D4
:1022900003FA0CF31343C4F80C804B60C8F80840F1
:1022A000C9F80C408210012494409C4262D8234219
:1022B00006D120F003006400234200F10400FAD0AC
:1022C00007EBC008C4468146DCF80C309C4507D1BA
:1022D00041E1002980F25181DB689C4500F03B819F
:1022E0005A6822F00302511B0F29F2DD1C46D3F875
:1022F0000CC054F8088F5A1945F0010941F0010546
:10230000C3F804903046C8F80CC0CCF808807A6155
:102310003A61C2F80CE0C2F808E05560515000F094
:10232000BBFA69E700240C232046336003B0BDE804
:10233000F08F7E213F2073E72344E1685A68A56847
:1023400042F00102E96030468D605A6000F0A4FA64
:102350000834204603B0BDE8F08F234430465A6865
:1023600042F001025A6000F097FA0834204603B0A8
:10237000BDE8F08FBC68636823F00308454504D8C6
:10238000C5EB08030F2B00F38C80534BDFF858A1EB
:102390001A68DAF8003001332A4404EB080B00F025
:1023A000508102F580520F3222F47F6222F00F0238
:1023B00011463046019200F071FAB0F1FF3F8146BC
:1023C000019A00F04781834500F2EE80434B196883
:1023D000CB451144196000F04281DAF80000DFF8C3
:1023E00008E101301BBFCBEB090B5944CEF800903C
:1023F000196019F0070100F00781C1F10800C1F56B
:102400008051814408314A44C2F30B02C2EB010AF5
:1024100051463046019300F041FA431C019B00F005
:102420002C81C9EB0002524442F001021968C7F83E
:1024300008905144BC42C9F804201960DFF89CA000
:1024400016D0B8F10F0F40F2EE806268A8F10C03CD
:1024500023F00703E01802F001024FF0050E1A43C3
:102460000F2B6260C0F804E0C0F808E000F20981B8
:102470001B4BBC681A68914288BF1960194B1A68D7
:102480009142626888BF196022F003029542A2EB74
:10249000050301D80F2B04DC304600F0FDF90024C1
:1024A000AAE6621943F0010345F001056560304674
:1024B000BA60536000F0F0F90834204603B0BDE87C
:1024C000F08F142868D9542800F29780280B6E30BA
:1024D0004100A5E610000020240900202809002062
:1024E000200900201C0900201C0400205A0A042A8C
:1024F00055D9142A00F2A7805B324FEA420C07EB51
:102500008C0CDFF8BC81DCF8081061457FD04A688C
:1025100022F00302934202D289688C45F7D1CA683F
:102520007B68E260A1609460CC60BBE6631942F016
:10253000010745F00105656030464B610B61C3F84A
:102540000CE0C3F808E05F609A50083400F0A4F98A
:1025500052E64B68A6E609F1010919F0030F0CF1E8
:10256000080C7FF4B1AE2CE004F108036469A342C7
:1025700008BF02303FF469AE2EE61A441C4651688B
:10258000DB6854F8085F41F0010151603046EB60B0
:102590009D6000F081F92FE65B30410040E69A092A
:1025A00038324FEA420CAAE7BC42454B3FF40EAF2B
:1025B0009C68626822F0030268E7D8F800809845BA
:1025C0007CD110F0030FA8F1080300F1FF30F4D123
:1025D0007B6823EA04037B6064009C423FF6CAAE3A
:1025E000002C3FF4C7AE234248467FF469AE640036
:1025F000234200F10400FAD062E6B0F5AA7F18D8B1
:10260000E80B773041000BE64FF48051FBE6D8F839
:10261000043092104FF0010C0CFA02F21343C8F888
:1026200004300A467DE70123C9F804304C460022F5
:102630002CE740F2545398421CD8A80C7C3041003F
:10264000EEE51032B4E6542A23D81A0B6E324FEA64
:10265000420C54E7BC68626822F0030216E7CBF331
:102660000B0000287FF4B9AE4244BB6842F001027F
:102670005A60FDE6FC217E20D2E501224FF0000ADF
:10268000D4E604F10801304601F054F9DAF80010FC
:10269000EEE6B2F5AA7F04D8DA0B77324FEA420CA5
:1026A0002DE740F254518A4204D89A0C7C324FEA0A
:1026B000420C24E74FF0FC0C7E2220E77B688BE77E
:1026C00010000020844641EA000313F003036DD19B
:1026D000403A41D351F8043B40F8043B51F8043BE5
:1026E00040F8043B51F8043B40F8043B51F8043BEC
:1026F00040F8043B51F8043B40F8043B51F8043BDC
:1027000040F8043B51F8043B40F8043B51F8043BCB
:1027100040F8043B51F8043B40F8043B51F8043BBB
:1027200040F8043B51F8043B40F8043B51F8043BAB
:1027300040F8043B51F8043B40F8043B51F8043B9B
:1027400040F8043B51F8043B40F8043B51F8043B8B
:1027500040F8043B403ABDD2303211D351F8043B2B
:1027600040F8043B51F8043B40F8043B51F8043B6B
:1027700040F8043B51F8043B40F8043B103AEDD2DA
:102780000C3205D351F8043B40F8043B043AF9D22B
:10279000043208D0D2071CBF11F8013B00F8013BFE
:1027A00001D30B8803806046704700BF082A13D30B
:1027B0008B078DD010F003038AD0C3F10403D21A23
:1027C000DB071CBF11F8013B00F8013B80D331F857
:1027D000023B20F8023B7BE7043AD9D3013A11F8D7
:1027E000013B00F8013BF9D20B7803704B78437042
:1027F0008B7883706046704770B4840746D0541E4F
:10280000002A41D0CDB2034602E0621EE4B3144672
:1028100003F8015B9A07F8D1032C2ED9CDB245EA13
:1028200005250F2C45EA054519D903F11002264666
:10283000103E0F2E42F8105C42F80C5C42F8085C27
:1028400042F8045C02F11002F2D8A4F1100222F066
:102850000F0204F00F041032032C13440DD91E464E
:102860002246043A032A46F8045BFAD8221F22F0D3
:1028700003020432134404F003042CB1C9B21C4413
:1028800003F8011BA342FBD170BC704714460346FA
:10289000C2E700BF704700BF704700BF38B5074CA4
:1028A0000023054608462360FEF7DEFD431C00D0EA
:1028B00038BD2368002BFBD02B6038BDE80D00200D
:1028C00020F0030110F00300C0F1000051F8043BB8
:1028D00000F1040C4FEACC0C6FF000021CBF22FA8E
:1028E0000CF213434FF0010C4CEA0C2C4CEA0C4C4C
:1028F000A3EB0C0222EA030212EACC1204BF51F845
:10290000043B0430F4D0C2F1000102EA0102B2FA41
:1029100082F2C2F11F0200EBD20070472DE9F041B4
:102920000F46904601F062FF04460D46B8F1000FD5
:1029300011D0C7F30A53C3F16B03002B0BDD1B054A
:1029400003F17F55002405F5401522462B46FFF77D
:1029500019F9BDE8F08120462946BDE8F08100BFA5
:102960002DE9F04F9FB00F46002183461A910020B9
:102970000021CDE90401199703923B461C4613F848
:10298000016B2D2E00F2EF80DFE816F02E00ED0037
:10299000ED00ED00ED00ED00ED00ED00ED00DC00E0
:1029A000DC00DC00DC00DC00ED00ED00ED00ED0003
:1029B000ED00ED00ED00ED00ED00ED00ED00ED00AF
:1029C000ED00ED00ED00ED00ED00ED00DC00ED00B0
:1029D000ED00ED00ED00ED00ED00ED00ED00ED008F
:1029E000ED004400ED00D900039B4FF000084FF0CC
:1029F000000953B100230693039B1F60069B23B17C
:102A0000414609F1004388469946404649461FB071
:102A1000BDE8F08F00230693631C19936678002E9F
:102A2000E2D0302E1C4600F0A380002308940A93C5
:102A3000A6F130034FF0000A092B554623465446B1
:102A400019D8082CC8BF0AEB8A0A05EB850203F1E6
:102A5000010306EB42021993C4BF06EB4A06A6F136
:102A6000300A1E78D8BFA2F13005A6F13002092A3B
:102A700004F10104E5D95846079301F0CFFBD0F8E3
:102A80000080584601F0CAFB0068FFF719FF079B5A
:102A900002464146184602F007F88046002800F03A
:102AA000E380002084468646A146652E72D0452EDE
:102AB00070D00023B9F1000F46D0B9F1100FCCEB64
:102AC00003032846C8460793A8BF4FF01008FEF737
:102AD000E3FF002C08BF4C46B8F1090FCDE9040113
:102AE00013DD764B03EBC80353E91223FFF74AF8D3
:102AF000064650460F46FEF7CFFF02460B463046CD
:102B00003946FEF78DFECDE90401B9F10F0F00F350
:102B1000D780079B002B00F0A480079B40F35F85C4
:102B2000162B00F3CA84654901EBC301D1E900010A
:102B3000DDE90423FFF726F8804689460DE00123EE
:102B4000069369E7199319E718B90A9B002B00F05F
:102B50009A824FF000084FF00009039B002B3FF4CE
:102B60004DAF199F48E70023302E06937FF45DAFE9
:102B70006378582B00F09D83782B00F09A83013402
:102B800019942678302EFAD0002EE2D00123089432
:102B90000A934DE7B9F1000F4ED0199F7B1C199392
:102BA0007E782B2E00F066822D2E00F05D824FF095
:102BB0000008A6F13003092B324600F2FD81302EC9
:102BC00006D1199B013319931E78302EFAD0324664
:102BD000313A082A3FF66DAF199B079319465A1CE4
:102BE0001992A6F130034E78A6F1300109290CD8CC
:102BF0000132199203EB830306EB43031678A6F127
:102C000030010929A3F13003F2D90799521A082A91
:102C100000F34A8444F61F629342A8BF1346C8F1EA
:102C2000000253404344B9F1000F7FF446AF8BE7F5
:102C30004FF0000C4FF0010E002840F021820A9B5B
:102C4000002B3FF4D1AE8146A7E76FF00043059318
:102C50004FF0FF3304932B0742BF059B43F0004323
:102C60000593DDE9048978E7584601F0D7FA006852
:102C7000FFF726FE199B1A1819921E5C002C40F0D3
:102C8000E181302E204606D1013219921678302E7D
:102C900000F10100F8D0A6F13103082B00F2988270
:102CA000199B0893303E00F1010C4FF0010905EB30
:102CB000850506EB45050020D2E100BF704D0008F8
:102CC000079BC8EB09089844B8F1000F40F39283C2
:102CD00018F00F010AD0BE4B03EBC101D1E900018E
:102CE000DDE90423FEF74EFFCDE9040138F00F06BD
:102CF00040F0208200230A930095089922464B4613
:102D0000584601F001FB1090002800F03383079A29
:102D10000021002AC2F10003A8BF0B460C9322EA4F
:102D2000E27307910B930F46109C5846616801F0BF
:102D300079FA8246002800F09D82226902329200D0
:102D400004F10C010C30FFF7BDFCDDE904231BA8E6
:102D50001CA98DE803005846CDE9082301F0C8FD01
:102D60001A90002800F087825846012101F066FB86
:102D70000746002800F07E821B9B002BC0F21081CA
:102D80000C9A0B9E02EB03090A991C9A5B1A1344D6
:102D90006FF47F718B42C2F1360880F2EA80CA1A62
:102DA0001F2AC2EB080800F300810125002395408B
:102DB000119346440A9BC844C8451E444346A8BFD5
:102DC0004B46B342A8BF3346002B04DDC3EB0808D3
:102DD000F61AC3EB09090C9BB3B1394658461A469B
:102DE00001F0D0FB0746002800F0448258463946DF
:102DF0001A9A01F02DFB0446002800F03B82584649
:102E00001A9901F035FA1A94B8F1000F08DD42461C
:102E100058461A9901F006FC1A90002800F02B82FF
:102E20000B9B43B1514658460B9A01F0ABFB8246CF
:102E3000002800F01F82002E08DD51463246584619
:102E400001F0F0FB8246002800F01482B9F1000F77
:102E500008DD39464A46584601F0E4FB074600289B
:102E600000F0088258461A99524601F055FC079026
:102E7000002800F0FF81079A0026D368D660394603
:102E80000D9301F025FCB042C0F21F8400F0DC83FA
:102E90000798394601F088FD00224FF08043044630
:102EA0000D46FFF7EBF8002867D00D9B002B00F0D4
:102EB000A080484DDDF814C0DFF81881B146002429
:102EC000454E464B0CEA06069E4200F025820A9BC0
:102ED00023B3B6F1D46F21D8484641463AA3D3E98B
:102EE0000023FFF7CBF8B0B148464146FFF7E4F8BE
:102EF0008146002800F02483FEF7CEFD81468846F7
:102F00000D9B002B40F0178308F10043CDF8509043
:102F10001593DDE9144505F1D6639D1BDDE9080134
:102F200001F064FC02460B4620462946FEF72AFEC5
:102F300002460B46DDE90801FEF772FCCDE904010B
:102F40000C460A9B23B9244B23409E4200F01D826D
:102F500058461A9901F08CF95846514601F088F903
:102F60005846394601F084F95846079901F080F92E
:102F7000DAE60023119301251BE7194B2046294669
:102F80000022FEF7FFFD0D9B8146884663BB01F1E1
:102F900000430E900F93DDE90E45DDF814C08FE776
:102FA0000B9ADDF83090D61AEEE60E4A0125D21AB9
:102FB00005FA02F31193FCE619970023B9F1000F0B
:102FC0007FF47BADC0E500BF0000C0FFFFFFDF4125
:102FD000704D00080000F03F0000F07F0000E07F2F
:102FE0000000E03FE3FBFFFF02460B46CDE90E2366
:102FF000D1E7049BDDE90401002B40F0DE80C1F342
:1030000013038C46002B40F0DC80119120462946AA
:103010000022B54BFFF728F8DDF844C0002840F047
:103020009983B24B204629460022FEF7ABFDDDF81E
:1030300044C0169001F10043814688461793DDE9AC
:1030400016453DE74046C446A146A6F13002092A8E
:1030500013D8431C1646002A40F04D821846199B8F
:103060005A1C19925E78F0E74FF00108BB1C1993C7
:10307000BE789EE54FF00008F8E74FF0010E14E52A
:103080004FF0000989E5BEF1000F7FF4ADAC493E79
:10309000252E3FF6A9AC01A353F826F01B320008F9
:1030A000E9290008E9290008E9290008E9290008B8
:1030B000E3310008E9290008E9290008E9290008A6
:1030C000E9290008E9290008E9290008E929000898
:1030D000E9290008E9290008E9290008E929000888
:1030E000E9290008E9290008E9290008E929000878
:1030F000E9290008E9290008E9290008E929000868
:10310000E9290008E9290008E9290008E929000857
:10311000E9290008E9290008E92900081B3200080C
:10312000E9290008E9290008E9290008E929000837
:10313000E3310008B6F59A7F00F31C813611012EA9
:10314000DFF8D08140F32483DDE9040147464FF0E6
:10315000000A16F0010F0AF1010A4FEA660603D0D1
:10316000D7E90023FEF70EFD012E07F10807F0D185
:10317000CDE90401059BA3F15473059308EBCA083C
:10318000DDE90423D8E90001FEF7FCFC21F000434F
:103190001B0D574A1B059342CDE9040100F2EA805A
:1031A000A2F58012934240F2D082524B0593002345
:1031B0000A934FF0FF3304939EE5012800F0C3818A
:1031C0008C4600244C4DDFF820814FF0000977E653
:1031D000652E3FF42DAD4FF00009CC464FF0010EA7
:1031E00065E41999454809E011F8013FA3F141044C
:1031F000192C98BF203393427FF4F6AB10F8012BC3
:10320000002AF1D14B1C19934B78282B00F0FE8239
:103210003B4B05930023049323E5199A394809E0B1
:1032200012F8013FA3F14104192C98BF20338B42BF
:103230007FF4DAAB10F8011B0029F1D11992154681
:10324000314809E012F8013FA3F14104192C98BF5D
:1032500020338B4240F0998210F8011B0029F1D1F4
:1032600001321992294B059300230493F9E40131AB
:1032700040F0B9821A98254B059300220492DDE9AB
:1032800004892223CBF800300146584600F0F0FFB5
:103290005846514600F0ECFF5846394600F0E8FF2A
:1032A0005846109900F0E4FF5846079900F0E0FFF7
:1032B00053E4069A01921AAB0093584619A9144A8E
:1032C0001BAB00F05FFC10F0070605463FF441AC75
:1032D000062E40F047810134002319944FF0000876
:1032E0004FF00009069338E40000F03F0000E03F93
:1032F0000000A07CFFFFEF7F0000F0BF104C000833
:103300000000F8FF044C0008084C00080000F07FA3
:10331000144C0008384E0008ACF154730593DDE9F5
:1033200004231046194601F061FA02460B46204676
:103330002946FEF727FC02460B46DDE90401FEF7AD
:103340006FFA21F00043CDE904011B0DB84ADDE915
:1033500008011B059342CDE9120140F2A980B54B4B
:10336000139A9A4200F0EC81B24B05934FF0FF3371
:103370000493EDE5B04B0593002222230492DDE98E
:103380000489CBF80030FFF7E8BB4146484601F01E
:1033900007FCFEF791FB0B46024641464846FEF706
:1033A0003DFA0D9B8046894683B9049B73B9C4F3EB
:1033B00013045CB998A3D3E90023FEF755FE002857
:1033C0003FF4C6ADDDE904891A985DE740464946F9
:1033D00093A3D3E90023FEF747FE0028F2D140462D
:1033E000494691A3D3E90023FEF75CFE00283FF491
:1033F000AFADE7E73FF47EACC8F1000616F00F0270
:103400000AD08E4B03EBC203DDE90401D3E90023AC
:10341000FEF7E2FCCDE9040136113FF46BAC1F2E40
:1034200039DC16F0100300F0E8816A23002ED8BFC3
:103430000A9314DDDDE90401814F0A9316F0010FB0
:103440004FEA660603D0D7E90023FEF79BFB002E68
:1034500007F10807F2DC0A9BCDE9040193B1DDE92D
:103460000401C1F30A53C3F16B03002B0ADD1F2BC8
:1034700040F3E9810022342B049240F3EC814FF0B9
:103480005C730593DDE9040100220023FEF7E2FDF1
:1034900000283FF431AC2223CBF800304FF0000875
:1034A0004FF00009FFF759BB44F61F63FFF7B7BBA6
:1034B000059B03F15474059443E5079AC9F125036C
:1034C0009A423FF7FDAB5D4CC9F10F0904EBC9010E
:1034D000DDE90423D1E90001FEF754FB079BC9EBAA
:1034E000030904EBC904D4E90023FEF74BFB804633
:1034F0008946FFF732BB012B9C4414D0484402E0BC
:103500005D00814510D009F1010909F1FF33082B55
:1035100005EB8503F4DDB9F1100FDCBF0AEB8A0A75
:103520004FEA4A0AEDE74846082800F1010967DC3E
:10353000199BFFF7BCBB4A464346CDE91423E8E498
:10354000DFF80081DCE4DDE904239C46002B7FF4F6
:1035500038AE2223CBF800301A984FF000084FF015
:10356000000991E61A9A3AB11CA8352101F048FAEF
:1035700058461A9900F07CFE1B9B062E3FF66BAB5B
:1035800001A252F826F000BFD5350008BD3500086D
:10359000B1350008A53500084B2C0008BD350008E2
:1035A000D5350008244B059300230493FFF753BB44
:1035B0001C9B04931D9B0593FFF74DBB1D9A1C9903
:1035C000049103F2334322F4801242EA0353059339
:1035D000FFF741BB002305930493FFF73CBB163371
:1035E000FFF66EAB079A154BA3EBC203DDE90401AE
:1035F000D3E90023FEF7F0FB80468946FFF7ADBA1A
:10360000B9F1100FD7BF0AEB8A0A199B199B02EB7D
:103610004A0A002024E500BF9535A094FFFFCF3F64
:103620009535A094FFFFDF3F35E5AF350000E03F63
:10363000FFFF9F7CFFFFEF7F0000F07F704D0008D1
:10364000284C00080000F03F0D9EAE46DDE90889D9
:10365000002E00F08880DDE90445834BC5F313019B
:1036600099422A4600F0A980119B002B00F0888027
:10367000059A13420DD0DDE904010A9A002E00F0EC
:103680008A80FFF74BF942464B46FEF7C9F8804661
:1036900089460A9BBBB1754B139300231293DDE956
:1036A000122340464946FEF76DFA02460B46804615
:1036B0008946CDE9042331B9049B23B922231A9802
:1036C000CBF80030E0E51A98DEE50D9EDDE90889CB
:1036D000002EDED1049B002BDBD1DDE90401C1F318
:1036E00013030C46002BD4D1059B23F000431B0D84
:1036F0001B05B3F1D66FCCD9079A536913B9136977
:10370000012BC6DD07990122584600F08BFF394690
:10371000079000F0DDFF0028BBDD0A9B002B40F086
:103720008780534B2340A3F580136FEA13536FEA4E
:10373000035305934FF0FF330493DDE90489A8E7B1
:10374000129B01337FF410AE94E501F1547305939D
:10375000FFF7D0BA474BDFF82881DDF8349000221C
:10376000CDE916236BE4DDE90401C1F313030C4634
:10377000002B7FF479AF049B002B7FF475AFCCE76F
:10378000049A1EEA020F84D075E76B1C199369E551
:103790004FF0000AEEE4FFF7C1F802460B46404640
:1037A0004946FEF73BF80022002380468946FEF793
:1037B00051FC00287FF4CDAE6BE70A9B049913B34C
:1037C0002B4B2B40B3F1D46F1DD81B0DC3F16B03F2
:1037D0004FF0FF3000FA03F399427FF445AF264BD8
:1037E0009A423FF444AD224B134003F580130593F6
:1037F00000230493DDE904894BE7002ED8BF0A9328
:103800003FF718AE3EE64FF0FF33E5E719A81B4936
:103810001CAA00F041FC05287FF4FAAC1D9B43F084
:10382000FF4343F4E00305931C9B0493FFF719BA8D
:103830000F4B2340B3F1D66F3FF775AFB3F15C7F09
:103840003FF729AF85E64FF0FF3202FA03F3049AFF
:103850001A40049216E6203B4FF0FF3202FA03F3BF
:103860000B4005930EE600BFFFFF0F00000050392C
:103870000000F07F0000E0BFFFFFEF7FF04B00088B
:103880000000E03FAFF30080024B0A460146186893
:10389000FFF766B848080020F8B5234F0C460646E7
:1038A000FEF7F8FFBB685D6825F00305291B01F6EC
:1038B000EF7121F47F6121F00F01A1F58054B4F57F
:1038C000805F07DB30460021FEF7E8FFBB682B4432
:1038D000984204D03046FEF7DFFF0020F8BD3046A6
:1038E0006142FEF7DBFF01300DD0104BBA6819685A
:1038F0002D1B45F001053046091B55601960FEF788
:10390000CBFF0120F8BD30460021FEF7C7FFBA68A3
:10391000831A0F2BDEDD064C0449246843F00103B3
:10392000001B53600860D5E7100000202809002024
:103930001C04002000294ED02DE9F0410C468046A1
:10394000FEF7A8FF54F8047C624927F00102A4F1B5
:103950000805AB188E6858689E4220F003005AD0C4
:10396000FE0758600BD454F8087CED1B01F1080EDB
:10397000AC6874453A4467D0EF68E760BC601C18D7
:103980006468E4070CD4544F9C68BC4202447CD069
:10399000D868E06042F0010384606B60AA5003E0E5
:1039A00042F001036B60AA50B2F5007F14D2D20836
:1039B00001EBC20348689F68AF609210012404FACB
:1039C00002F21043EB6048609D60FD604046BDE838
:1039D000F041FEF761BF7047530A042B47D89309A3
:1039E00003F13804600001EB80003A4983688342A8
:1039F00043D0596821F00301914202D99B68984253
:103A0000F7D1DA68EA60AB6040469560DD60BDE8FA
:103A1000F041FEF741BFFF07024407D454F8083CC9
:103A2000ED1A1A44A868EB68C36098602B4B1B68BA
:103A300042F001009A4268608D60C7D3284B40462F
:103A40001968FFF729FFC1E719184968C90709D4A0
:103A5000D9689B68024442F00100D9608B606860BD
:103A6000AA50B3E742F001036B60AA50AEE7142BF3
:103A700014D803F15B046000B5E74A68A410012084
:103A8000A04002434A601A46BCE742F001034D6180
:103A90000D61EC60AC606B60AA5097E7542B04D8C2
:103AA000130B03F16E0460009DE7B3F5AA7F04D801
:103AB000D30B03F17704600095E740F25450834242
:103AC00004D8930C03F17C0460008CE7FC207E2476
:103AD00089E700BF10000020180000201804002013
:103AE0002409002002694B119342F0B500F114063D
:103AF0002BDA11F01F0106EB820206EB830E29D0B0
:103B000056F823300EF10405AA4223FA01F4C1F15C
:103B1000200C35D900F110072B6803FA0CF323436E
:103B200047F8043F55F8043BAA4223FA01F4F3D8BE
:103B3000CEEB0202053A22F0030204323244146052
:103B400004B10432931B9B1016E000230361002391
:103B50004361F0BD7245F8D900F11004714651F887
:103B6000045B44F8045F8A42F9D86FEA0E031344F9
:103B700023F0030304339B100361002BE7D0F0BD57
:103B80003246DCE72DE9F04F8BB08846029207936E
:103B9000059000F043FB0368039318461C46FEF7AC
:103BA0008FFED8F8003000909A782118302A11F84A
:103BB00001BC40F0A08103334FF000091C4613F80C
:103BC000012B302A09F10109F8D0AE4EB35C002B6D
:103BD00000F0EF8023784FF0000AF35C554627464B
:103BE00023B117F8013FF35C002BFAD13846039953
:103BF000009A00F059FFC0B13B78002D00F06A81B7
:103C0000ED1BAA000192502B18D0702B16D03D4608
:103C1000C8F80070BAF1000F40D0B9F1000F14BF1E
:103C2000002006200BB0BDE8F08F002D00F08B8146
:103C30003B78E5E7002301934FF0010A7B782B2BBB
:103C400000F01E812D2B00F0E680791C0025F35C2E
:103C50008C485A1E182ADAD84A78825C501E1828D6
:103C6000A3F1100301F101010BD811F8010F03EBCF
:103C7000830302EB4303325C501E1828A3F11003A8
:103C8000F3D96A425340019A2B441A443D460F46E9
:103C90000192C8F80070BAF1000FBED12B1B013B96
:103CA000072B514604DD5B10072B01F10101FADC03
:103CB000059800F0B7FA03461433A5420490069322
:103CC00040F292819946009B4FF00008C3F1010C2D
:103CD000A2462B464746444665460DE0202F60D05D
:103CE0003A46043713F8013CF35C03F00F039340AA
:103CF0001C434346534519D913F8012C5A4503F187
:103D0000FF38EBD108EB050CD445E7D360460399A7
:103D1000009A0993CDF820C000F0C6FEDDF820C05F
:103D2000099B0028DAD163465345E5D8A04649F8F7
:103D3000048B069B049AC3EB09094FEAA90313619C
:103D400040464FEA431900F02BFB029B1E68C0EB74
:103D50000900B04200F39880C0F2BE800027029BA9
:103D6000019A9B689A424BDC029B019A5B689A42DB
:103D70006BDA9D1AAE4200F3C680029AD268022A1C
:103D800000F04881032A00F01681012A00F03381F7
:103D90000598049900F06CFA149A002313605020DF
:103DA00040E7C9F80040002409F10409224604272D
:103DB00098E720460399009A00F076FE78B32378BE
:103DC0002746502B3FF436AF702B3FF433AFC8F883
:103DD000007022E74544C6F1200655F8040C00F0B7
:103DE000DFFAB04280F2E38004980121FFF77AFE07
:103DF000029B019A9B6801329A42019240F3D7805C
:103E00000598049900F034FA149A0023A320136053
:103E10000BB0BDE8F08F0125BB78B91C17E70099FE
:103E2000625CB35C6718002B69D0302A3C4604D131
:103E300014F8013F302BFBD0F35CB3FA83FA3D4614
:103E40004FF001094FEA5A1AC9E6012467B1029BF3
:103E5000DB68022B00F08580032B00F08680012BAD
:103E600000F0B98044F01004149B1A46049B1360C0
:103E7000079B1A46019B136020460BB0BDE8F08FEC
:103E80000025C9E7504C0008841B2146049800F027
:103E9000DBFD002835D0631E5A11069803F01F0180
:103EA00050F82220012707FA01F111420AD0BB4243
:103EB00040F39F800498A11E00F0C6FD002800F08A
:103EC00098800327019B0498234421460193FFF720
:103ED00009FE44E7019596E6341A049905982246AE
:103EE00000F0A0FB019B04901B1B019303461433BD
:103EF0000693002733E79C1C4FF0000965E6134644
:103F00005FE70746DEE76C1E002F52D1002C04DD70
:103F10000498214600F098FD07466311069A04981C
:103F200052F8232004F01F040123A3401342294622
:103F300018BF47F00207FFF7D5FD029B5B680193AE
:103F4000761B022482E700997B5CF25C7D182F4689
:103F5000002A3FF455AE17F8013FF25C002AFAD16F
:103F60004EE6159BC3F101031593159B002B3FF4FF
:103F700079AF049B1F69069BBD005819002103E01F
:103F800043F8041B984249D91A68B2F1FF3FF7D0B1
:103F90000132DDF818801A60022C4ED0049B1B6998
:103FA0009F42FFF621AF16F01F067FF413AF2124C6
:103FB0005AE70127B1E7159A002A3FF4E9AE0799BD
:103FC0000B60069B049901220A611A60149B1A4631
:103FD0006220116026E6BA077FF544AF069B1B6896
:103FE0003B43DB07C5D43DE7DDF818904FF00008F0
:103FF0009DE6022766E7B5427FF4CAAE012EDEDDFC
:10400000711E049800F020FD00283FF4C1AE029B11
:104010005B68D4E7159A002AD1D0B9E6049B9B6867
:104020009F4211DADDF818803B46049800EB8302CA
:104030000121013303615161AEE7029B1B68013B23
:10404000B3421DD022240FE7049BDDF81490596879
:104050004846013100F0E6F804990B699A1C804645
:1040600092000C310C30FEF72DFB4846049900F00D
:10407000FFF8CDF81080D8F8103008F11408D4E714
:10408000731106F01F0658F823200123B340134292
:104090000CBF22242124E7E62DE9F04F0B6885B000
:1040A000591102EB810113F01F0302900191039358
:1040B00002D00B4604330193019CDFF85C9100238E
:1040C000194644F8043C9A469E46029BA4F1040C0F
:1040D0001D68E046604615F8013F23B319F8034018
:1040E000002C43D1202B5ED8D645F4DD404513D2B9
:1040F000072911DCC1F1080189000668C1F1200B14
:1041000003465F6807FA0BF4344327FA01F61C6094
:1041100043F8046F9845F4D890423BD815F8013F16
:104120000821002BDAD1BEF1000F3ED0404501D26C
:1041300007295DDD82423CD2134650F8041B43F848
:10414000041B8445F9D2002143F8041B9C45FBD293
:10415000019B53F8043C2BB962453BD05CF8043D0D
:10416000002BF9D0052005B0BDE8F08F01310829FA
:104170000EF1010E06DC03681B0104F00F041C4362
:104180000460A8E79042A6D9002340F8043C01212E
:104190000438F2E70023A0F1040840F8043CF2469A
:1041A0004046194697E7292B1BD0042005B0BDE8EF
:1041B000F08F039B002BCBD0019C039B54F8041C75
:1041C000C3F120034FF0FF3020FA03F30B4044F813
:1041D000043CC0E701230520CCF8003005B0BDE861
:1041E000F08F029B01351D60BEF1000F9ED1DCE710
:1041F000C1F108039B000568C3F1200701464E6822
:1042000006FA07F42C4326FA03F50C6041F8045F24
:104210004145F4D38EE700BF504C0008004870477A
:104220004C080020C36C70B505460C464BB153F8E2
:10423000240080B1026843F8242000230361C36096
:1042400070BD0421212200F07BFCE86403460028B5
:10425000EDD1002070BD012101FA04F6721D28463F
:10426000920000F06DFC0028F3D044608660E4E723
:1042700031B1C36C4A6853F82200086043F8221039
:10428000704700BFF0B50C6983B00D46064601F1DA
:10429000140E0027DEF8001088B2090C02FB003370
:1042A00002FB01F101EB134101379BB203EB014328
:1042B000BC424EF8043B4FEA1143EBDC3BB1AA6829
:1042C000944207DA05EB8402013453612C612846DD
:1042D00003B0F0BD6968019301313046FFF7A2FFDA
:1042E0002A69023205F10C01074692000C30FEF7F4
:1042F000E9F9F26C6968019B52F82100286042F8E4
:1043000021503D46DEE700BF2DE9F843234C089ECF
:104310001F46083384FB034EDB17C3EB6E0EBEF162
:10432000010F05460C46904635DD012300215B0058
:104330009E4501F10101FADC2846FFF773FF0123D6
:10434000B8F1090F4661036121DD04F109094E4608
:10435000444416F8013B0146303B28460A22FFF749
:1043600091FFA642F5D109EB0804083C47450CDD56
:10437000C8EB0707274414F8013B0146303B2846A9
:104380000A22FFF77FFFBC42F5D1BDE8F8830A346B
:104390004FF00908EAE70021CEE700BF398EE33885
:1043A000030C1B04B3B90004102310F07F4F04BFAB
:1043B0000002083310F0704F04BF0001043310F006
:1043C000404F04BF80000233002807DB420003D4C3
:1043D000202070470023E8E7581C704718467047B4
:1043E000036813F0070207D0D90720D49A0720D416
:1043F0009B0803600220704799B209B91B0C102278
:1044000013F0FF0F04BF1B0A0832190704BF1B0972
:104410000432990704BF9B080232D90704D45B0811
:1044200001D1202070470132036010467047002000
:1044300070475B0803600120704700BF10B50C4651
:104440000121FFF7EFFE01224461026110BD00BFB0
:104450002DE9F04F0F691669B74283B00D46144637
:10446000C0F28D8033463E461F46AB68696806EB56
:1044700007089845C8BF0131FFF7D4FE00F1140CBE
:104480000CEB8809CC45009005D26346002143F827
:10449000041B9945FBD804F1140202EB870A05F1CD
:1044A0001403524503EB860E54D2CDF8049099467E
:1044B00052F8043B1FFA83FBBBF1000F20D0002011
:1044C0004F466646054600E01E4657F8044B3068E6
:1044D000A1B283B20BFB0131240C000C4B190BFB76
:1044E000040000EB134099B2334641EA0041BE4557
:1044F0004FEA104543F8041BE6D8756052F8043CB7
:104500005FEA134B20D0DCF80030674618464D4672
:10451000002100E037462C88000C0BFB040001440E
:104520009CB23E4644EA014346F8043B786855F89D
:10453000044B83B2240C0BFB043404EB1143AE4553
:104540004FEA1341E6D87B6092450CF1040CAFD8DA
:10455000DDF80490B8F1000F0BDD59F8043CA9F127
:1045600004091BB105E059F8043D13B9B8F101087D
:10457000F9D10098C0F8108003B0BDE8F08F15465F
:104580000C4672E712F003032DE9F041144607468A
:104590000E462DD1A4101CD0BD6C95B3E3074FF08F
:1045A000000806D4641014D02868A8B10546E307B3
:1045B000F8D5384631462A46FFF74AFFB6B1726849
:1045C000FB6C641053F82210316043F822600646F9
:1045D000EAD13046BDE8F08129462A463846FFF741
:1045E00037FF2860C0F800800546E0E70646D9E7B7
:1045F0005A1E0B4D002355F82220FFF743FE0646B6
:10460000C8E701213846FFF70DFE40F27121012273
:104610000023416102610546B8640360BEE700BF44
:10462000644D00082DE9F0470F698B684FEA621965
:104630004F447D1C9D420E4614464968804604DD69
:104640005B009D4201F10101FADC4046FFF7EAFD03
:10465000B9F1000F00F1140109DD00239E460A465E
:1046600001334B4542F804EBFAD101EB8301326987
:1046700006F1140314F01F0C03EB820E1FD0CCF1D3
:10468000200900221C6804FA0CF414438A4641F8FD
:10469000044B53F8044B9E4524FA09F2F2D8CAF8A9
:1046A000042002B1BD1CD8F84C307268013D53F8AB
:1046B00022100561316043F82260BDE8F0870439BB
:1046C00053F8042B41F8042F9E45F9D8EBE700BFBF
:1046D00002690B69D21A13D19B00143014311944AA
:1046E00010B4034401E098420CD253F8044D51F841
:1046F000042D9442F7D009D301205DF8044B704794
:104700001046704700205DF8044B70474FF0FF30B3
:104710005DF8044B704700BF2DE9F0410E46054699
:10472000114630461446FFF7D3FF071E54D04DDB29
:104730004FF0000871682846FFF774FD3769236958
:10474000C0F80C80143604F1140202EB830C00F163
:10475000140506EB870E002356F8048B52F8044B21
:1047600013FA88F3A1B2240C591AC4EB184303EBD3
:10477000214389B241EA0341944545F8041B4FEABD
:1047800023433446E8D8B645AC4615D954F8042B33
:1047900013FA82F1130C03EB214389B241EA03417E
:1047A000A64545F8041B4FEA2343EFD8F643764469
:1047B00026F0030504356544043D21B955F8043D50
:1047C000013F002BFAD00761BDE8F08133464FF07E
:1047D000010826461C46ADE728463946FFF722FD6C
:1047E000012347610361BDE8F08100BF0E4B0B4020
:1047F000A3F15073002B02DD0020194670475B4285
:104800001B15132B0ADD322BDDBFC3F1330301224D
:1048100002FA03F301230021184670474FF40022E7
:10482000002042FA03F170470000F07FF8B50469F8
:1048300000F1140707EB84040D4654F8046C30466D
:10484000FFF7AEFDC0F120030A282B60A4F104019C
:1048500016DC8F42C0F10B0538BF54F8081C26FA4D
:1048600005FE00F1150034BFE940002186404EF0FE
:104870007F5341EA060243F4401310461946F8BD3F
:104880008F4220D2B0F10B0EA4F1080C54F8081C92
:1048900026D0C0F12B05674521FA05F306FA0EF67E
:1048A00046EA030638BF54F80C0C46F07F5343F435
:1048B000401334BFE840002001FA0EF141EA000243
:1048C00010461946F8BDB0F10B0E08D006FA0EF6E8
:1048D00046F07F53002043F440130146ECE7714655
:1048E00046F07F530A4643F4401310461946F8BD7C
:1048F0002DE9F04182B001211C46C3F30A57154649
:10490000089EFFF78FFCC4F3130480460FB144F4F4
:10491000801401941DB302A840F8085DFFF760FD04
:10492000002834D19DE80C00C8F81420002B14BFD7
:1049300002240124C8F81830C8F81040DFB908EB89
:104940008403A0F2324030601869FFF729FD099B0B
:10495000C0EB44101860404602B0BDE8F08101A8E9
:10496000FFF73EFD0124019BC8F814302030C8F841
:104970001040002FE3D0099BA7F233470744C0F152
:10498000350037601860404602B0BDE8F0819DE810
:104990000C00C0F1200103FA01F10A43C340019366
:1049A000C8F81420C2E700BF2DE9F04383B0884661
:1049B00069468146FFF73AFF04460D46404601A985
:1049C000FFF734FF0F469DE80A000646D9F810208D
:1049D000D8F81000C91A121A01EB4213002B0BDD94
:1049E00005EB03510D462046294632463B46FDF76E
:1049F000F3F903B0BDE8F083A7EB03594F46F2E7A4
:104A000070B4146902F1140301394E1103EB8404EC
:104A10000136A34200EB86060CD2011F53F8045B5B
:104A200041F8045F9C42F9D8A31A153B23F0030315
:104A300004331844864204D9002340F8043B8642DC
:104A4000FBD870BC704700BF03694A11934210B491
:104A500000F1140410DA04EB83039C4221D253F8D2
:104A6000040C043B18B115E053F8042D92B99C4294
:104A7000FAD35DF8044B704710DD11F01F010DD023
:104A800054F8220020FA01F303FA01F1814204EB09
:104A90008203E2D001205DF8044B704704EB8203EF
:104AA000DBE70020E5E700BF002A3ED040EA010333
:104AB00013F00303F0B425D1032A23D904680D6849
:104AC000AC421FD1043A32D0A4F1013525EA0404E6
:104AD00014F0803F2ED1071D0D1D0DE057F8043B4B
:104AE0000E68A3F10134B34224EA03040AD1043A64
:104AF0001DD014F0803F20D1032A2946384605F105
:104B00000405EBD803780C78A34202F1FF3209D1F7
:104B10006AB17BB110F8013F11F8014FA34202F1D5
:104B2000FF32F5D0181BF0BC704710467047104696
:104B3000F0BC70471846F0BC70470020F3E700BF98
:104B400010B502FB01F1FDF72BFB044668B150F8EC
:104B5000042C22F00302043A242A18D8132A06D877
:104B6000034600221A605A609A60204610BD002356
:104B70001B2A036043600FD9242A8360C36005BFEA
:104B80000361436100F1100300F11803E9E700211C
:104B9000FDF732FE204610BD00F10803E1E700BF3B
:104BA0004FEA410212F5001215D211D56FF4787355
:104BB000B3EB625212D94FEAC12343F0004343EAF8
:104BC000505311F0004F23FA02F018BF40427047D3
:104BD0004FF00000704750EA013005D111F000405D
:104BE00008BF6FF0004070474FF00000704700BFF3
:104BF00034000000CEFBFFFFCB03000001000000EB
:104C0000000000006E660000696E697479000000A3
:104C1000616E000035000000CEFBFFFFCB030000FB
:104C20000100000000000000BC89D897B2D29C3C73
:104C300033A7A8D523F649393DA7F444FD0FA53283
:104C40009D978CCF08BA5B25436FAC64280668112A
:104C50000000000000000000000000000000000054
:104C60000000000000000000000000000000000044
:104C70000000000000000000000000000000000034
:104C80001011121314151617181900000000000057
:104C9000001A1B1C1D1E1F00000000000000000069
:104CA0000000000000000000000000000000000004
:104CB000001A1B1C1D1E1F00000000000000000049
:104CC00000000000000000000000000000000000E4
:104CD00000000000000000000000000000000000D4
:104CE00000000000000000000000000000000000C4
:104CF00000000000000000000000000000000000B4
:104D000000000000000000000000000000000000A3
:104D10000000000000000000000000000000000093
:104D20000000000000000000000000000000000083
:104D30000000000000000000000000000000000073
:104D40000000000000000000000000000000000063
:104D500043000000504F534958000000000000007D
:104D60002E00000005000000190000007D0000007A
:104D7000000000000000F03F0000000000002440A0
:104D800000000000000059400000000000408F407B
:104D9000000000000088C34000000000006AF840E6
:104DA0000000000080842E4100000000D01263410A
:104DB0000000000084D797410000000065CDCD4180
:104DC000000000205FA00242000000E87648374261
:104DD000000000A2941A6D42000040E59C30A242FF
:104DE0000000901EC4BCD64200003426F56B0C4374
:104DF0000080E03779C3414300A0D885573476431B
:104E000000C84E676DC1AB43003D9160E458E1437B
:104E1000408CB5781DAF154450EFE2D6E41A4B44F0
:104E200092D54D06CFF08044F64AE1C7022DB54435
:104E3000B49DD9794378EA440080E03779C341438F
:104E4000176E05B5B5B89346F5F93FE9034F384DF0
:104E5000321D30F94877825A3CBF737FDD4F15759C
:104E60000000000001020304010203040607080910
:104E700000000000000000001000002010000020D2
:104E80001800002018000020200000202000002032
:104E900028000020280000203000002030000020E2
:104EA0003800002038000020400000204000002092
:104EB0004800002048000020500000205000002042
:104EC00058000020580000206000002060000020F2
:104ED00068000020680000207000002070000020A2
:104EE0007800002078000020800000208000002052
:104EF0008800002088000020900000209000002002
:104F00009800002098000020A0000020A0000020B1
:104F1000A8000020A8000020B0000020B000002061
:104F2000B8000020B8000020C0000020C000002011
:104F3000C8000020C8000020D0000020D0000020C1
:104F4000D8000020D8000020E0000020E000002071
:104F5000E8000020E8000020F0000020F000002021
:104F6000F8000020F80000200001002000010020CF
:104F7000080100200801002010010020100100207D
:104F8000180100201801002020010020200100202D
:104F900028010020280100203001002030010020DD
:104FA000380100203801002040010020400100208D
:104FB000480100204801002050010020500100203D
:104FC00058010020580100206001002060010020ED
:104FD000680100206801002070010020700100209D
:104FE000780100207801002080010020800100204D
:104FF00088010020880100209001002090010020FD
:105000009801002098010020A0010020A0010020AC
:10501000A8010020A8010020B0010020B00100205C
:10502000B8010020B8010020C0010020C00100200C
:10503000C8010020C8010020D0010020D0010020BC
:10504000D8010020D8010020E0010020E00100206C
:10505000E8010020E8010020F0010020F00100201C
:10506000F8010020F80100200002002000020020CA
:105070000802002008020020100200201002002078
:105080001802002018020020200200202002002028
:1050900028020020280200203002002030020020D8
:1050A0003802002038020020400200204002002088
:1050B0004802002048020020500200205002002038
:1050C00058020020580200206002002060020020E8
:1050D0006802002068020020700200207002002098
:1050E0007802002078020020800200208002002048
:1050F00088020020880200209002002090020020F8
:105100009802002098020020A0020020A0020020A7
:10511000A8020020A8020020B0020020B002002057
:10512000B8020020B8020020C0020020C002002007
:10513000C8020020C8020020D0020020D0020020B7
:10514000D8020020D8020020E0020020E002002067
:10515000E8020020E8020020F0020020F002002017
:10516000F8020020F80200200003002000030020C5
:105170000803002008030020100300201003002073
:105180001803002018030020200300202003002023
:1051900028030020280300203003002030030020D3
:1051A0003803002038030020400300204003002083
:1051B0004803002048030020500300205003002033
:1051C00058030020580300206003002060030020E3
:1051D0006803002068030020700300207003002093
:1051E0007803002078030020800300208003002043
:1051F00088030020880300209003002090030020F3
:105200009803002098030020A0030020A0030020A2
:10521000A8030020A8030020B0030020B003002052
:10522000B8030020B8030020C0030020C003002002
:10523000C8030020C8030020D0030020D0030020B2
:10524000D8030020D8030020E0030020E003002062
:10525000E8030020E8030020F0030020F003002012
:10526000F8030020F80300200004002000040020C0
:10527000080400200804002000000200FFFFFFFFD8
:10528000000000000C07002074070020DC0700204D
:10529000000000000000000000000000000000000E
:1052A00000000000000000000000000000000000FE
:1052B00000000000504D0008000000000000000049
:1052C00000000000000000000000000000000000DE
:1052D00000000000000000000000000000000000CE
:1052E00000000000000000000000000000000000BE
:1052F00000000000000000000000000000000000AE
:10530000000000000000000000000000000000009D
:10531000000000000000000000000000000000008D
:10532000000000000000000001000000000000007C
:105330000E33CDAB34126DE6ECDE05000B00000041
:10534000000000000000000000000000000000005D
:10535000000000000000000000000000000000004D
:10536000000000000000000000000000000000003D
:10537000000000000000000000000000000000002D
:1056A000000000000000000020040020604D000801
:1056B0005C4D00085C4D00085C4D00085C4D000826
:1056C0005C4D00085C4D00085C4D00085C4D000816
:1056D0005C4D0008FFFFFFFFFFFFFFFFFFFFFFFF25
:0456E000FFFF0000C8
:0400000508000000EF
:00000001FF
